{"abi":[{"type":"constructor","inputs":[{"name":"token_","type":"address","internalType":"contract IERC20"},{"name":"core_","type":"address","internalType":"contract MockAzuroCore"}],"stateMutability":"nonpayable"},{"type":"function","name":"betOrder","inputs":[{"name":"core_","type":"address","internalType":"address"},{"name":"order","type":"tuple","internalType":"struct IAzuroLP.OrderData","components":[{"name":"betOwner","type":"address","internalType":"address"},{"name":"conditionDatas","type":"tuple[]","internalType":"struct IAzuroLP.ConditionData[]","components":[{"name":"gameId","type":"uint256","internalType":"uint256"},{"name":"conditionId","type":"uint256","internalType":"uint256"},{"name":"conditionKind","type":"uint8","internalType":"uint8"},{"name":"odds","type":"uint64[]","internalType":"uint64[]"},{"name":"outcomes","type":"uint128[]","internalType":"uint128[]"},{"name":"potentialLossLimit","type":"uint128","internalType":"uint128"},{"name":"winningOutcomesCount","type":"uint8","internalType":"uint8"}]},{"name":"betType","type":"uint8","internalType":"uint8"},{"name":"oracle","type":"address","internalType":"address"},{"name":"clientBetData","type":"bytes","internalType":"bytes"},{"name":"bettorSignature","type":"bytes","internalType":"bytes"},{"name":"oracleSignature","type":"bytes","internalType":"bytes"}]},{"name":"","type":"address","internalType":"address"},{"name":"data","type":"bytes","internalType":"bytes"}],"outputs":[{"name":"tokenIds","type":"uint256[]","internalType":"uint256[]"}],"stateMutability":"nonpayable"},{"type":"function","name":"bets","inputs":[{"name":"tokenId","type":"uint256","internalType":"uint256"}],"outputs":[{"name":"core","type":"address","internalType":"address"},{"name":"stake","type":"uint128","internalType":"uint128"},{"name":"conditionId","type":"uint256","internalType":"uint256"},{"name":"outcomeId","type":"uint128","internalType":"uint128"},{"name":"payout","type":"uint128","internalType":"uint128"},{"name":"claimed","type":"bool","internalType":"bool"},{"name":"resolved","type":"bool","internalType":"bool"},{"name":"won","type":"bool","internalType":"bool"}],"stateMutability":"view"},{"type":"function","name":"core","inputs":[],"outputs":[{"name":"","type":"address","internalType":"contract MockAzuroCore"}],"stateMutability":"view"},{"type":"function","name":"nextTokenId","inputs":[],"outputs":[{"name":"","type":"uint256","internalType":"uint256"}],"stateMutability":"view"},{"type":"function","name":"resolveLoss","inputs":[{"name":"tokenId","type":"uint256","internalType":"uint256"}],"outputs":[],"stateMutability":"nonpayable"},{"type":"function","name":"resolveWin","inputs":[{"name":"tokenId","type":"uint256","internalType":"uint256"},{"name":"payout","type":"uint128","internalType":"uint128"}],"outputs":[],"stateMutability":"nonpayable"},{"type":"function","name":"token","inputs":[],"outputs":[{"name":"","type":"address","internalType":"address"}],"stateMutability":"view"},{"type":"function","name":"viewPayout","inputs":[{"name":"","type":"address","internalType":"address"},{"name":"tokenId","type":"uint256","internalType":"uint256"}],"outputs":[{"name":"","type":"uint128","internalType":"uint128"}],"stateMutability":"view"},{"type":"function","name":"withdrawPayout","inputs":[{"name":"","type":"address","internalType":"address"},{"name":"tokenId","type":"uint256","internalType":"uint256"}],"outputs":[{"name":"","type":"uint128","internalType":"uint128"}],"stateMutability":"nonpayable"},{"type":"error","name":"SafeERC20FailedOperation","inputs":[{"name":"token","type":"address","internalType":"address"}]}],"bytecode":{"object":"0x60c0346100a457601f610aa738819003918201601f19168301916001600160401b038311848410176100a95780849260409485528339810103126100a45780516001600160a01b039182821682036100a4576020015191821682036100a457600160005560805260a0526040516109e790816100c0823960805181818160a0015281816102e501526106ac015260a05181818160e70152818161015e01526107ae0152f35b600080fd5b634e487b7160e01b600052604160045260246000fdfe608060408181526004918236101561001657600080fd5b600092833560e01c918483630632fd6d1461073b5750508163161d07701461061257816322af00fa1461057d57816325aa820b14610544578163512a745014610206578390826375794a3c146101e95782639a3becc1146101165750508063f2f4eb26146100d35763fc0c546a1461008d57600080fd5b346100cf57816003193601126100cf57517f00000000000000000000000000000000000000000000000000000000000000006001600160a01b03168152602090f35b5080fd5b50346100cf57816003193601126100cf57517f00000000000000000000000000000000000000000000000000000000000000006001600160a01b03168152602090f35b915091346101e55760203660031901126101e557813583526001602052808320808301805462ffff0019166101001790556003810180546001600160801b03169055600201547f00000000000000000000000000000000000000000000000000000000000000006001600160a01b03169290833b156101e15760648592838551968794859363b591f87f60e01b85528401528160248401528160448401525af19081156101d857506101c55750f35b6101ce90610834565b6101d55780f35b80fd5b513d84823e3d90fd5b8480fd5b5050fd5b5082346100cf57816003193601126100cf57602091549051908152f35b905082346101d5576003196080368201126100cf5761022361081e565b91602480359067ffffffffffffffff948583116105405760e0838801958436030112610540576001600160a01b0360443581811603610533576064359587871161053c573660238801121561053c5786890135888111610538578701368582011161053857879060209889910312610538578401356001600160801b0391828216809203610533578b516323b872dd60e01b8a82015233878201523060448201526064808201849052815260a081018b81118282101761051f578d52610309907f0000000000000000000000000000000000000000000000000000000000000000610949565b875496600019881461050d576103436103358861034d9360018c018d55018c61033b61033583886108e2565b90610918565b0135946108e2565b60808101906108e2565b156104fb5735938385168095036104f7578c519561010087018781108d8211176104e3578d948f9194848e99958d99958f9c9886521687528987019283528387019182526060870195865260808701938b855260a088019b808d5260c089019b818d5260e08a019b828d52825260019052209651166bffffffffffffffffffffffff60a01b8754161786558360018701925116916001600160801b03199283825416179055516002860155826003860194511690845416178355511661042791906001600160801b0382549181199060801b169116179055565b01925115159183549051151560081b61ff00169151151560101b62ff0000169260ff169062ffffff1916171717905586519487860190868210908211176104cf5787526001855283850195843688378551156104be57828752875185815286518187018190528190818b01908a9089895b8281106104a757505050500390f35b835185528695509381019392810192600101610498565b634e487b7160e01b84526032905282fd5b50634e487b7160e01b600090815260418752fd5b8860418f634e487b7160e01b600052526000fd5b8880fd5b634e487b7160e01b895260328c528689fd5b634e487b7160e01b895260118c528689fd5b8760418e634e487b7160e01b600052526000fd5b600080fd5b8680fd5b8580fd5b8380fd5b5050346100cf57806003193601126100cf5760209061056161081e565b506001600160801b0361057560243561085e565b915191168152f35b9190503461060e57602036600319011261060e578060ff91610100948435815260016020522060018060a01b03815416936001600160801b03908160018401541693600284015491600385015494015494815197885260208801528601528116606085015260801c6080840152818116151560a0840152818160081c16151560c084015260101c16151560e0820152f35b8280fd5b8284346101d557816003193601126101d557819061062e61081e565b506024358152600160205220828101805460ff8116158061072e575b80610721575b156106f05760ff191660011790556003018054825163a9059cbb60e01b6020820152336024820152608091821c6044808301919091528152939084019067ffffffffffffffff8211858310176106db57506020936106d09184527f0000000000000000000000000000000000000000000000000000000000000000610949565b5460801c9051908152f35b604190634e487b7160e01b6000525260246000fd5b835162461bcd60e51b8152602081870152600b60248201526a6e6f742070617961626c6560a81b6044820152606490fd5b5060ff8160101c16610650565b5060ff8160081c1661064a565b91828591346100cf57826003193601126100cf57602435906001600160801b03821690818303610540578035845260016020526107a5858520938285016201010062ffff001982541617905560038501906001600160801b0382549181199060801b169116179055565b600292909201547f00000000000000000000000000000000000000000000000000000000000000006001600160a01b031692833b156101e15763b591f87f60e01b87528601526001602486015260448501528390606490829084905af19081156101d85750610812575080f35b61081b90610834565b80f35b600435906001600160a01b038216820361053357565b67ffffffffffffffff811161084857604052565b634e487b7160e01b600052604160045260246000fd5b60005260016020526040600020600481015460ff8160081c16156108ac5760ff811690811561089d575b50610897576003015460801c90565b50600090565b60ff915060101c161538610888565b60405162461bcd60e51b815260206004820152600e60248201526d10995d139bdd14995cdbdb1d995960921b6044820152606490fd5b903590601e1981360301821215610533570180359067ffffffffffffffff821161053357602001918160051b3603831361053357565b90156109335780359060de1981360301821215610533570190565b634e487b7160e01b600052603260045260246000fd5b906000602091828151910182855af1156109a5576000513d61099c57506001600160a01b0381163b155b61097a5750565b604051635274afe760e01b81526001600160a01b039091166004820152602490fd5b60011415610973565b6040513d6000823e3d90fdfea264697066735822122020cf7736948626f81231859ace3a29c0f079c566f36f7dc4525abdd9c51b500664736f6c63430008180033","linkReferences":{}},"methodIdentifiers":{"betOrder(address,(address,(uint256,uint256,uint8,uint64[],uint128[],uint128,uint8)[],uint8,address,bytes,bytes,bytes),address,bytes)":"512a7450","bets(uint256)":"22af00fa","core()":"f2f4eb26","nextTokenId()":"75794a3c","resolveLoss(uint256)":"9a3becc1","resolveWin(uint256,uint128)":"0632fd6d","token()":"fc0c546a","viewPayout(address,uint256)":"25aa820b","withdrawPayout(address,uint256)":"161d0770"},"id":44}