{"abi":[{"type":"constructor","inputs":[{"name":"token_","type":"address","internalType":"contract IERC20"},{"name":"core_","type":"address","internalType":"contract MockAzuroCore"}],"stateMutability":"nonpayable"},{"type":"function","name":"betOrder","inputs":[{"name":"core_","type":"address","internalType":"address"},{"name":"order","type":"tuple","internalType":"struct IAzuroLP.OrderData","components":[{"name":"betOwner","type":"address","internalType":"address"},{"name":"conditionDatas","type":"tuple[]","internalType":"struct IAzuroLP.ConditionData[]","components":[{"name":"gameId","type":"uint256","internalType":"uint256"},{"name":"conditionId","type":"uint256","internalType":"uint256"},{"name":"conditionKind","type":"uint8","internalType":"uint8"},{"name":"odds","type":"uint64[]","internalType":"uint64[]"},{"name":"outcomes","type":"uint128[]","internalType":"uint128[]"},{"name":"potentialLossLimit","type":"uint128","internalType":"uint128"},{"name":"winningOutcomesCount","type":"uint8","internalType":"uint8"}]},{"name":"betType","type":"uint8","internalType":"uint8"},{"name":"oracle","type":"address","internalType":"address"},{"name":"clientBetData","type":"bytes","internalType":"bytes"},{"name":"bettorSignature","type":"bytes","internalType":"bytes"},{"name":"oracleSignature","type":"bytes","internalType":"bytes"}]},{"name":"","type":"address","internalType":"address"},{"name":"data","type":"bytes","internalType":"bytes"}],"outputs":[{"name":"tokenIds","type":"uint256[]","internalType":"uint256[]"}],"stateMutability":"nonpayable"},{"type":"function","name":"bets","inputs":[{"name":"tokenId","type":"uint256","internalType":"uint256"}],"outputs":[{"name":"core","type":"address","internalType":"address"},{"name":"stake","type":"uint128","internalType":"uint128"},{"name":"conditionId","type":"uint256","internalType":"uint256"},{"name":"outcomeId","type":"uint128","internalType":"uint128"},{"name":"payout","type":"uint128","internalType":"uint128"},{"name":"claimed","type":"bool","internalType":"bool"},{"name":"resolved","type":"bool","internalType":"bool"},{"name":"won","type":"bool","internalType":"bool"}],"stateMutability":"view"},{"type":"function","name":"core","inputs":[],"outputs":[{"name":"","type":"address","internalType":"contract MockAzuroCore"}],"stateMutability":"view"},{"type":"function","name":"nextTokenId","inputs":[],"outputs":[{"name":"","type":"uint256","internalType":"uint256"}],"stateMutability":"view"},{"type":"function","name":"resolveLoss","inputs":[{"name":"tokenId","type":"uint256","internalType":"uint256"}],"outputs":[],"stateMutability":"nonpayable"},{"type":"function","name":"resolveWin","inputs":[{"name":"tokenId","type":"uint256","internalType":"uint256"},{"name":"payout","type":"uint128","internalType":"uint128"}],"outputs":[],"stateMutability":"nonpayable"},{"type":"function","name":"token","inputs":[],"outputs":[{"name":"","type":"address","internalType":"address"}],"stateMutability":"view"},{"type":"function","name":"viewPayout","inputs":[{"name":"","type":"address","internalType":"address"},{"name":"tokenId","type":"uint256","internalType":"uint256"}],"outputs":[{"name":"","type":"uint128","internalType":"uint128"}],"stateMutability":"view"},{"type":"function","name":"withdrawPayout","inputs":[{"name":"","type":"address","internalType":"address"},{"name":"tokenId","type":"uint256","internalType":"uint256"}],"outputs":[{"name":"","type":"uint128","internalType":"uint128"}],"stateMutability":"nonpayable"},{"type":"error","name":"SafeERC20FailedOperation","inputs":[{"name":"token","type":"address","internalType":"address"}]}],"bytecode":{"object":"0x60c0604052600160005534801561001557600080fd5b50604051610d26380380610d2683398101604081905261003491610063565b6001600160a01b039182166080521660a05261009d565b6001600160a01b038116811461006057600080fd5b50565b6000806040838503121561007657600080fd5b82516100818161004b565b60208401519092506100928161004b565b809150509250929050565b60805160a051610c486100de6000396000818161020a015281816102cb0152610813015260008181610246015281816103f201526104b70152610c486000f3fe608060405234801561001057600080fd5b50600436106100935760003560e01c8063512a745011610066578063512a7450146101bb57806375794a3c146101db5780639a3becc1146101f2578063f2f4eb2614610205578063fc0c546a1461024457600080fd5b80630632fd6d14610098578063161d0770146100ad57806322af00fa146100dd57806325aa820b146101a8575b600080fd5b6100ab6100a63660046109a3565b61026a565b005b6100c06100bb3660046109e6565b61034f565b6040516001600160801b0390911681526020015b60405180910390f35b6101526100eb366004610a10565b6001602081905260009182526040909120805491810154600282015460038301546004909301546001600160a01b03909416936001600160801b0392831693919282811692600160801b9004169060ff808216916101008104821691620100009091041688565b604080516001600160a01b0390991689526001600160801b0397881660208a015288019590955292851660608701529316608085015291151560a084015290151560c0830152151560e0820152610100016100d4565b6100c06101b63660046109e6565b610448565b6101ce6101c9366004610a29565b610498565b6040516100d49190610ae8565b6101e460005481565b6040519081526020016100d4565b6100ab610200366004610a10565b6107af565b61022c7f000000000000000000000000000000000000000000000000000000000000000081565b6040516001600160a01b0390911681526020016100d4565b7f000000000000000000000000000000000000000000000000000000000000000061022c565b600082815260016020819052604091829020600480820180546201010062ffff00199091161790556003820180546001600160801b03808816600160801b0291161790556002820154935163b591f87f60e01b815291936001600160a01b037f0000000000000000000000000000000000000000000000000000000000000000169363b591f87f936103189388910192835290151560208301526001600160801b0316604082015260600190565b600060405180830381600087803b15801561033257600080fd5b505af1158015610346573d6000803e3d6000fd5b50505050505050565b6000818152600160205260408120600481015460ff1615801561037b57506004810154610100900460ff165b80156103915750600481015462010000900460ff165b6103d05760405162461bcd60e51b815260206004820152600b60248201526a6e6f742070617961626c6560a81b60448201526064015b60405180910390fd5b60048101805460ff19166001179055600381015461042b906001600160a01b037f0000000000000000000000000000000000000000000000000000000000000000169033906001600160801b03600160801b90910416610873565b60030154600160801b90046001600160801b031690505b92915050565b6000818152600160205260408120600481015460ff168061047357506004810154610100900460ff16155b806104895750600481015462010000900460ff16155b1561042b576000915050610442565b606060006104a883850185610b2c565b90506104e86001600160a01b037f00000000000000000000000000000000000000000000000000000000000000001633306001600160801b0385166108d7565b6000805481806104f783610b4e565b909155509050600061050c6020890189610b75565b600081811061051d5761051d610bc6565b905060200281019061052f9190610bdc565b60200135905060008880602001906105479190610b75565b600081811061055857610558610bc6565b905060200281019061056a9190610bdc565b610578906080810190610b75565b600081811061058957610589610bc6565b905060200201602081019061059e9190610b2c565b90506040518061010001604052808b6001600160a01b03168152602001856001600160801b03168152602001838152602001826001600160801b0316815260200160006001600160801b03168152602001600015158152602001600015158152602001600015158152506001600085815260200190815260200160002060008201518160000160006101000a8154816001600160a01b0302191690836001600160a01b0316021790555060208201518160010160006101000a8154816001600160801b0302191690836001600160801b031602179055506040820151816002015560608201518160030160006101000a8154816001600160801b0302191690836001600160801b0316021790555060808201518160030160106101000a8154816001600160801b0302191690836001600160801b0316021790555060a08201518160040160006101000a81548160ff02191690831515021790555060c08201518160040160016101000a81548160ff02191690831515021790555060e08201518160040160026101000a81548160ff021916908315150217905550905050600167ffffffffffffffff81111561075657610756610bfc565b60405190808252806020026020018201604052801561077f578160200160208202803683370190505b509450828560008151811061079657610796610bc6565b6020026020010181815250505050505095945050505050565b6000818152600160205260408082206004808201805462ffff0019166101001790556003820180546001600160801b031690556002820154925163b591f87f60e01b8152908101929092526024820183905260448201929092526001600160a01b037f0000000000000000000000000000000000000000000000000000000000000000169063b591f87f90606401600060405180830381600087803b15801561085757600080fd5b505af115801561086b573d6000803e3d6000fd5b505050505050565b6040516001600160a01b038381166024830152604482018390526108d291859182169063a9059cbb906064015b604051602081830303815290604052915060e01b6020820180516001600160e01b038381831617835250505050610916565b505050565b6040516001600160a01b0384811660248301528381166044830152606482018390526109109186918216906323b872dd906084016108a0565b50505050565b600080602060008451602086016000885af180610939576040513d6000823e3d81fd5b50506000513d9150811561095157806001141561095e565b6001600160a01b0384163b155b1561091057604051635274afe760e01b81526001600160a01b03851660048201526024016103c7565b80356001600160801b038116811461099e57600080fd5b919050565b600080604083850312156109b657600080fd5b823591506109c660208401610987565b90509250929050565b80356001600160a01b038116811461099e57600080fd5b600080604083850312156109f957600080fd5b610a02836109cf565b946020939093013593505050565b600060208284031215610a2257600080fd5b5035919050565b600080600080600060808688031215610a4157600080fd5b610a4a866109cf565b9450602086013567ffffffffffffffff80821115610a6757600080fd5b9087019060e0828a031215610a7b57600080fd5b819550610a8a604089016109cf565b94506060880135915080821115610aa057600080fd5b818801915088601f830112610ab457600080fd5b813581811115610ac357600080fd5b896020828501011115610ad557600080fd5b9699959850939650602001949392505050565b6020808252825182820181905260009190848201906040850190845b81811015610b2057835183529284019291840191600101610b04565b50909695505050505050565b600060208284031215610b3e57600080fd5b610b4782610987565b9392505050565b600060018201610b6e57634e487b7160e01b600052601160045260246000fd5b5060010190565b6000808335601e19843603018112610b8c57600080fd5b83018035915067ffffffffffffffff821115610ba757600080fd5b6020019150600581901b3603821315610bbf57600080fd5b9250929050565b634e487b7160e01b600052603260045260246000fd5b6000823560de19833603018112610bf257600080fd5b9190910192915050565b634e487b7160e01b600052604160045260246000fdfea2646970667358221220f9eb0023cd00439154cbc5c127c7aed3980d1789d06df67fcdc129eb9091ea8764736f6c63430008180033","linkReferences":{}},"methodIdentifiers":{"betOrder(address,(address,(uint256,uint256,uint8,uint64[],uint128[],uint128,uint8)[],uint8,address,bytes,bytes,bytes),address,bytes)":"512a7450","bets(uint256)":"22af00fa","core()":"f2f4eb26","nextTokenId()":"75794a3c","resolveLoss(uint256)":"9a3becc1","resolveWin(uint256,uint128)":"0632fd6d","token()":"fc0c546a","viewPayout(address,uint256)":"25aa820b","withdrawPayout(address,uint256)":"161d0770"},"id":41}