{"abi":[{"type":"constructor","inputs":[{"name":"betToken_","type":"address","internalType":"address"},{"name":"azuroLP_","type":"address","internalType":"address"},{"name":"defaultCore_","type":"address","internalType":"address"},{"name":"initialWhitelist_","type":"address","internalType":"address"}],"stateMutability":"nonpayable"},{"type":"function","name":"azuroLP","inputs":[],"outputs":[{"name":"","type":"address","internalType":"contract IAzuroLP"}],"stateMutability":"view"},{"type":"function","name":"betIdByToken","inputs":[{"name":"tokenId","type":"uint256","internalType":"uint256"}],"outputs":[{"name":"betId","type":"uint256","internalType":"uint256"}],"stateMutability":"view"},{"type":"function","name":"betToken","inputs":[],"outputs":[{"name":"","type":"address","internalType":"contract IERC20"}],"stateMutability":"view"},{"type":"function","name":"bets","inputs":[{"name":"betId","type":"uint256","internalType":"uint256"}],"outputs":[{"name":"vaultId","type":"uint256","internalType":"uint256"},{"name":"core","type":"address","internalType":"address"},{"name":"tokenId","type":"uint256","internalType":"uint256"},{"name":"stake","type":"uint128","internalType":"uint128"},{"name":"conditionId","type":"uint256","internalType":"uint256"},{"name":"outcomeId","type":"uint128","internalType":"uint128"},{"name":"lifecycle","type":"uint8","internalType":"enum ThetaSingleton.BetLifecycle"}],"stateMutability":"view"},{"type":"function","name":"createVault","inputs":[{"name":"name","type":"string","internalType":"string"},{"name":"symbol","type":"string","internalType":"string"}],"outputs":[{"name":"vault","type":"address","internalType":"address"}],"stateMutability":"nonpayable"},{"type":"function","name":"defaultCore","inputs":[],"outputs":[{"name":"","type":"address","internalType":"contract IAzuroCore"}],"stateMutability":"view"},{"type":"function","name":"deployer","inputs":[],"outputs":[{"name":"","type":"address","internalType":"address"}],"stateMutability":"view"},{"type":"function","name":"depositFor","inputs":[{"name":"vaultId","type":"uint256","internalType":"uint256"},{"name":"fan","type":"address","internalType":"address"},{"name":"amount","type":"uint256","internalType":"uint256"}],"outputs":[{"name":"shares","type":"uint256","internalType":"uint256"}],"stateMutability":"nonpayable"},{"type":"function","name":"getVaultBet","inputs":[{"name":"betId","type":"uint256","internalType":"uint256"}],"outputs":[{"name":"","type":"tuple","internalType":"struct ThetaSingleton.VaultBet","components":[{"name":"vaultId","type":"uint256","internalType":"uint256"},{"name":"core","type":"address","internalType":"address"},{"name":"tokenId","type":"uint256","internalType":"uint256"},{"name":"stake","type":"uint128","internalType":"uint128"},{"name":"conditionId","type":"uint256","internalType":"uint256"},{"name":"outcomeId","type":"uint128","internalType":"uint128"},{"name":"lifecycle","type":"uint8","internalType":"enum ThetaSingleton.BetLifecycle"}]}],"stateMutability":"view"},{"type":"function","name":"getVaultBetIds","inputs":[{"name":"vaultId","type":"uint256","internalType":"uint256"}],"outputs":[{"name":"","type":"uint256[]","internalType":"uint256[]"}],"stateMutability":"view"},{"type":"function","name":"isWhitelisted","inputs":[{"name":"account","type":"address","internalType":"address"}],"outputs":[{"name":"","type":"bool","internalType":"bool"}],"stateMutability":"view"},{"type":"function","name":"lookupTipsterByName","inputs":[{"name":"name","type":"string","internalType":"string"}],"outputs":[{"name":"tipster","type":"address","internalType":"address"}],"stateMutability":"view"},{"type":"function","name":"placeBet","inputs":[{"name":"vaultId","type":"uint256","internalType":"uint256"},{"name":"core","type":"address","internalType":"address"},{"name":"amount","type":"uint128","internalType":"uint128"},{"name":"order","type":"tuple","internalType":"struct IAzuroLP.OrderData","components":[{"name":"betOwner","type":"address","internalType":"address"},{"name":"conditionDatas","type":"tuple[]","internalType":"struct IAzuroLP.ConditionData[]","components":[{"name":"gameId","type":"uint256","internalType":"uint256"},{"name":"conditionId","type":"uint256","internalType":"uint256"},{"name":"conditionKind","type":"uint8","internalType":"uint8"},{"name":"odds","type":"uint64[]","internalType":"uint64[]"},{"name":"outcomes","type":"uint128[]","internalType":"uint128[]"},{"name":"potentialLossLimit","type":"uint128","internalType":"uint128"},{"name":"winningOutcomesCount","type":"uint8","internalType":"uint8"}]},{"name":"betType","type":"uint8","internalType":"uint8"},{"name":"oracle","type":"address","internalType":"address"},{"name":"clientBetData","type":"bytes","internalType":"bytes"},{"name":"bettorSignature","type":"bytes","internalType":"bytes"},{"name":"oracleSignature","type":"bytes","internalType":"bytes"}]},{"name":"data","type":"bytes","internalType":"bytes"}],"outputs":[{"name":"tokenIds","type":"uint256[]","internalType":"uint256[]"}],"stateMutability":"nonpayable"},{"type":"function","name":"registerTipsterName","inputs":[{"name":"name","type":"string","internalType":"string"},{"name":"pubKeyX","type":"bytes32","internalType":"bytes32"},{"name":"pubKeyY","type":"bytes32","internalType":"bytes32"}],"outputs":[],"stateMutability":"nonpayable"},{"type":"function","name":"removeWhitelistAddress","inputs":[{"name":"account","type":"address","internalType":"address"}],"outputs":[],"stateMutability":"nonpayable"},{"type":"function","name":"settleBet","inputs":[{"name":"vaultId","type":"uint256","internalType":"uint256"},{"name":"betId","type":"uint256","internalType":"uint256"}],"outputs":[{"name":"payout","type":"uint128","internalType":"uint128"}],"stateMutability":"nonpayable"},{"type":"function","name":"syncVault","inputs":[{"name":"vaultId","type":"uint256","internalType":"uint256"}],"outputs":[],"stateMutability":"nonpayable"},{"type":"function","name":"tipsterNameOwner","inputs":[{"name":"nameHash","type":"bytes32","internalType":"bytes32"}],"outputs":[{"name":"owner","type":"address","internalType":"address"}],"stateMutability":"view"},{"type":"function","name":"tipsterNames","inputs":[{"name":"tipster","type":"address","internalType":"address"}],"outputs":[{"name":"name","type":"string","internalType":"string"}],"stateMutability":"view"},{"type":"function","name":"tipsterOf","inputs":[{"name":"vaultId","type":"uint256","internalType":"uint256"}],"outputs":[{"name":"tipster","type":"address","internalType":"address"}],"stateMutability":"view"},{"type":"function","name":"tipsterPubKeyX","inputs":[{"name":"tipster","type":"address","internalType":"address"}],"outputs":[{"name":"pubKeyX","type":"bytes32","internalType":"bytes32"}],"stateMutability":"view"},{"type":"function","name":"tipsterPubKeyY","inputs":[{"name":"tipster","type":"address","internalType":"address"}],"outputs":[{"name":"pubKeyY","type":"bytes32","internalType":"bytes32"}],"stateMutability":"view"},{"type":"function","name":"vaultCount","inputs":[],"outputs":[{"name":"","type":"uint256","internalType":"uint256"}],"stateMutability":"view"},{"type":"function","name":"vaultFreeBalance","inputs":[{"name":"vaultId","type":"uint256","internalType":"uint256"}],"outputs":[{"name":"balance","type":"uint256","internalType":"uint256"}],"stateMutability":"view"},{"type":"function","name":"vaultIdOfTipster","inputs":[{"name":"tipster","type":"address","internalType":"address"}],"outputs":[{"name":"vaultId","type":"uint256","internalType":"uint256"}],"stateMutability":"view"},{"type":"function","name":"vaultOf","inputs":[{"name":"vaultId","type":"uint256","internalType":"uint256"}],"outputs":[{"name":"vault","type":"address","internalType":"address"}],"stateMutability":"view"},{"type":"function","name":"vaultTotalAssets","inputs":[{"name":"vaultId","type":"uint256","internalType":"uint256"}],"outputs":[{"name":"total","type":"uint256","internalType":"uint256"}],"stateMutability":"view"},{"type":"function","name":"whitelistAddress","inputs":[{"name":"account","type":"address","internalType":"address"}],"outputs":[],"stateMutability":"nonpayable"},{"type":"function","name":"whitelisted","inputs":[{"name":"account","type":"address","internalType":"address"}],"outputs":[{"name":"allowed","type":"bool","internalType":"bool"}],"stateMutability":"view"},{"type":"function","name":"withdrawAssets","inputs":[{"name":"vaultId","type":"uint256","internalType":"uint256"},{"name":"fan","type":"address","internalType":"address"},{"name":"sharesBurned","type":"uint256","internalType":"uint256"},{"name":"amount","type":"uint256","internalType":"uint256"}],"outputs":[],"stateMutability":"nonpayable"},{"type":"event","name":"TipsterNameRegistered","inputs":[{"name":"tipster","type":"address","indexed":true,"internalType":"address"},{"name":"name","type":"string","indexed":false,"internalType":"string"},{"name":"pubKeyX","type":"bytes32","indexed":false,"internalType":"bytes32"},{"name":"pubKeyY","type":"bytes32","indexed":false,"internalType":"bytes32"}],"anonymous":false},{"type":"event","name":"VaultBetClosed","inputs":[{"name":"vaultId","type":"uint256","indexed":true,"internalType":"uint256"},{"name":"betId","type":"uint256","indexed":true,"internalType":"uint256"},{"name":"azuroTokenId","type":"uint256","indexed":true,"internalType":"uint256"},{"name":"lifecycle","type":"uint8","indexed":false,"internalType":"uint8"},{"name":"stake","type":"uint128","indexed":false,"internalType":"uint128"},{"name":"payout","type":"uint128","indexed":false,"internalType":"uint128"},{"name":"freeBalance","type":"uint256","indexed":false,"internalType":"uint256"},{"name":"totalAssets","type":"uint256","indexed":false,"internalType":"uint256"}],"anonymous":false},{"type":"event","name":"VaultBetOpened","inputs":[{"name":"vaultId","type":"uint256","indexed":true,"internalType":"uint256"},{"name":"vault","type":"address","indexed":true,"internalType":"address"},{"name":"tipster","type":"address","indexed":true,"internalType":"address"},{"name":"betId","type":"uint256","indexed":false,"internalType":"uint256"},{"name":"azuroTokenId","type":"uint256","indexed":false,"internalType":"uint256"},{"name":"core","type":"address","indexed":false,"internalType":"address"},{"name":"conditionId","type":"uint256","indexed":false,"internalType":"uint256"},{"name":"outcomeId","type":"uint128","indexed":false,"internalType":"uint128"},{"name":"stake","type":"uint128","indexed":false,"internalType":"uint128"},{"name":"freeBalance","type":"uint256","indexed":false,"internalType":"uint256"},{"name":"totalAssets","type":"uint256","indexed":false,"internalType":"uint256"}],"anonymous":false},{"type":"event","name":"VaultCreated","inputs":[{"name":"vaultId","type":"uint256","indexed":true,"internalType":"uint256"},{"name":"vault","type":"address","indexed":true,"internalType":"address"},{"name":"tipster","type":"address","indexed":true,"internalType":"address"},{"name":"name","type":"string","indexed":false,"internalType":"string"},{"name":"symbol","type":"string","indexed":false,"internalType":"string"}],"anonymous":false},{"type":"event","name":"VaultDeposit","inputs":[{"name":"vaultId","type":"uint256","indexed":true,"internalType":"uint256"},{"name":"vault","type":"address","indexed":true,"internalType":"address"},{"name":"investor","type":"address","indexed":true,"internalType":"address"},{"name":"assets","type":"uint256","indexed":false,"internalType":"uint256"},{"name":"sharesMinted","type":"uint256","indexed":false,"internalType":"uint256"},{"name":"freeBalance","type":"uint256","indexed":false,"internalType":"uint256"},{"name":"totalAssets","type":"uint256","indexed":false,"internalType":"uint256"},{"name":"shareSupply","type":"uint256","indexed":false,"internalType":"uint256"}],"anonymous":false},{"type":"event","name":"VaultMetrics","inputs":[{"name":"vaultId","type":"uint256","indexed":true,"internalType":"uint256"},{"name":"vault","type":"address","indexed":true,"internalType":"address"},{"name":"freeBalance","type":"uint256","indexed":false,"internalType":"uint256"},{"name":"totalAssets","type":"uint256","indexed":false,"internalType":"uint256"},{"name":"shareSupply","type":"uint256","indexed":false,"internalType":"uint256"},{"name":"openBets","type":"uint256","indexed":false,"internalType":"uint256"},{"name":"pendingClaimable","type":"uint256","indexed":false,"internalType":"uint256"},{"name":"settledWins","type":"uint256","indexed":false,"internalType":"uint256"},{"name":"settledLosses","type":"uint256","indexed":false,"internalType":"uint256"}],"anonymous":false},{"type":"event","name":"VaultWithdraw","inputs":[{"name":"vaultId","type":"uint256","indexed":true,"internalType":"uint256"},{"name":"vault","type":"address","indexed":true,"internalType":"address"},{"name":"investor","type":"address","indexed":true,"internalType":"address"},{"name":"sharesBurned","type":"uint256","indexed":false,"internalType":"uint256"},{"name":"assetsOut","type":"uint256","indexed":false,"internalType":"uint256"},{"name":"freeBalance","type":"uint256","indexed":false,"internalType":"uint256"},{"name":"totalAssets","type":"uint256","indexed":false,"internalType":"uint256"},{"name":"shareSupply","type":"uint256","indexed":false,"internalType":"uint256"}],"anonymous":false},{"type":"event","name":"WhitelistUpdated","inputs":[{"name":"account","type":"address","indexed":true,"internalType":"address"},{"name":"allowed","type":"bool","indexed":false,"internalType":"bool"}],"anonymous":false},{"type":"error","name":"BetNotFound","inputs":[]},{"type":"error","name":"InsufficientFreeBalance","inputs":[]},{"type":"error","name":"InsufficientLiquidity","inputs":[]},{"type":"error","name":"InvalidBetToken","inputs":[]},{"type":"error","name":"InvalidPublicKey","inputs":[]},{"type":"error","name":"InvalidTipsterName","inputs":[]},{"type":"error","name":"NotWhitelisted","inputs":[]},{"type":"error","name":"OneVaultPerTipster","inputs":[]},{"type":"error","name":"OnlyDeployer","inputs":[]},{"type":"error","name":"OnlyTipster","inputs":[]},{"type":"error","name":"OnlyVault","inputs":[]},{"type":"error","name":"ReentrancyGuardReentrantCall","inputs":[]},{"type":"error","name":"SafeERC20FailedOperation","inputs":[{"name":"token","type":"address","internalType":"address"}]},{"type":"error","name":"TipsterNameTaken","inputs":[]},{"type":"error","name":"UnknownVault","inputs":[]},{"type":"error","name":"ZeroAddress","inputs":[]},{"type":"error","name":"ZeroAmount","inputs":[]}],"bytecode":{"object":"0x6101006040523480156200001257600080fd5b506040516200563138038062005631833981016040819052620000359162000202565b60016000556001600160a01b03841615806200005857506001600160a01b038316155b806200006b57506001600160a01b038216155b156200008a576040516316f4e80560e11b815260040160405180910390fd5b836001600160a01b0316836001600160a01b031663fc0c546a6040518163ffffffff1660e01b8152600401602060405180830381865afa158015620000d3573d6000803e3d6000fd5b505050506040513d601f19601f82011682018060405250810190620000f991906200025f565b6001600160a01b03161462000121576040516316f4e80560e11b815260040160405180910390fd5b6001600160a01b0380851660805283811660a05282811660c0523360e0528116156200015457620001548160016200015e565b5050505062000284565b6001600160a01b038216620001865760405163d92e233d60e01b815260040160405180910390fd5b6001600160a01b0382166000818152600d6020908152604091829020805460ff191685151590811790915591519182527ff93f9a76c1bf3444d22400a00cb9fe990e6abe9dbb333fda48859cfee864543d910160405180910390a25050565b80516001600160a01b0381168114620001fd57600080fd5b919050565b600080600080608085870312156200021957600080fd5b6200022485620001e5565b93506200023460208601620001e5565b92506200024460408601620001e5565b91506200025460608601620001e5565b905092959194509250565b6000602082840312156200027257600080fd5b6200027d82620001e5565b9392505050565b60805160a05160c05160e0516153266200030b6000396000818161055d015281816107da01526111ff015260006104ad0152600081816103ed01528181610a9b01528181610ae1015281816115e9015281816116aa0152818161189f0152818161212201526126c801526000818161039f01528181610a79015261112401526153266000f3fe60806040523480156200001157600080fd5b5060043610620002015760003560e01c8063aa8ba7d81162000119578063d5f3948811620000af578063e45f4803116200007a578063e45f480314620005f4578063e6807d8b1462000617578063f9c508ae146200063a578063fca1f899146200065157600080fd5b8063d5f394881462000557578063d8914cac146200057f578063d936547e14620005a2578063daa0bfba14620005c857600080fd5b8063b7ecbaae11620000f0578063b7ecbaae14620004e6578063bb70426714620004fd578063cd4a6b7f1462000529578063d5a73b2c146200054057600080fd5b8063aa8ba7d81462000490578063af26a7cb14620004a7578063b1ad9de914620004cf57600080fd5b806378691f16116200019b57806391b8ebc9116200016657806391b8ebc9146200043557806399ab0003146200044c578063a390d7e1146200046f578063a7c6a100146200048657600080fd5b806378691f1614620003995780637dc01dfe14620003c1578063846aaec114620003e757806385b0650c146200040f57600080fd5b806333933fc011620001dc57806333933fc014620002ea5780633af32abf14620003105780634156658514620003505780635980d6e9146200036957600080fd5b80630d2cbe13146200020657806322af00fa146200023a5780632c59157914620002b8575b600080fd5b6200021d62000217366004620029f7565b6200067d565b6040516001600160801b0390911681526020015b60405180910390f35b620002a36200024b36600462002a1a565b60066020526000908152604090208054600182015460028301546003840154600485015460059095015493946001600160a01b039093169391926001600160801b03918216929091811690600160801b900460ff1687565b60405162000231979695949392919062002a6d565b620002db620002c936600462002aeb565b600c6020526000908152604090205481565b60405190815260200162000231565b62000301620002fb36600462002a1a565b620006e3565b60405162000231919062002b12565b6200033f6200032136600462002aeb565b6001600160a01b03166000908152600d602052604090205460ff1690565b604051901515815260200162000231565b620003676200036136600462002aeb565b620007cf565b005b620003806200037a36600462002bcd565b62000829565b6040516001600160a01b03909116815260200162000231565b620003807f000000000000000000000000000000000000000000000000000000000000000081565b620003d8620003d236600462002aeb565b6200085c565b60405162000231919062002c38565b620003807f000000000000000000000000000000000000000000000000000000000000000081565b620004266200042036600462002a1a565b620008fe565b60405162000231919062002c6d565b620004266200044636600462002cd6565b62000962565b620002db6200045d36600462002a1a565b60056020526000908152604090205481565b620003806200048036600462002d80565b62000cae565b620002db60015481565b62000367620004a136600462002df2565b62000e1a565b620003807f000000000000000000000000000000000000000000000000000000000000000081565b62000367620004e036600462002e46565b6200104f565b62000367620004f736600462002aeb565b620011f4565b620003806200050e36600462002a1a565b6003602052600090815260409020546001600160a01b031681565b620002db6200053a36600462002a1a565b6200124b565b620003676200055136600462002a1a565b620012b9565b620003807f000000000000000000000000000000000000000000000000000000000000000081565b620002db6200059036600462002a1a565b60076020526000908152604090205481565b6200033f620005b336600462002aeb565b600d6020526000908152604090205460ff1681565b62000380620005d936600462002a1a565b6002602052600090815260409020546001600160a01b031681565b620002db6200060536600462002aeb565b60046020526000908152604090205481565b620002db6200062836600462002aeb565b600b6020526000908152604090205481565b620002db6200064b36600462002e86565b62001316565b620003806200066236600462002a1a565b600a602052600090815260409020546001600160a01b031681565b6000620006896200151c565b600082815260066020526040902080548414620006b95760405163469bfa9160e01b815260040160405180910390fd5b620006c48362001547565b9150620006d18462001776565b50620006dd6001600055565b92915050565b620007216040805160e081018252600080825260208201819052918101829052606081018290526080810182905260a081018290529060c082015290565b600082815260066020908152604091829020825160e0810184528154815260018201546001600160a01b03169281019290925260028101549282019290925260038201546001600160801b0390811660608301526004808401546080840152600584015491821660a084015291929160c0840191600160801b900460ff1690811115620007b257620007b262002a34565b6004811115620007c657620007c662002a34565b90525092915050565b336001600160a01b037f00000000000000000000000000000000000000000000000000000000000000001614620008195760405163618bbdd560e01b815260040160405180910390fd5b6200082681600162001a2d565b50565b6000600a60006200083b858562001ab4565b81526020810191909152604001600020546001600160a01b03169392505050565b60096020526000908152604090208054620008779062002ec1565b80601f0160208091040260200160405190810160405280929190818152602001828054620008a59062002ec1565b8015620008f65780601f10620008ca57610100808354040283529160200191620008f6565b820191906000526020600020905b815481529060010190602001808311620008d857829003601f168201915b505050505081565b6000818152600860209081526040918290208054835181840281018401909452808452606093928301828280156200095657602002820191906000526020600020905b81548152602001906001019080831162000941575b50505050509050919050565b336000908152600d602052604090205460609060ff166200099657604051630b094f2760e31b815260040160405180910390fd5b620009a06200151c565b6000878152600360205260409020546001600160a01b03163314620009d857604051630790b96d60e31b815260040160405180910390fd5b846001600160801b031660000362000a0357604051631f2a200560e01b815260040160405180910390fd5b6000878152600560205260409020546001600160801b038616111562000a3c5760405163a3bf9d5b60e01b815260040160405180910390fd5b600087815260056020526040812080546001600160801b038816929062000a6590849062002f13565b9091555062000aca90506001600160a01b037f0000000000000000000000000000000000000000000000000000000000000000167f00000000000000000000000000000000000000000000000000000000000000006001600160801b03881662001ca2565b604051630512a74560e41b81526001600160a01b037f0000000000000000000000000000000000000000000000000000000000000000169063512a74509062000b209089908890309089908990600401620031b2565b6000604051808303816000875af115801562000b40573d6000803e3d6000fd5b505050506040513d6000823e601f3d908101601f1916820160405262000b6a91908101906200335b565b9050805160000362000b8f5760405163469bfa9160e01b815260040160405180910390fd5b600062000ba06020860186620033fa565b600081811062000bb45762000bb462003446565b905060200281019062000bc891906200345c565b602001359050600085806020019062000be29190620033fa565b600081811062000bf65762000bf662003446565b905060200281019062000c0a91906200345c565b62000c1a906080810190620033fa565b600081811062000c2e5762000c2e62003446565b905060200201602081019062000c4591906200347d565b905060005b835181101562000c8b5762000c818a3386848151811062000c6f5762000c6f62003446565b60200260200101518c87878e62001d6d565b5060010162000c4a565b5062000c978962001776565b505062000ca46001600055565b9695505050505050565b336000908152600d602052604081205460ff1662000cdf57604051630b094f2760e31b815260040160405180910390fd5b336000908152600460205260409020541562000d0e5760405163b2b42d1f60e01b815260040160405180910390fd5b600060016000815462000d21906200349d565b919050819055905060003082338989898960405162000d4090620029e9565b62000d529796959493929190620034b9565b604051809103906000f08015801562000d6f573d6000803e3d6000fd5b50600083815260026020908152604080832080546001600160a01b03199081166001600160a01b03871690811790925560038452828520805433921682179055808552600490935292819020869055519295508593509184907f4b2f244f10b1cdffa2a53652db0dad7a67055239d71657b036085a4fe32b9fb29062000dfd908c908c908c908c9062003512565b60405180910390a462000e108262001776565b5050949350505050565b336000908152600d602052604090205460ff1662000e4b57604051630b094f2760e31b815260040160405180910390fd5b81158062000e57575080155b1562000e765760405163145a1fdd60e31b815260040160405180910390fd5b600062000e84858562001ab4565b6000818152600a60205260409020549091506001600160a01b0316801580159062000eb857506001600160a01b0381163314155b1562000ed75760405163050310ff60e51b815260040160405180910390fd5b336000908152600960205260408120805462000ef39062002ec1565b80601f016020809104026020016040519081016040528092919081815260200182805462000f219062002ec1565b801562000f725780601f1062000f465761010080835404028352916020019162000f72565b820191906000526020600020905b81548152906001019060200180831162000f5457829003601f168201915b5050505050905060008151111562000fac5780516020808301919091206000908152600a9091526040902080546001600160a01b03191690555b6000838152600a6020908152604080832080546001600160a01b0319163390811790915583526009909152902062000fe687898362003589565b50336000818152600b60209081526040808320899055600c90915290819020869055517fc6a3cdfd234cb54e4df8075b342a1f85773584bcb2bb40a25e584b9be85acebd906200103e908a908a908a908a9062003655565b60405180910390a250505050505050565b60008481526002602052604090205484906001600160a01b031633146200108957604051638d1af8bd60e01b815260040160405180910390fd5b620010936200151c565b81600003620010b557604051631f2a200560e01b815260040160405180910390fd5b620010c085620012b9565b600085815260056020526040902054821115620010f05760405163bb55fd2760e01b815260040160405180910390fd5b600085815260056020526040812080548492906200111090849062002f13565b909155506200114c90506001600160a01b037f000000000000000000000000000000000000000000000000000000000000000016858462001f71565b60008060006200115c8862001fa9565b60008b8152600260209081526040918290205482518c81529182018b9052918101859052606081018490526080810183905293965091945092506001600160a01b03898116929116908a907f46121cc68b805344110bbcee0ba6de01669097664097a81a0fc0442ce5449c2e9060a00160405180910390a4620011df8862001776565b505050620011ed6001600055565b5050505050565b336001600160a01b037f000000000000000000000000000000000000000000000000000000000000000016146200123e5760405163618bbdd560e01b815260040160405180910390fd5b6200082681600062001a2d565b6000818152600560209081526040808320546008909252822090915b8154811015620012b2576200129b8282815481106200128a576200128a62003446565b906000526020600020015462002049565b620012a790846200367e565b925060010162001267565b5050919050565b6000818152600860205260408120905b81548110156200130657620012fd828281548110620012ec57620012ec62003446565b906000526020600020015462002442565b600101620012c9565b50620013128262001776565b5050565b60008381526002602052604081205484906001600160a01b031633146200135057604051638d1af8bd60e01b815260040160405180910390fd5b826000036200137257604051631f2a200560e01b815260040160405180910390fd5b60006200137f866200124b565b60008781526002602090815260408083205481516318160ddd60e01b8152915194955092936001600160a01b03909316926318160ddd926004808401939192918290030181865afa158015620013d9573d6000803e3d6000fd5b505050506040513d601f19601f82011682018060405250810190620013ff919062003694565b9050846005600089815260200190815260200160002060008282546200142691906200367e565b909155505060008190036200143e578493506200145a565b816200144b8287620036ae565b620014579190620036c8565b93505b836000036200147c57604051631f2a200560e01b815260040160405180910390fd5b60008060006200148c8a62001fa9565b60008d8152600260209081526040918290205482518e81529182018d9052918101859052606081018490526080810183905293965091945092506001600160a01b038b8116929116908c907f5c2e5fdeaa331e00fd587131b31e20fe773f6cf24ac045da30c53cbc08ceda229060a00160405180910390a46200150f8a62001776565b5050505050509392505050565b6002600054036200154057604051633ee5aeb560e01b815260040160405180910390fd5b6002600055565b600081815260066020526040812060046005820154600160801b900460ff1660048111156200157a576200157a62002a34565b1480620015a9575060026005820154600160801b900460ff166004811115620015a757620015a762002a34565b145b15620015b85750600092915050565b600181015460028201546040516325aa820b60e01b81526001600160a01b03928316600482015260248101919091527f0000000000000000000000000000000000000000000000000000000000000000909116906325aa820b90604401602060405180830381865afa15801562001633573d6000803e3d6000fd5b505050506040513d601f19601f82011682018060405250810190620016599190620036f8565b9150816001600160801b0316600003620016765750600092915050565b60018101546002820154604051630161d07760e41b81526001600160a01b03928316600482015260248101919091526000917f0000000000000000000000000000000000000000000000000000000000000000169063161d0770906044016020604051808303816000875af1158015620016f4573d6000803e3d6000fd5b505050506040513d601f19601f820116820180604052508101906200171a9190620036f8565b60058301805491925060049160ff60801b1916600160801b8302179055508154600090815260056020526040812080546001600160801b0384169290620017639084906200367e565b90915550620012b2905084838362002873565b6000806000620017868462001fa9565b6000878152600860205260408120939650919450925090819081908190815b8154811015620019a657600060066000848481548110620017ca57620017ca62003446565b90600052602060002001548152602001908152602001600020905060006004811115620017fb57620017fb62002a34565b6005820154600160801b900460ff1660048111156200181e576200181e62002a34565b0362001834578662001830816200349d565b9750505b60016005820154600160801b900460ff16600481111562001859576200185962002a34565b036200192657866200186b816200349d565b600183015460028401546040516325aa820b60e01b81526001600160a01b03928316600482015260248101919091529199507f00000000000000000000000000000000000000000000000000000000000000001691506325aa820b90604401602060405180830381865afa158015620018e8573d6000803e3d6000fd5b505050506040513d601f19601f820116820180604052508101906200190e9190620036f8565b62001923906001600160801b0316876200367e565b95505b60046005820154600160801b900460ff1660048111156200194b576200194b62002a34565b036200196157846200195d816200349d565b9550505b60026005820154600160801b900460ff16600481111562001986576200198662002a34565b036200199c578362001998816200349d565b9450505b50600101620017a5565b506000898152600260209081526040918290205482518b81529182018a9052918101889052606081018790526080810186905260a0810185905260c081018490526001600160a01b03909116908a907fd9e931c584f47d3c71a1e031f244b95e335fbc08e1c242a99fb8a8195937f3499060e00160405180910390a3505050505050505050565b6001600160a01b03821662001a555760405163d92e233d60e01b815260040160405180910390fd5b6001600160a01b0382166000818152600d6020908152604091829020805460ff191685151590811790915591519182527ff93f9a76c1bf3444d22400a00cb9fe990e6abe9dbb333fda48859cfee864543d910160405180910390a25050565b60008083838080601f016020809104026020016040519081016040528093929190818152602001838380828437600092019190915250508251929350506003821090508062001b035750601481115b1562001b225760405163eca8752d60e01b815260040160405180910390fd5b60005b8181101562001c0757600083828151811062001b455762001b4562003446565b01602001516001600160f81b03191690506000606160f81b821080159062001b7b5750603d60f91b6001600160f81b0319831611155b90506000600360fc1b6001600160f81b031984161080159062001bac5750603960f81b6001600160f81b0319841611155b9050605f60f81b6001600160f81b03198416148215801562001bcc575081155b801562001bd7575080155b1562001bf65760405163eca8752d60e01b815260040160405180910390fd5b50506001909201915062001b259050565b508160008151811062001c1e5762001c1e62003446565b6020910101516001600160f81b031916605f60f81b148062001c7357508162001c4960018362002f13565b8151811062001c5c5762001c5c62003446565b6020910101516001600160f81b031916605f60f81b145b1562001c925760405163eca8752d60e01b815260040160405180910390fd5b5080516020909101209392505050565b604080516001600160a01b038416602482015260448082018490528251808303909101815260649091019091526020810180516001600160e01b031663095ea7b360e01b17905262001cf5848262002923565b62001d67576040516001600160a01b0384811660248301526000604483015262001d5b91869182169063095ea7b3906064015b604051602081830303815290604052915060e01b6020820180516001600160e01b03838183161783525050505062002970565b62001d67848262002970565b50505050565b6000600e6000815462001d80906200349d565b91829055506040805160e0810182528a81526001600160a01b0388811660208084019182528385018c81526001600160801b0389811660608701908152608087018d81528c831660a08901908152600060c08a018181528c8252600690975299909920885181559551600187018054919098166001600160a01b0319909116179096559151600285015590516003840180549183166fffffffffffffffffffffffffffffffff1992831617905593516004808501919091559551600584018054919092169481168517825591519697509395919491939270ffffffffffffffffffffffffffffffffff199091161790600160801b90849081111562001e895762001e8962002a34565b0217905550505060008681526007602090815260408083208490558a83526008825282208054600181018255908352908220018290558062001ecb8a62001fa9565b5060008c8152600260209081526040918290205482518881529182018d90526001600160a01b038c811693830193909352606082018b90526001600160801b03808b166080840152891660a083015260c0820185905260e082018490529395509193508b81169216908c907f4b63d1f1bf8d7b2194b9e7f1912e63d7fffcd7ca7fdbc737012d2de15bc1155c906101000160405180910390a45050979650505050505050565b6040516001600160a01b0383811660248301526044820183905262001fa491859182169063a9059cbb9060640162001d28565b505050565b600081815260056020526040812054908062001fc5846200124b565b6000858152600260209081526040918290205482516318160ddd60e01b815292519395506001600160a01b0316926318160ddd9260048082019392918290030181865afa1580156200201b573d6000803e3d6000fd5b505050506040513d601f19601f8201168201806040525081019062002041919062003694565b929491935050565b600081815260066020526040812060026005820154600160801b900460ff1660048111156200207c576200207c62002a34565b036200208b5750600092915050565b60046005820154600160801b900460ff166004811115620020b057620020b062002a34565b1480620020df575060036005820154600160801b900460ff166004811115620020dd57620020dd62002a34565b145b15620020ee5750600092915050565b600181015460028201546040516325aa820b60e01b81526001600160a01b03928316600482015260248101919091526000917f000000000000000000000000000000000000000000000000000000000000000016906325aa820b90604401602060405180830381865afa1580156200216a573d6000803e3d6000fd5b505050506040513d601f19601f82011682018060405250810190620021909190620036f8565b90506001600160801b03811615620021b2576001600160801b03169392505050565b600182015460048084015460405163d8da4bab60e01b8152918201526001600160a01b0390911690819063d8da4bab90602401602060405180830381865afa15801562002203573d6000803e3d6000fd5b505050506040513d601f19601f8201168201806040525081019062002229919062003718565b1562002244575050600301546001600160801b031692915050565b600480840154604051630f7e425f60e31b81529182015260009081906001600160a01b03841690637bf212f890602401600060405180830381865afa15801562002292573d6000803e3d6000fd5b505050506040513d6000823e601f3d908101601f19168201604052620022bc919081019062003806565b5096505050945050505060026004811115620022dc57620022dc62002a34565b816004811115620022f157620022f162002a34565b14806200230757506000826001600160401b0316115b156200242b576004858101546005870154604051635d311bdd60e01b8152928301919091526001600160801b031660248201526001600160a01b03841690635d311bdd90604401602060405180830381865afa1580156200236c573d6000803e3d6000fd5b505050506040513d601f19601f8201168201806040525081019062002392919062003718565b156200241e576002850154604051632589867d60e01b815260048101919091526001600160a01b03841690632589867d90602401602060405180830381865afa158015620023e4573d6000803e3d6000fd5b505050506040513d601f19601f820116820180604052508101906200240a9190620036f8565b6001600160801b0316979650505050505050565b5060009695505050505050565b50505050600301546001600160801b031692915050565b600081815260066020526040902060046005820154600160801b900460ff16600481111562002475576200247562002a34565b1480620024a4575060026005820154600160801b900460ff166004811115620024a257620024a262002a34565b145b80620024d2575060036005820154600160801b900460ff166004811115620024d057620024d062002a34565b145b15620024dc575050565b600181015460048083015460405163d8da4bab60e01b8152918201526001600160a01b0390911690819063d8da4bab90602401602060405180830381865afa1580156200252d573d6000803e3d6000fd5b505050506040513d601f19601f8201168201806040525081019062002553919062003718565b15620025c4576005828101805460ff60801b1916600360801b1790556003830154835460009081526020929092526040822080546001600160801b03909216929091620025a29084906200367e565b9091555050600382015462001fa490849084906001600160801b031662002873565b600480830154604051630f7e425f60e31b81529182015260009081906001600160a01b03841690637bf212f890602401600060405180830381865afa15801562002612573d6000803e3d6000fd5b505050506040513d6000823e601f3d908101601f191682016040526200263c919081019062003806565b50965050509450505050600260048111156200265c576200265c62002a34565b81600481111562002671576200267162002a34565b141580156200268757506001600160401b038216155b1562002694575050505050565b600184015460028501546040516325aa820b60e01b81526001600160a01b03928316600482015260248101919091526000917f000000000000000000000000000000000000000000000000000000000000000016906325aa820b90604401602060405180830381865afa15801562002710573d6000803e3d6000fd5b505050506040513d601f19601f82011682018060405250810190620027369190620036f8565b90506001600160801b038116156200279d5760046005860154600160801b900460ff1660048111156200276d576200276d62002a34565b14620027955760058501805460ff60801b1916600160801b179055620027938662001547565b505b505050505050565b6004858101546005870154604051635d311bdd60e01b8152928301919091526001600160801b031660248201526000906001600160a01b03861690635d311bdd90604401602060405180830381865afa158015620027ff573d6000803e3d6000fd5b505050506040513d601f19601f8201168201806040525081019062002825919062003718565b90508015620028555760058601805460ff60801b1916600160801b1790556200284e8762001547565b5062002793565b60058601805460ff60801b1916600160811b17905562002793878760005b60008062002885846000015462001fa9565b509150915083600201548585600001547f6ab6ffb356413f90d6be033537ad8c2990c905f327fa857083996f196173017c8760050160109054906101000a900460ff166004811115620028dc57620028dc62002a34565b60038901546040805160ff90931683526001600160801b03918216602084015290891690820152606081018790526080810186905260a00160405180910390a45050505050565b6000806000806020600086516020880160008a5af192503d9150600051905082801562000ca4575081156200295c578060011462000ca4565b50505050506001600160a01b03163b151590565b600080602060008451602086016000885af18062002994576040513d6000823e3d81fd5b50506000513d91508115620029ae578060011415620029bb565b6001600160a01b0384163b155b1562001d6757604051635274afe760e01b81526001600160a01b038516600482015260240160405180910390fd5b6119b4806200393d83390190565b6000806040838503121562002a0b57600080fd5b50508035926020909101359150565b60006020828403121562002a2d57600080fd5b5035919050565b634e487b7160e01b600052602160045260246000fd5b6005811062002a6957634e487b7160e01b600052602160045260246000fd5b9052565b8781526001600160a01b0387166020820152604081018690526001600160801b03858116606083015260808201859052831660a082015260e0810162002ab760c083018462002a4a565b98975050505050505050565b6001600160a01b03811681146200082657600080fd5b803562002ae68162002ac3565b919050565b60006020828403121562002afe57600080fd5b813562002b0b8162002ac3565b9392505050565b600060e0820190508251825260018060a01b0360208401511660208301526040830151604083015260608301516001600160801b038082166060850152608085015160808501528060a08601511660a0850152505060c083015162002b7b60c084018262002a4a565b5092915050565b60008083601f84011262002b9557600080fd5b5081356001600160401b0381111562002bad57600080fd5b60208301915083602082850101111562002bc657600080fd5b9250929050565b6000806020838503121562002be157600080fd5b82356001600160401b0381111562002bf857600080fd5b62002c068582860162002b82565b90969095509350505050565b60005b8381101562002c2f57818101518382015260200162002c15565b50506000910152565b602081526000825180602084015262002c5981604085016020870162002c12565b601f01601f19169190910160400192915050565b6020808252825182820181905260009190848201906040850190845b8181101562002ca75783518352928401929184019160010162002c89565b50909695505050505050565b6001600160801b03811681146200082657600080fd5b803562002ae68162002cb3565b60008060008060008060a0878903121562002cf057600080fd5b86359550602087013562002d048162002ac3565b9450604087013562002d168162002cb3565b935060608701356001600160401b038082111562002d3357600080fd5b9088019060e0828b03121562002d4857600080fd5b9093506080880135908082111562002d5f57600080fd5b5062002d6e89828a0162002b82565b979a9699509497509295939492505050565b6000806000806040858703121562002d9757600080fd5b84356001600160401b038082111562002daf57600080fd5b62002dbd8883890162002b82565b9096509450602087013591508082111562002dd757600080fd5b5062002de68782880162002b82565b95989497509550505050565b6000806000806060858703121562002e0957600080fd5b84356001600160401b0381111562002e2057600080fd5b62002e2e8782880162002b82565b90989097506020870135966040013595509350505050565b6000806000806080858703121562002e5d57600080fd5b84359350602085013562002e718162002ac3565b93969395505050506040820135916060013590565b60008060006060848603121562002e9c57600080fd5b83359250602084013562002eb08162002ac3565b929592945050506040919091013590565b600181811c9082168062002ed657607f821691505b60208210810362002ef757634e487b7160e01b600052602260045260246000fd5b50919050565b634e487b7160e01b600052601160045260246000fd5b81810381811115620006dd57620006dd62002efd565b6000808335601e1984360301811262002f4157600080fd5b83016020810192503590506001600160401b0381111562002f6157600080fd5b8060051b360382131562002bc657600080fd5b60ff811681146200082657600080fd5b803562002ae68162002f74565b6001600160401b03811681146200082657600080fd5b8183526000602080850194508260005b8581101562002fe957813562002fcd8162002cb3565b6001600160801b03168752958201959082019060010162002fb7565b509495945050505050565b60008383855260208086019550808560051b8301018460005b878110156200313457848303601f1901895281353688900360de190181126200303557600080fd5b870180358452848101358585015260e0848101604080840135620030598162002f74565b60ff16908701526060620030708482018562002f29565b91880193909352908190526101008601919060009082905b80831015620030c15783359150620030a08262002f91565b6001600160401b038216855293890193928901926001929092019162003088565b505050506080620030d58184018462002f29565b87840383890152620030e984828462002fa7565b935050505060a0620030fd81840162002cc9565b6001600160801b03169086015260c06200311983820162002f84565b60ff169501949094525097830197908301906001016200300d565b5090979650505050505050565b6000808335601e198436030181126200315957600080fd5b83016020810192503590506001600160401b038111156200317957600080fd5b80360382131562002bc657600080fd5b81835281816020850137506000828201602090810191909152601f909101601f19169091010190565b6001600160a01b038681168252608060208301526000908635620031d68162002ac3565b166080830152620031eb602087018762002f29565b60e060a0850152620032036101608501828462002ff4565b915050620032146040880162002f84565b60ff1660c08401526200322a6060880162002ad9565b6001600160a01b031660e084015262003247608088018862003141565b607f1980868503016101008701526200326284838562003189565b93506200327360a08b018b62003141565b9350915080868503016101208701526200328f84848462003189565b9350620032a060c08b018b62003141565b93509150808685030161014087015250620032bd83838362003189565b92505050620032d760408401876001600160a01b03169052565b828103606084015262002ab781858762003189565b634e487b7160e01b600052604160045260246000fd5b604051601f8201601f191681016001600160401b03811182821017156200332d576200332d620032ec565b604052919050565b60006001600160401b03821115620033515762003351620032ec565b5060051b60200190565b600060208083850312156200336f57600080fd5b82516001600160401b038111156200338657600080fd5b8301601f810185136200339857600080fd5b8051620033af620033a98262003335565b62003302565b81815260059190911b82018301908381019087831115620033cf57600080fd5b928401925b82841015620033ef57835182529284019290840190620033d4565b979650505050505050565b6000808335601e198436030181126200341257600080fd5b8301803591506001600160401b038211156200342d57600080fd5b6020019150600581901b360382131562002bc657600080fd5b634e487b7160e01b600052603260045260246000fd5b6000823560de198336030181126200347357600080fd5b9190910192915050565b6000602082840312156200349057600080fd5b813562002b0b8162002cb3565b600060018201620034b257620034b262002efd565b5060010190565b6001600160a01b038881168252602082018890528616604082015260a060608201819052600090620034ef908301868862003189565b82810360808401526200350481858762003189565b9a9950505050505050505050565b6040815260006200352860408301868862003189565b8281036020840152620033ef81858762003189565b601f82111562001fa4576000816000526020600020601f850160051c81016020861015620035685750805b601f850160051c820191505b81811015620027955782815560010162003574565b6001600160401b03831115620035a357620035a3620032ec565b620035bb83620035b4835462002ec1565b836200353d565b6000601f841160018114620035f25760008515620035d95750838201355b600019600387901b1c1916600186901b178355620011ed565b600083815260209020601f19861690835b8281101562003625578685013582556020948501946001909201910162003603565b5086821015620036435760001960f88860031b161c19848701351681555b505060018560011b0183555050505050565b6060815260006200366b60608301868862003189565b6020830194909452506040015292915050565b80820180821115620006dd57620006dd62002efd565b600060208284031215620036a757600080fd5b5051919050565b8082028115828204841417620006dd57620006dd62002efd565b600082620036e657634e487b7160e01b600052601260045260246000fd5b500490565b805162002ae68162002cb3565b6000602082840312156200370b57600080fd5b815162002b0b8162002cb3565b6000602082840312156200372b57600080fd5b8151801515811462002b0b57600080fd5b600082601f8301126200374e57600080fd5b8151602062003761620033a98362003335565b8083825260208201915060208460051b8701019350868411156200378457600080fd5b602086015b84811015620037ad5780516200379f8162002cb3565b835291830191830162003789565b509695505050505050565b805162002ae68162002f91565b805165ffffffffffff8116811462002ae657600080fd5b805162002ae68162002f74565b80516005811062002ae657600080fd5b805162002ae68162002ac3565b600080600080600080600080610100898b0312156200382457600080fd5b88516001600160401b03808211156200383c57600080fd5b818b0191508b601f8301126200385157600080fd5b815181811115620038665762003866620032ec565b6200387b601f8201601f191660200162003302565b8181528d60208386010111156200389157600080fd5b620038a482602083016020870162002c12565b60208d0151909b5092505080821115620038bd57600080fd5b50620038cc8b828c016200373c565b975050620038dd60408a01620036eb565b9550620038ed60608a01620037b8565b9450620038fd60808a01620037c5565b93506200390d60a08a01620037dc565b92506200391d60c08a01620037e9565b91506200392d60e08a01620037f9565b9050929598509295989093965056fe6101006040523480156200001257600080fd5b50604051620019b4380380620019b48339810160408190526200003591620001d2565b8181600362000045838262000302565b50600462000054828262000302565b50506001600555506001600160a01b03808616608081905260a086905290841660c05260408051633c348f8b60e11b815290516378691f16916004808201926020929091908290030181865afa158015620000b3573d6000803e3d6000fd5b505050506040513d601f19601f82011682018060405250810190620000d99190620003ce565b6001600160a01b031660e05250620003f59350505050565b6001600160a01b03811681146200010757600080fd5b50565b634e487b7160e01b600052604160045260246000fd5b600082601f8301126200013257600080fd5b81516001600160401b03808211156200014f576200014f6200010a565b604051601f8301601f19908116603f011681019082821181831017156200017a576200017a6200010a565b81604052838152602092508660208588010111156200019857600080fd5b600091505b83821015620001bc57858201830151818301840152908201906200019d565b6000602085830101528094505050505092915050565b600080600080600060a08688031215620001eb57600080fd5b8551620001f881620000f1565b6020870151604088015191965094506200021281620000f1565b60608701519093506001600160401b03808211156200023057600080fd5b6200023e89838a0162000120565b935060808801519150808211156200025557600080fd5b50620002648882890162000120565b9150509295509295909350565b600181811c908216806200028657607f821691505b602082108103620002a757634e487b7160e01b600052602260045260246000fd5b50919050565b601f821115620002fd576000816000526020600020601f850160051c81016020861015620002d85750805b601f850160051c820191505b81811015620002f957828155600101620002e4565b5050505b505050565b81516001600160401b038111156200031e576200031e6200010a565b62000336816200032f845462000271565b84620002ad565b602080601f8311600181146200036e5760008415620003555750858301515b600019600386901b1c1916600185901b178555620002f9565b600085815260208120601f198616915b828110156200039f578886015182559484019460019091019084016200037e565b5085821015620003be5787850151600019600388901b60f8161c191681555b5050505050600190811b01905550565b600060208284031215620003e157600080fd5b8151620003ee81620000f1565b9392505050565b60805160a05160c05160e0516115156200049f600039600081816102950152610cc7015260006103b1015260008181610271015281816104410152818161099601528181610a3e01528181610d1e0152610e7e0152600081816103770152818161046a015281816105fc015281816106cc015281816107ec015281816108bc015281816109bc01528181610a7101528181610cea01528181610d5e0152610ec201526115156000f3fe608060405234801561001057600080fd5b50600436106101c45760003560e01c806394bf804d116100f9578063c63d75b611610097578063ce96cb7711610071578063ce96cb77146103d3578063d905777e146103e6578063dd62ed3e146103f9578063ef8b30f71461022f57600080fd5b8063c63d75b6146102cd578063c6e6f5921461022f578063ce0b4ed0146103ac57600080fd5b8063b3d7f6b9116100d3578063b3d7f6b91461034c578063b460af941461035f578063b62654fb14610372578063ba0876521461039957600080fd5b806394bf804d1461031e57806395d89b4114610331578063a9059cbb1461033957600080fd5b8063313ce56711610166578063402d267d11610140578063402d267d146102cd5780634cdad506146101f95780636e553f65146102e257806370a08231146102f557600080fd5b8063313ce5671461025d57806333194c0a1461026c57806338d52e0f1461029357600080fd5b8063095ea7b3116101a2578063095ea7b31461020c5780630a28a4771461022f57806318160ddd1461024257806323b872dd1461024a57600080fd5b806301e1d114146101c957806306fdde03146101e457806307a2d13a146101f9575b600080fd5b6101d1610432565b6040519081526020015b60405180910390f35b6101ec6104e2565b6040516101db919061125e565b6101d16102073660046112ad565b610574565b61021f61021a3660046112e2565b610590565b60405190151581526020016101db565b6101d161023d3660046112ad565b6105a8565b6002546101d1565b61021f61025836600461130c565b6105be565b604051601281526020016101db565b6101d17f000000000000000000000000000000000000000000000000000000000000000081565b7f00000000000000000000000000000000000000000000000000000000000000005b6040516001600160a01b0390911681526020016101db565b6101d16102db366004611348565b5060001990565b6101d16102f0366004611363565b6105e4565b6101d1610303366004611348565b6001600160a01b031660009081526020819052604090205490565b6101d161032c366004611363565b6106b4565b6101ec61077a565b61021f6103473660046112e2565b610789565b6101d161035a3660046112ad565b610797565b6101d161036d36600461138f565b6107d4565b6102b57f000000000000000000000000000000000000000000000000000000000000000081565b6101d16103a736600461138f565b6108a4565b6102b57f000000000000000000000000000000000000000000000000000000000000000081565b6101d16103e1366004611348565b61096a565b6101d16103f4366004611348565b610a2f565b6101d16104073660046113cb565b6001600160a01b03918216600090815260016020908152604080832093909416825291909152205490565b60405163cd4a6b7f60e01b81527f000000000000000000000000000000000000000000000000000000000000000060048201526000907f00000000000000000000000000000000000000000000000000000000000000006001600160a01b03169063cd4a6b7f90602401602060405180830381865afa1580156104b9573d6000803e3d6000fd5b505050506040513d601f19601f820116820180604052508101906104dd91906113f5565b905090565b6060600380546104f19061140e565b80601f016020809104026020016040519081016040528092919081815260200182805461051d9061140e565b801561056a5780601f1061053f5761010080835404028352916020019161056a565b820191906000526020600020905b81548152906001019060200180831161054d57829003601f168201915b5050505050905090565b600061058a82610582610432565b600254610b53565b92915050565b60003361059e818585610b70565b5060019392505050565b600061058a826105b6610432565b600254610b82565b6000336105cc858285610bae565b6105d7858585610c31565b60019150505b9392505050565b604051633af32abf60e01b81523360048201526000907f00000000000000000000000000000000000000000000000000000000000000006001600160a01b031690633af32abf90602401602060405180830381865afa15801561064b573d6000803e3d6000fd5b505050506040513d601f19601f8201168201806040525081019061066f9190611448565b61068c57604051630b094f2760e31b815260040160405180910390fd5b610694610c90565b61069d836105a8565b90506106aa838383610cba565b61058a6001600555565b604051633af32abf60e01b81523360048201526000907f00000000000000000000000000000000000000000000000000000000000000006001600160a01b031690633af32abf90602401602060405180830381865afa15801561071b573d6000803e3d6000fd5b505050506040513d601f19601f8201168201806040525081019061073f9190611448565b61075c57604051630b094f2760e31b815260040160405180910390fd5b610764610c90565b61076d83610797565b90506106aa818385610cba565b6060600480546104f19061140e565b60003361059e818585610c31565b6000806107a360025490565b905060006107af610432565b9050816000036107c157509192915050565b6107cc848284610e19565b949350505050565b604051633af32abf60e01b81523360048201526000907f00000000000000000000000000000000000000000000000000000000000000006001600160a01b031690633af32abf90602401602060405180830381865afa15801561083b573d6000803e3d6000fd5b505050506040513d601f19601f8201168201806040525081019061085f9190611448565b61087c57604051630b094f2760e31b815260040160405180910390fd5b610884610c90565b61088d846105a8565b905061089a818484610e3d565b6105dd6001600555565b604051633af32abf60e01b81523360048201526000907f00000000000000000000000000000000000000000000000000000000000000006001600160a01b031690633af32abf90602401602060405180830381865afa15801561090b573d6000803e3d6000fd5b505050506040513d601f19601f8201168201806040525081019061092f9190611448565b61094c57604051630b094f2760e31b815260040160405180910390fd5b610954610c90565b61095d84610574565b905061089a848484610e3d565b6001600160a01b03811660009081526020819052604081205461058a906040516399ab000360e01b81527f000000000000000000000000000000000000000000000000000000000000000060048201527f00000000000000000000000000000000000000000000000000000000000000006001600160a01b0316906399ab000390602401602060405180830381865afa158015610a0b573d6000803e3d6000fd5b505050506040513d601f19601f8201168201806040525081019061058291906113f5565b6040516399ab000360e01b81527f0000000000000000000000000000000000000000000000000000000000000000600482015260009081906001600160a01b037f000000000000000000000000000000000000000000000000000000000000000016906399ab000390602401602060405180830381865afa158015610ab8573d6000803e3d6000fd5b505050506040513d601f19601f82011682018060405250810190610adc91906113f5565b90506000610b0a610b02856001600160a01b031660009081526020819052604090205490565b610582610432565b905080600003610b1e575060009392505050565b8082610b3f866001600160a01b031660009081526020819052604090205490565b610b499190611480565b6107cc9190611497565b600081600003610b65575060006105dd565b81610b498486611480565b610b7d8383836001610f24565b505050565b600081600003610b935750826105dd565b82600003610ba3575060006105dd565b82610b498386611480565b6001600160a01b038381166000908152600160209081526040808320938616835292905220546000198114610c2b5781811015610c1c57604051637dc7a0d960e11b81526001600160a01b038416600482015260248101829052604481018390526064015b60405180910390fd5b610c2b84848484036000610f24565b50505050565b6001600160a01b038316610c5b57604051634b637e8f60e11b815260006004820152602401610c13565b6001600160a01b038216610c855760405163ec442f0560e01b815260006004820152602401610c13565b610b7d838383610ff9565b600260055403610cb357604051633ee5aeb560e01b815260040160405180910390fd5b6002600555565b610d0f6001600160a01b037f000000000000000000000000000000000000000000000000000000000000000016337f000000000000000000000000000000000000000000000000000000000000000086611123565b604051637ce2845760e11b81527f000000000000000000000000000000000000000000000000000000000000000060048201526001600160a01b038381166024830152604482018590526000917f00000000000000000000000000000000000000000000000000000000000000009091169063f9c508ae906064016020604051808303816000875af1158015610da9573d6000803e3d6000fd5b505050506040513d601f19601f82011682018060405250810190610dcd91906113f5565b9050818114610e0f5760405162461bcd60e51b815260206004820152600e60248201526d0e6d0c2e4ca40dad2e6dac2e8c6d60931b6044820152606401610c13565b610c2b838361117d565b600081600181610e298688611480565b610e3391906114b9565b610b4991906114cc565b6000610e4884610574565b9050336001600160a01b03831614610e6557610e65823386610bae565b610e6f82856111b7565b60405163b1ad9de960e01b81527f000000000000000000000000000000000000000000000000000000000000000060048201526001600160a01b03848116602483015260448201869052606482018390527f0000000000000000000000000000000000000000000000000000000000000000169063b1ad9de990608401600060405180830381600087803b158015610f0657600080fd5b505af1158015610f1a573d6000803e3d6000fd5b5050505050505050565b6001600160a01b038416610f4e5760405163e602df0560e01b815260006004820152602401610c13565b6001600160a01b038316610f7857604051634a1406b160e11b815260006004820152602401610c13565b6001600160a01b0380851660009081526001602090815260408083209387168352929052208290558015610c2b57826001600160a01b0316846001600160a01b03167f8c5be1e5ebec7d5bd14f71427d1e84f3dd0314c0f7b2291e5b200ac8c7c3b92584604051610feb91815260200190565b60405180910390a350505050565b6001600160a01b03831661102457806002600082825461101991906114b9565b909155506110969050565b6001600160a01b038316600090815260208190526040902054818110156110775760405163391434e360e21b81526001600160a01b03851660048201526024810182905260448101839052606401610c13565b6001600160a01b03841660009081526020819052604090209082900390555b6001600160a01b0382166110b2576002805482900390556110d1565b6001600160a01b03821660009081526020819052604090208054820190555b816001600160a01b0316836001600160a01b03167fddf252ad1be2c89b69c2b068fc378daa952ba7f163c4a11628f55a4df523b3ef8360405161111691815260200190565b60405180910390a3505050565b604080516001600160a01b0385811660248301528416604482015260648082018490528251808303909101815260849091019091526020810180516001600160e01b03166323b872dd60e01b179052610c2b9085906111ed565b6001600160a01b0382166111a75760405163ec442f0560e01b815260006004820152602401610c13565b6111b360008383610ff9565b5050565b6001600160a01b0382166111e157604051634b637e8f60e11b815260006004820152602401610c13565b6111b382600083610ff9565b600080602060008451602086016000885af180611210576040513d6000823e3d81fd5b50506000513d91508115611228578060011415611235565b6001600160a01b0384163b155b15610c2b57604051635274afe760e01b81526001600160a01b0385166004820152602401610c13565b60006020808352835180602085015260005b8181101561128c57858101830151858201604001528201611270565b506000604082860101526040601f19601f8301168501019250505092915050565b6000602082840312156112bf57600080fd5b5035919050565b80356001600160a01b03811681146112dd57600080fd5b919050565b600080604083850312156112f557600080fd5b6112fe836112c6565b946020939093013593505050565b60008060006060848603121561132157600080fd5b61132a846112c6565b9250611338602085016112c6565b9150604084013590509250925092565b60006020828403121561135a57600080fd5b6105dd826112c6565b6000806040838503121561137657600080fd5b82359150611386602084016112c6565b90509250929050565b6000806000606084860312156113a457600080fd5b833592506113b4602085016112c6565b91506113c2604085016112c6565b90509250925092565b600080604083850312156113de57600080fd5b6113e7836112c6565b9150611386602084016112c6565b60006020828403121561140757600080fd5b5051919050565b600181811c9082168061142257607f821691505b60208210810361144257634e487b7160e01b600052602260045260246000fd5b50919050565b60006020828403121561145a57600080fd5b815180151581146105dd57600080fd5b634e487b7160e01b600052601160045260246000fd5b808202811582820484141761058a5761058a61146a565b6000826114b457634e487b7160e01b600052601260045260246000fd5b500490565b8082018082111561058a5761058a61146a565b8181038181111561058a5761058a61146a56fea2646970667358221220dd18861a76797f7c029829044a88262a07c98e54dc22969e2a4d13f58651404f64736f6c63430008180033a2646970667358221220dc26601c7cd6f0f2716a5ccf00ce39ef239438fcb9111dc70de6a1ee1387efd864736f6c63430008180033","linkReferences":{}},"methodIdentifiers":{"azuroLP()":"846aaec1","betIdByToken(uint256)":"d8914cac","betToken()":"78691f16","bets(uint256)":"22af00fa","createVault(string,string)":"a390d7e1","defaultCore()":"af26a7cb","deployer()":"d5f39488","depositFor(uint256,address,uint256)":"f9c508ae","getVaultBet(uint256)":"33933fc0","getVaultBetIds(uint256)":"85b0650c","isWhitelisted(address)":"3af32abf","lookupTipsterByName(string)":"5980d6e9","placeBet(uint256,address,uint128,(address,(uint256,uint256,uint8,uint64[],uint128[],uint128,uint8)[],uint8,address,bytes,bytes,bytes),bytes)":"91b8ebc9","registerTipsterName(string,bytes32,bytes32)":"aa8ba7d8","removeWhitelistAddress(address)":"b7ecbaae","settleBet(uint256,uint256)":"0d2cbe13","syncVault(uint256)":"d5a73b2c","tipsterNameOwner(bytes32)":"fca1f899","tipsterNames(address)":"7dc01dfe","tipsterOf(uint256)":"bb704267","tipsterPubKeyX(address)":"e6807d8b","tipsterPubKeyY(address)":"2c591579","vaultCount()":"a7c6a100","vaultFreeBalance(uint256)":"99ab0003","vaultIdOfTipster(address)":"e45f4803","vaultOf(uint256)":"daa0bfba","vaultTotalAssets(uint256)":"cd4a6b7f","whitelistAddress(address)":"41566585","whitelisted(address)":"d936547e","withdrawAssets(uint256,address,uint256,uint256)":"b1ad9de9"},"id":33}