{"abi":[{"type":"constructor","inputs":[{"name":"betToken_","type":"address","internalType":"address"},{"name":"azuroLP_","type":"address","internalType":"address"},{"name":"defaultCore_","type":"address","internalType":"address"},{"name":"azuroRelayer_","type":"address","internalType":"address"},{"name":"initialWhitelist_","type":"address","internalType":"address"}],"stateMutability":"nonpayable"},{"type":"function","name":"azuroLP","inputs":[],"outputs":[{"name":"","type":"address","internalType":"contract IAzuroLP"}],"stateMutability":"view"},{"type":"function","name":"azuroRelayer","inputs":[],"outputs":[{"name":"","type":"address","internalType":"address"}],"stateMutability":"view"},{"type":"function","name":"betIdByToken","inputs":[{"name":"tokenId","type":"uint256","internalType":"uint256"}],"outputs":[{"name":"betId","type":"uint256","internalType":"uint256"}],"stateMutability":"view"},{"type":"function","name":"betToken","inputs":[],"outputs":[{"name":"","type":"address","internalType":"contract IERC20"}],"stateMutability":"view"},{"type":"function","name":"bets","inputs":[{"name":"betId","type":"uint256","internalType":"uint256"}],"outputs":[{"name":"vaultId","type":"uint256","internalType":"uint256"},{"name":"core","type":"address","internalType":"address"},{"name":"tokenId","type":"uint256","internalType":"uint256"},{"name":"stake","type":"uint128","internalType":"uint128"},{"name":"conditionId","type":"uint256","internalType":"uint256"},{"name":"outcomeId","type":"uint128","internalType":"uint128"},{"name":"lifecycle","type":"uint8","internalType":"enum ThetaSingleton.BetLifecycle"}],"stateMutability":"view"},{"type":"function","name":"cancelVaultBetPreparation","inputs":[{"name":"vaultId","type":"uint256","internalType":"uint256"}],"outputs":[],"stateMutability":"nonpayable"},{"type":"function","name":"completeVaultBet","inputs":[{"name":"vaultId","type":"uint256","internalType":"uint256"},{"name":"core","type":"address","internalType":"address"},{"name":"azuroTokenId","type":"uint256","internalType":"uint256"},{"name":"conditionId","type":"uint256","internalType":"uint256"},{"name":"outcomeId","type":"uint128","internalType":"uint128"},{"name":"stake","type":"uint128","internalType":"uint128"}],"outputs":[],"stateMutability":"nonpayable"},{"type":"function","name":"createVault","inputs":[{"name":"name","type":"string","internalType":"string"},{"name":"symbol","type":"string","internalType":"string"}],"outputs":[{"name":"vault","type":"address","internalType":"address"}],"stateMutability":"nonpayable"},{"type":"function","name":"defaultCore","inputs":[],"outputs":[{"name":"","type":"address","internalType":"contract IAzuroCore"}],"stateMutability":"view"},{"type":"function","name":"deployer","inputs":[],"outputs":[{"name":"","type":"address","internalType":"address"}],"stateMutability":"view"},{"type":"function","name":"depositFor","inputs":[{"name":"vaultId","type":"uint256","internalType":"uint256"},{"name":"fan","type":"address","internalType":"address"},{"name":"amount","type":"uint256","internalType":"uint256"}],"outputs":[{"name":"shares","type":"uint256","internalType":"uint256"}],"stateMutability":"nonpayable"},{"type":"function","name":"getVaultBet","inputs":[{"name":"betId","type":"uint256","internalType":"uint256"}],"outputs":[{"name":"","type":"tuple","internalType":"struct ThetaSingleton.VaultBet","components":[{"name":"vaultId","type":"uint256","internalType":"uint256"},{"name":"core","type":"address","internalType":"address"},{"name":"tokenId","type":"uint256","internalType":"uint256"},{"name":"stake","type":"uint128","internalType":"uint128"},{"name":"conditionId","type":"uint256","internalType":"uint256"},{"name":"outcomeId","type":"uint128","internalType":"uint128"},{"name":"lifecycle","type":"uint8","internalType":"enum ThetaSingleton.BetLifecycle"}]}],"stateMutability":"view"},{"type":"function","name":"getVaultBetIds","inputs":[{"name":"vaultId","type":"uint256","internalType":"uint256"}],"outputs":[{"name":"","type":"uint256[]","internalType":"uint256[]"}],"stateMutability":"view"},{"type":"function","name":"isValidSignature","inputs":[{"name":"hash","type":"bytes32","internalType":"bytes32"},{"name":"signature","type":"bytes","internalType":"bytes"}],"outputs":[{"name":"","type":"bytes4","internalType":"bytes4"}],"stateMutability":"view"},{"type":"function","name":"isWhitelisted","inputs":[{"name":"account","type":"address","internalType":"address"}],"outputs":[{"name":"","type":"bool","internalType":"bool"}],"stateMutability":"view"},{"type":"function","name":"lookupTipsterByName","inputs":[{"name":"name","type":"string","internalType":"string"}],"outputs":[{"name":"tipster","type":"address","internalType":"address"}],"stateMutability":"view"},{"type":"function","name":"pendingVaultBets","inputs":[{"name":"vaultId","type":"uint256","internalType":"uint256"}],"outputs":[{"name":"tipster","type":"address","internalType":"address"},{"name":"stake","type":"uint128","internalType":"uint128"},{"name":"relayerFee","type":"uint128","internalType":"uint128"},{"name":"orderHash","type":"bytes32","internalType":"bytes32"},{"name":"expiresAt","type":"uint64","internalType":"uint64"},{"name":"active","type":"bool","internalType":"bool"}],"stateMutability":"view"},{"type":"function","name":"placeBet","inputs":[{"name":"vaultId","type":"uint256","internalType":"uint256"},{"name":"core","type":"address","internalType":"address"},{"name":"amount","type":"uint128","internalType":"uint128"},{"name":"order","type":"tuple","internalType":"struct IAzuroLP.OrderData","components":[{"name":"betOwner","type":"address","internalType":"address"},{"name":"conditionDatas","type":"tuple[]","internalType":"struct IAzuroLP.ConditionData[]","components":[{"name":"gameId","type":"uint256","internalType":"uint256"},{"name":"conditionId","type":"uint256","internalType":"uint256"},{"name":"conditionKind","type":"uint8","internalType":"uint8"},{"name":"odds","type":"uint64[]","internalType":"uint64[]"},{"name":"outcomes","type":"uint128[]","internalType":"uint128[]"},{"name":"potentialLossLimit","type":"uint128","internalType":"uint128"},{"name":"winningOutcomesCount","type":"uint8","internalType":"uint8"}]},{"name":"betType","type":"uint8","internalType":"uint8"},{"name":"oracle","type":"address","internalType":"address"},{"name":"clientBetData","type":"bytes","internalType":"bytes"},{"name":"bettorSignature","type":"bytes","internalType":"bytes"},{"name":"oracleSignature","type":"bytes","internalType":"bytes"}]},{"name":"data","type":"bytes","internalType":"bytes"}],"outputs":[{"name":"tokenIds","type":"uint256[]","internalType":"uint256[]"}],"stateMutability":"nonpayable"},{"type":"function","name":"prepareVaultBet","inputs":[{"name":"vaultId","type":"uint256","internalType":"uint256"},{"name":"stake","type":"uint128","internalType":"uint128"},{"name":"relayerFee","type":"uint128","internalType":"uint128"},{"name":"orderHash","type":"bytes32","internalType":"bytes32"},{"name":"expiresAt","type":"uint64","internalType":"uint64"}],"outputs":[],"stateMutability":"nonpayable"},{"type":"function","name":"recoverOrphanVaultBet","inputs":[{"name":"vaultId","type":"uint256","internalType":"uint256"},{"name":"core","type":"address","internalType":"address"},{"name":"azuroTokenId","type":"uint256","internalType":"uint256"},{"name":"conditionId","type":"uint256","internalType":"uint256"},{"name":"outcomeId","type":"uint128","internalType":"uint128"},{"name":"stake","type":"uint128","internalType":"uint128"},{"name":"relayerFee","type":"uint128","internalType":"uint128"}],"outputs":[],"stateMutability":"nonpayable"},{"type":"function","name":"registerTipsterName","inputs":[{"name":"name","type":"string","internalType":"string"},{"name":"pubKeyX","type":"bytes32","internalType":"bytes32"},{"name":"pubKeyY","type":"bytes32","internalType":"bytes32"}],"outputs":[],"stateMutability":"nonpayable"},{"type":"function","name":"removeWhitelistAddress","inputs":[{"name":"account","type":"address","internalType":"address"}],"outputs":[],"stateMutability":"nonpayable"},{"type":"function","name":"settleBet","inputs":[{"name":"vaultId","type":"uint256","internalType":"uint256"},{"name":"betId","type":"uint256","internalType":"uint256"}],"outputs":[{"name":"payout","type":"uint128","internalType":"uint128"}],"stateMutability":"nonpayable"},{"type":"function","name":"syncVault","inputs":[{"name":"vaultId","type":"uint256","internalType":"uint256"}],"outputs":[],"stateMutability":"nonpayable"},{"type":"function","name":"tipsterNameOwner","inputs":[{"name":"nameHash","type":"bytes32","internalType":"bytes32"}],"outputs":[{"name":"owner","type":"address","internalType":"address"}],"stateMutability":"view"},{"type":"function","name":"tipsterNames","inputs":[{"name":"tipster","type":"address","internalType":"address"}],"outputs":[{"name":"name","type":"string","internalType":"string"}],"stateMutability":"view"},{"type":"function","name":"tipsterOf","inputs":[{"name":"vaultId","type":"uint256","internalType":"uint256"}],"outputs":[{"name":"tipster","type":"address","internalType":"address"}],"stateMutability":"view"},{"type":"function","name":"tipsterPubKeyX","inputs":[{"name":"tipster","type":"address","internalType":"address"}],"outputs":[{"name":"pubKeyX","type":"bytes32","internalType":"bytes32"}],"stateMutability":"view"},{"type":"function","name":"tipsterPubKeyY","inputs":[{"name":"tipster","type":"address","internalType":"address"}],"outputs":[{"name":"pubKeyY","type":"bytes32","internalType":"bytes32"}],"stateMutability":"view"},{"type":"function","name":"vaultCount","inputs":[],"outputs":[{"name":"","type":"uint256","internalType":"uint256"}],"stateMutability":"view"},{"type":"function","name":"vaultFreeBalance","inputs":[{"name":"vaultId","type":"uint256","internalType":"uint256"}],"outputs":[{"name":"balance","type":"uint256","internalType":"uint256"}],"stateMutability":"view"},{"type":"function","name":"vaultIdOfTipster","inputs":[{"name":"tipster","type":"address","internalType":"address"}],"outputs":[{"name":"vaultId","type":"uint256","internalType":"uint256"}],"stateMutability":"view"},{"type":"function","name":"vaultOf","inputs":[{"name":"vaultId","type":"uint256","internalType":"uint256"}],"outputs":[{"name":"vault","type":"address","internalType":"address"}],"stateMutability":"view"},{"type":"function","name":"vaultTotalAssets","inputs":[{"name":"vaultId","type":"uint256","internalType":"uint256"}],"outputs":[{"name":"total","type":"uint256","internalType":"uint256"}],"stateMutability":"view"},{"type":"function","name":"whitelistAddress","inputs":[{"name":"account","type":"address","internalType":"address"}],"outputs":[],"stateMutability":"nonpayable"},{"type":"function","name":"whitelisted","inputs":[{"name":"account","type":"address","internalType":"address"}],"outputs":[{"name":"allowed","type":"bool","internalType":"bool"}],"stateMutability":"view"},{"type":"function","name":"withdrawAssets","inputs":[{"name":"vaultId","type":"uint256","internalType":"uint256"},{"name":"fan","type":"address","internalType":"address"},{"name":"sharesBurned","type":"uint256","internalType":"uint256"},{"name":"amount","type":"uint256","internalType":"uint256"}],"outputs":[],"stateMutability":"nonpayable"},{"type":"event","name":"TipsterNameRegistered","inputs":[{"name":"tipster","type":"address","indexed":true,"internalType":"address"},{"name":"name","type":"string","indexed":false,"internalType":"string"},{"name":"pubKeyX","type":"bytes32","indexed":false,"internalType":"bytes32"},{"name":"pubKeyY","type":"bytes32","indexed":false,"internalType":"bytes32"}],"anonymous":false},{"type":"event","name":"VaultBetClosed","inputs":[{"name":"vaultId","type":"uint256","indexed":true,"internalType":"uint256"},{"name":"betId","type":"uint256","indexed":true,"internalType":"uint256"},{"name":"azuroTokenId","type":"uint256","indexed":true,"internalType":"uint256"},{"name":"lifecycle","type":"uint8","indexed":false,"internalType":"uint8"},{"name":"stake","type":"uint128","indexed":false,"internalType":"uint128"},{"name":"payout","type":"uint128","indexed":false,"internalType":"uint128"},{"name":"freeBalance","type":"uint256","indexed":false,"internalType":"uint256"},{"name":"totalAssets","type":"uint256","indexed":false,"internalType":"uint256"}],"anonymous":false},{"type":"event","name":"VaultBetOpened","inputs":[{"name":"vaultId","type":"uint256","indexed":true,"internalType":"uint256"},{"name":"vault","type":"address","indexed":true,"internalType":"address"},{"name":"tipster","type":"address","indexed":true,"internalType":"address"},{"name":"betId","type":"uint256","indexed":false,"internalType":"uint256"},{"name":"azuroTokenId","type":"uint256","indexed":false,"internalType":"uint256"},{"name":"core","type":"address","indexed":false,"internalType":"address"},{"name":"conditionId","type":"uint256","indexed":false,"internalType":"uint256"},{"name":"outcomeId","type":"uint128","indexed":false,"internalType":"uint128"},{"name":"stake","type":"uint128","indexed":false,"internalType":"uint128"},{"name":"freeBalance","type":"uint256","indexed":false,"internalType":"uint256"},{"name":"totalAssets","type":"uint256","indexed":false,"internalType":"uint256"}],"anonymous":false},{"type":"event","name":"VaultBetPreparationCanceled","inputs":[{"name":"vaultId","type":"uint256","indexed":true,"internalType":"uint256"},{"name":"tipster","type":"address","indexed":true,"internalType":"address"}],"anonymous":false},{"type":"event","name":"VaultBetPrepared","inputs":[{"name":"vaultId","type":"uint256","indexed":true,"internalType":"uint256"},{"name":"tipster","type":"address","indexed":true,"internalType":"address"},{"name":"stake","type":"uint128","indexed":false,"internalType":"uint128"},{"name":"relayerFee","type":"uint128","indexed":false,"internalType":"uint128"},{"name":"orderHash","type":"bytes32","indexed":false,"internalType":"bytes32"},{"name":"expiresAt","type":"uint64","indexed":false,"internalType":"uint64"}],"anonymous":false},{"type":"event","name":"VaultCreated","inputs":[{"name":"vaultId","type":"uint256","indexed":true,"internalType":"uint256"},{"name":"vault","type":"address","indexed":true,"internalType":"address"},{"name":"tipster","type":"address","indexed":true,"internalType":"address"},{"name":"name","type":"string","indexed":false,"internalType":"string"},{"name":"symbol","type":"string","indexed":false,"internalType":"string"}],"anonymous":false},{"type":"event","name":"VaultDeposit","inputs":[{"name":"vaultId","type":"uint256","indexed":true,"internalType":"uint256"},{"name":"vault","type":"address","indexed":true,"internalType":"address"},{"name":"investor","type":"address","indexed":true,"internalType":"address"},{"name":"assets","type":"uint256","indexed":false,"internalType":"uint256"},{"name":"sharesMinted","type":"uint256","indexed":false,"internalType":"uint256"},{"name":"freeBalance","type":"uint256","indexed":false,"internalType":"uint256"},{"name":"totalAssets","type":"uint256","indexed":false,"internalType":"uint256"},{"name":"shareSupply","type":"uint256","indexed":false,"internalType":"uint256"}],"anonymous":false},{"type":"event","name":"VaultMetrics","inputs":[{"name":"vaultId","type":"uint256","indexed":true,"internalType":"uint256"},{"name":"vault","type":"address","indexed":true,"internalType":"address"},{"name":"freeBalance","type":"uint256","indexed":false,"internalType":"uint256"},{"name":"totalAssets","type":"uint256","indexed":false,"internalType":"uint256"},{"name":"shareSupply","type":"uint256","indexed":false,"internalType":"uint256"},{"name":"openBets","type":"uint256","indexed":false,"internalType":"uint256"},{"name":"pendingClaimable","type":"uint256","indexed":false,"internalType":"uint256"},{"name":"settledWins","type":"uint256","indexed":false,"internalType":"uint256"},{"name":"settledLosses","type":"uint256","indexed":false,"internalType":"uint256"}],"anonymous":false},{"type":"event","name":"VaultWithdraw","inputs":[{"name":"vaultId","type":"uint256","indexed":true,"internalType":"uint256"},{"name":"vault","type":"address","indexed":true,"internalType":"address"},{"name":"investor","type":"address","indexed":true,"internalType":"address"},{"name":"sharesBurned","type":"uint256","indexed":false,"internalType":"uint256"},{"name":"assetsOut","type":"uint256","indexed":false,"internalType":"uint256"},{"name":"freeBalance","type":"uint256","indexed":false,"internalType":"uint256"},{"name":"totalAssets","type":"uint256","indexed":false,"internalType":"uint256"},{"name":"shareSupply","type":"uint256","indexed":false,"internalType":"uint256"}],"anonymous":false},{"type":"event","name":"WhitelistUpdated","inputs":[{"name":"account","type":"address","indexed":true,"internalType":"address"},{"name":"allowed","type":"bool","indexed":false,"internalType":"bool"}],"anonymous":false},{"type":"error","name":"BetAlreadyRecorded","inputs":[]},{"type":"error","name":"BetNotFound","inputs":[]},{"type":"error","name":"ECDSAInvalidSignature","inputs":[]},{"type":"error","name":"ECDSAInvalidSignatureLength","inputs":[{"name":"length","type":"uint256","internalType":"uint256"}]},{"type":"error","name":"ECDSAInvalidSignatureS","inputs":[{"name":"s","type":"bytes32","internalType":"bytes32"}]},{"type":"error","name":"InsufficientFreeBalance","inputs":[]},{"type":"error","name":"InsufficientLiquidity","inputs":[]},{"type":"error","name":"InvalidBetToken","inputs":[]},{"type":"error","name":"InvalidPublicKey","inputs":[]},{"type":"error","name":"InvalidTipsterName","inputs":[]},{"type":"error","name":"InvalidVaultBetAuthorization","inputs":[]},{"type":"error","name":"NoPendingVaultBet","inputs":[]},{"type":"error","name":"NotWhitelisted","inputs":[]},{"type":"error","name":"OneVaultPerTipster","inputs":[]},{"type":"error","name":"OnlyDeployer","inputs":[]},{"type":"error","name":"OnlyTipster","inputs":[]},{"type":"error","name":"OnlyVault","inputs":[]},{"type":"error","name":"PendingVaultBetActive","inputs":[]},{"type":"error","name":"PendingVaultBetExpired","inputs":[]},{"type":"error","name":"ReentrancyGuardReentrantCall","inputs":[]},{"type":"error","name":"SafeERC20FailedOperation","inputs":[{"name":"token","type":"address","internalType":"address"}]},{"type":"error","name":"TipsterNameTaken","inputs":[]},{"type":"error","name":"UnknownVault","inputs":[]},{"type":"error","name":"ZeroAddress","inputs":[]},{"type":"error","name":"ZeroAmount","inputs":[]}],"bytecode":{"object":"0x610120604081815234620002835760a08262005ae5803803809162000025828562000288565b83398101031262000283576200003b82620002c2565b60206200004a818501620002c2565b9162000058848601620002c2565b946200007560806200006d60608401620002c2565b9201620002c2565b60016000908155909690946001600160a01b03938416908115801562000278575b80156200026d575b801562000262575b62000202578416908751637e062a3560e11b81528681600481865afa9081156200025857829187918a9162000213575b501603620002025760805260a052821660c05260e0523361010090815294169182158015620001a4575b85855161580d9182620002d8833960805182818161068201528181610b4301528181611497015281816119d401528181611e9a0152613142015260a0518281816114440152818161163e0152818161198601528181611c13015281816128cd01528181612c230152818161358a015261390d015260c05182610be3015260e0518281816108ff0152613183015251818181610542015281816109ae0152611f510152f35b620001f157908382847ff93f9a76c1bf3444d22400a00cb9fe990e6abe9dbb333fda48859cfee864543d9452600f835220600160ff19825416179055835160018152a23880808062000100565b835163d92e233d60e01b8152600490fd5b87516316f4e80560e11b8152600490fd5b925050508681813d831162000250575b6200022f818362000288565b810103126200024c5785620002458392620002c2565b38620000d6565b8780fd5b503d62000223565b89513d8a823e3d90fd5b5084841615620000a6565b50848316156200009e565b508481161562000096565b600080fd5b601f909101601f19168101906001600160401b03821190821017620002ac57604052565b634e487b7160e01b600052604160045260246000fd5b51906001600160a01b0382168203620002835756fe608060405260043610156200001357600080fd5b60003560e01c80630d2cbe1314620022005780631626ba7e14620021a857806322af00fa146200211f5780632c59157914620020e157806333933fc01462001fc75780633af32abf14620004b9578063415665851462001f295780635980d6e91462001ec957806378691f161462001e825780637dc01dfe1462001e1257806381d1cf051462001c42578063846aaec11462001bfb57806385b0650c1462001b7a578063865817c41462001a1157806391b8ebc9146200131e57806399ab000314620012f0578063a390d7e11462001137578063a7c6a1001462001117578063aa8ba7d81462000e1b578063ab008ee81462000c12578063af26a7cb1462000bcb578063b1ad9de91462000a45578063b7ecbaae1462000986578063bb7042671462000950578063cd4a6b7f146200092e578063d1264b7d14620008e7578063d35c23221462000866578063d4b8876e1462000593578063d5a73b2c1462000571578063d5f39488146200052a578063d8914cac14620004fc578063d936547e14620004b9578063daa0bfba1462000483578063e45f48031462000445578063e6807d8b1462000407578063f9c508ae14620002145763fca1f89914620001d957600080fd5b346200020f5760203660031901126200020f57600435600052600c602052602060018060a01b0360406000205416604051908152f35b600080fd5b346200020f5760603660031901126200020f5760043562000234620022cf565b604435826000526020926002845260018060a01b039182604060002054163303620003f55780156200035c576200026b8262002767565b82600052600286526004868560406000205416604051928380926318160ddd60e01b82525afa908115620003e957600091620003b6575b5083600052600587526040600020620002bd8482546200261a565b9055806200036e57505080935b84156200035c57827f5c2e5fdeaa331e00fd587131b31e20fe773f6cf24ac045da30c53cbc08ceda2262000354956200034b9362000308846200325a565b908660009893985260028d528460406000205416978c604051968796169a869192608093969594919660a084019784526020840152604083015260608201520152565b0390a462002a7b565b604051908152f35b604051631f2a200560e01b8152600490fd5b8083029083820403620003a05781156200038a570493620002ca565b634e487b7160e01b600052601260045260246000fd5b634e487b7160e01b600052601160045260246000fd5b90508681813d8311620003e1575b620003d081836200238c565b810103126200020f575187620002a2565b503d620003c4565b6040513d6000823e3d90fd5b604051638d1af8bd60e01b8152600490fd5b346200020f5760203660031901126200020f576001600160a01b036200042c620022b8565b16600052600d6020526020604060002054604051908152f35b346200020f5760203660031901126200020f576001600160a01b036200046a620022b8565b1660005260046020526020604060002054604051908152f35b346200020f5760203660031901126200020f576004356000526002602052602060018060a01b0360406000205416604051908152f35b346200020f5760203660031901126200020f576001600160a01b03620004de620022b8565b16600052600f602052602060ff604060002054166040519015158152f35b346200020f5760203660031901126200020f5760043560005260076020526020604060002054604051908152f35b346200020f5760003660031901126200020f576040517f00000000000000000000000000000000000000000000000000000000000000006001600160a01b03168152602090f35b346200020f5760203660031901126200020f5762000591600435620027cc565b005b346200020f5760a03660031901126200020f576001600160801b03600435602435828116908190036200020f57620005ca620024b2565b92606435608435916001600160401b03958684168094036200020f5733600052602090600f825260ff604060002054161562000854576200060a6200281d565b60008781526003835260409020546001600160a01b0391903390831603620008425786156200035c5784156200083057428611156200081e578316926200065284886200261a565b9888600052600584528960406000205410620007d5576040516370a0823160e01b815230600482015284816024817f000000000000000000000000000000000000000000000000000000000000000088165afa8015620003e9578b91600091620007e7575b5010620007d55760038992620007ce9b620006d162003135565b8460005260058752620006eb604060002091825462002628565b905560405190620006fc8262002354565b338252868201908b8252604083019089825260608401928b845260808501988d8a5260a086019860018a5260005260098b5260406000209551166001600160601b0360a01b8654161785555116906001600160801b0319905160801b161760018301555160028201550192511668ff000000000000000083549251151560401b169168ffffffffffffffffff19161717905560405194855284015260408301526060820152817f87b515f200c118823e7ff476bcf08f8d251009147f3769f44cfe258395f28fd660803393a362002a7b565b6001600055005b60405163a3bf9d5b60e01b8152600490fd5b809250868092503d831162000816575b6200080381836200238c565b810103126200020f578a90518c620006b7565b503d620007f7565b60405163b8a645d560e01b8152600490fd5b60405163edf9a43960e01b8152600490fd5b604051630790b96d60e31b8152600490fd5b604051630b094f2760e31b8152600490fd5b346200020f5760203660031901126200020f57600435600052600960205260c0604060002060ff60018060a01b038254169160018101549060036002820154910154916040519485526001600160801b038116602086015260801c604085015260608401526001600160401b038116608084015260401c16151560a0820152f35b346200020f5760003660031901126200020f576040517f00000000000000000000000000000000000000000000000000000000000000006001600160a01b03168152602090f35b346200020f5760203660031901126200020f5760206200035460043562002767565b346200020f5760203660031901126200020f576004356000526003602052602060018060a01b0360406000205416604051908152f35b346200020f5760203660031901126200020f57620009a3620022b8565b6001600160a01b03907f00000000000000000000000000000000000000000000000000000000000000008216330362000a335716801562000a215780600052600f602052604060002060ff1981541690557ff93f9a76c1bf3444d22400a00cb9fe990e6abe9dbb333fda48859cfee864543d602060405160008152a2005b60405163d92e233d60e01b8152600490fd5b60405163618bbdd560e01b8152600490fd5b346200020f5760803660031901126200020f5760043562000a65620022cf565b6000828152600260205260409020546001600160a01b0392916064359184163303620003f55762000a956200281d565b81156200035c5762000aa783620027cc565b826000526005602052816040600020541062000bb957827f46121cc68b805344110bbcee0ba6de01669097664097a81a0fc0442ce5449c2e620007ce956200034b93836000526005602052604060002062000b0487825462002628565b905560405163a9059cbb60e01b60208201526001600160a01b03821660248201526044808201889052815262000b689062000b416064826200238c565b7f000000000000000000000000000000000000000000000000000000000000000062003d4b565b62000b73846200325a565b908660009893985260026020528460406000205416976040519586951699604435869192608093969594919660a084019784526020840152604083015260608201520152565b60405163bb55fd2760e01b8152600490fd5b346200020f5760003660031901126200020f576040517f00000000000000000000000000000000000000000000000000000000000000006001600160a01b03168152602090f35b346200020f5760c03660031901126200020f5760043562000c32620022cf565b9060443562000c4062002484565b62000c4a6200249b565b9033600052602092600f845260ff6040600020541615620008545762000c6f6200281d565b60008581526003855260409020546001600160a01b0390339082160362000842576001600160801b038085169081156200035c576040516331a9108f60e11b8152600481018590528781602481737a1c3fef712753374c4dce34254b96faf2b7265b5afa908115620003e95760009162000dde575b50833091160362000dcc5760a092886000526009885260406000209060ff60036040519262000d138462002354565b84541693848452600181015495861695868d86015260801c60408501526002810154606085015201546001600160401b038116608084015260401c161590811595869101529362000dc0575b50821562000db4575b50506200083057620007ce95600962000dad95876000525262000da1604060002060036000918281558260018201558260028201550155565b60643591338762002f51565b5062002a7b565b14159050878062000d68565b33141592508962000d5f565b60405163469bfa9160e01b8152600490fd5b90508781813d831162000e13575b62000df881836200238c565b810103126200020f5762000e0c9062002605565b8a62000ce4565b503d62000dec565b346200020f5760603660031901126200020f576001600160401b036004358181116200020f5762000e5190369060040162002267565b602435916044359033600052602094600f865260ff60406000205416156200085457841580156200110e575b620010fc5762000e8e848362002e19565b6000818152600c885260409020546001600160a01b03168015159081620010f0575b50620010de5733600052600b875262000ecd6040600020620023ae565b8781519182620010b7575b505050600052600c86526040600020336001600160601b0360a01b82541617905533600052600b86526040600020908411620010a15762000f1a8154620022fb565b601f811162001056575b506000601f851160011462000fc4579162000fa791857fc6a3cdfd234cb54e4df8075b342a1f85773584bcb2bb40a25e584b9be85acebd979460009162000fb8575b508660011b906000198860031b1c19161790555b33600052600d875282604060002055600e87528360406000205560405194606086526060860191620026c8565b9483015260408201528033930390a2005b90508201358962000f66565b601f1985169082600052876000209160005b898282106200103f5750509162000fa79391877fc6a3cdfd234cb54e4df8075b342a1f85773584bcb2bb40a25e584b9be85acebd9996941062001024575b5050600186811b01905562000f7a565b830135600019600389901b60f8161c19169055888062001014565b600184958293958901358155019401920162000fd6565b8160005286600020601f860160051c81019188871062001096575b601f0160051c01905b81811062001089575062000f24565b600081556001016200107a565b909150819062001071565b634e487b7160e01b600052604160045260246000fd5b0120600052600c875260406000206001600160601b0360a01b815416905587878162000ed8565b60405163050310ff60e51b8152600490fd5b90503314158862000eb0565b60405163145a1fdd60e31b8152600490fd5b50821562000e7d565b346200020f5760003660031901126200020f576020600154604051908152f35b346200020f5760403660031901126200020f576001600160401b036004358181116200020f576200116d90369060040162002267565b906024358381116200020f576200118990369060040162002267565b939033600052602094600f865260ff604060002054161562000854573360005260048652604060002054620012de57620011c56001546200273e565b9283600155604051906119998083019183831090831117620010a1578291620012249162003e3f8439308152868a82015233604082015260a060608201526200121360a082018a8a620026c8565b9060808183039101528486620026c8565b03906000f0948515620003e9577f4b2f244f10b1cdffa2a53652db0dad7a67055239d71657b036085a4fe32b9fb2620003549585926200034b9860018060a01b03169889958560005260028c5260406000206001600160601b0360a01b90888282541617905560038d5260406000209033908254161790553360005260048c5285604060002055620012b562003135565b620012ce604051948594604086526040860191620026c8565b908382038d8501523398620026c8565b60405163b2b42d1f60e01b8152600490fd5b346200020f5760203660031901126200020f5760043560005260056020526020604060002054604051908152f35b346200020f5760a03660031901126200020f576200133b620022cf565b62001345620024b2565b906001600160401b03606435116200020f5760e0606435360360031901126200020f576084356001600160401b0381116200020f576200138a90369060040162002267565b929033600052600f60205260ff60406000205416156200085457620013ae6200281d565b60043560005260036020523360018060a01b03604060002054160362000842576001600160801b038216156200035c5760043560005260056020526001600160801b03821660406000205410620007d55760043560005260056020526040600020620014256001600160801b038416825462002628565b905560405163095ea7b360e01b60208083018281526001600160a01b037f00000000000000000000000000000000000000000000000000000000000000001660248501526001600160801b0386166044808601919091528452919291600090620014916064856200238c565b835190827f00000000000000000000000000000000000000000000000000000000000000005af16000513d82620019c9575b5050156200196b575b5050604051630512a74560e41b81526001600160a01b0384811660048084019190915260806024840152919586929091906200150c9060643501620022e6565b166084830152620015286024606435016064356004016200264e565b60e060a48501528061016485015261018490818501918160051b8601019280926000915b838310620017fb575050505050600093839262001620620016399360ff6200157960446064350162002685565b1660c48701526001600160a01b03620015966064803501620022e6565b1660e4870152620015f8620015d0620015ba60846064350160643560040162002694565b6083198a860381016101048c01529491620026c8565b620015e660a46064350160643560040162002694565b90848a8403016101248b0152620026c8565b906200160f60c46064350160643560040162002694565b9188840301610144890152620026c8565b30604486015284810360031901606486015291620026c8565b0381837f00000000000000000000000000000000000000000000000000000000000000006001600160a01b03165af1928315620003e9576000936200175b575b5082511562000dcc576020620016a56200169e602460643501606435600401620026e9565b9062002721565b0135620016d0620016c56200169e602460643501606435600401620026e9565b6080810190620026e9565b15620017455735906001600160801b03821682036200020f5760005b85518110156200171d57806200171585858589602060019760051b8d0101513360043562002f51565b5001620016ec565b62001741866200172f60043562002a7b565b600160005560405191829182620024de565b0390f35b634e487b7160e01b600052603260045260246000fd5b9092503d806000833e6200177081836200238c565b8101906020818303126200020f578051906001600160401b0382116200020f57019080601f830112156200020f578151620017ab8162002636565b92620017bb60405194856200238c565b81845260208085019260051b8201019283116200020f57602001905b828210620017ea57505050918362001679565b8151815260209182019101620017d7565b91939596509193610183198b820301835260de1982360301863512156200020f5785358201803582526020808201359083015260e08201919060ff90620018459060400162002685565b16604082015260609160e0906200186389358601808601906200264e565b9283929195850152526101008201929060005b81811062001934575050506020620018986080858a350101858a35016200264e565b838503608085015280855293909101926000905b8082106200190957505050602060019281926001600160801b03620018d760a0888d350101620024c9565b1660a082015260c060ff620018f18c358901830162002685565b1691015297019301930190928a96959492936200154c565b9091936020806001926001600160801b036200192589620024c9565b168152019501920190620018ac565b9091938435906001600160401b03821682036200020f57602080916001600160401b03600194168152019501910191909162001876565b62000b41620019c19260405190602082015260018060a01b037f0000000000000000000000000000000000000000000000000000000000000000166024820152600060448201526044815262000b418162002370565b8480620014cc565b90915062001a0857507f00000000000000000000000000000000000000000000000000000000000000006001600160a01b03163b15155b8780620014c3565b60011462001a00565b346200020f576020806003193601126200020f5760043533600052600f825260ff6040600020541615620008545762001a496200281d565b60008181526003835260409020546001600160a01b039033908216036200084257816000526009835260406000206040519162001a868362002354565b81541682526001810154906001600160801b039260ff6003878301938686168552604084019560801c86526002810154606085015201546001600160401b038116608084015260401c16159060a0821591015262001b685782809151169151160192818411620003a057620007ce9362001b1360099385600052600584526040600020921682546200261a565b9055826000525262001b3b604060002060036000918281558260018201558260028201550155565b33817f6d85f5f788c43637c85ca54d978079222a578a9d57a95fb6e5a00bb2f971434d600080a362002a7b565b604051632807fb9960e11b8152600490fd5b346200020f576020806003193601126200020f5760043560005260086020526040600020906040519081602084549182815201936000526020600020916000905b82821062001be357620017418562001bd6818903826200238c565b60405191829182620024de565b83548652948501946001938401939091019062001bbb565b346200020f5760003660031901126200020f576040517f00000000000000000000000000000000000000000000000000000000000000006001600160a01b03168152602090f35b346200020f5760e03660031901126200020f5760043562001c62620022cf565b9060443562001c7062002484565b62001c7a6200249b565b9060c435926001600160801b038085168095036200020f5733600052602094600f865260ff6040600020541615620008545762001cb66200281d565b60008781526003875260409020546001600160a01b0392903390841603620008425785169182156200035c57836000526007875260406000205462001e0057876000526009875260ff60036040600020015460401c1662001dee576040516331a9108f60e11b815260048101859052908782602481737a1c3fef712753374c4dce34254b96faf2b7265b5afa918215620003e95760009262001daf575b503091160362000dcc5762001d68916200261a565b9585600052600585528660406000205410620007d557620007ce96600562000dad96886000525262001da1604060002091825462002628565b905560643591338762002f51565b9091508781813d831162001de6575b62001dca81836200238c565b810103126200020f5762001dde9062002605565b908a62001d53565b503d62001dbe565b6040516339b6ea1b60e01b8152600490fd5b604051631c09064560e01b8152600490fd5b346200020f5760203660031901126200020f576001600160a01b0362001e37620022b8565b16600052600b60205262001e4f6040600020620023ae565b6040805180926020825262001e7481518092816020860152602086860191016200245f565b601f01601f19168101030190f35b346200020f5760003660031901126200020f576040517f00000000000000000000000000000000000000000000000000000000000000006001600160a01b03168152602090f35b346200020f5760203660031901126200020f576004356001600160401b0381116200020f5762001f0262001f0991369060040162002267565b9062002e19565b600052600c602052602060018060a01b0360406000205416604051908152f35b346200020f5760203660031901126200020f5762001f46620022b8565b6001600160a01b03907f00000000000000000000000000000000000000000000000000000000000000008216330362000a335716801562000a215780600052600f6020526040600020600160ff198254161790557ff93f9a76c1bf3444d22400a00cb9fe990e6abe9dbb333fda48859cfee864543d602060405160018152a2005b346200020f5760203660031901126200020f57600060c060405162001fec8162002338565b8281528260208201528260408201528260608201528260808201528260a08201520152600435600052600660205260e0604060002060405190620020308262002338565b8054825260018060a01b0390816001820154169160208401928352600282015491604085019283526001600160801b038093816003840154169060608801918252600560048501549460808a0195865201549460ff60a08a0196858116885260801c169760c08a0198620020a48162002297565b895260405199518a525116602089015251604088015251166060860152516080850152511660a083015251620020da8162002297565b60c0820152f35b346200020f5760203660031901126200020f576001600160a01b0362002106620022b8565b16600052600e6020526020604060002054604051908152f35b346200020f5760203660031901126200020f57600435600052600660205260e0604060002080549060018060a01b036001820154169060028101546001600160801b039182600382015416600560048301549201549260ff8460801c169560405197885260208801526040870152606086015260808501521660a0830152620020da8162002297565b346200020f5760403660031901126200020f576024356001600160401b0381116200020f57620021ed620021e3602092369060040162002267565b9060043562002574565b6040516001600160e01b03199091168152f35b346200020f5760403660031901126200020f57602435600435620022236200281d565b816000526006602052806040600020540362000dcc57620022516200224a60209362002856565b9162002a7b565b60016000556001600160801b0360405191168152f35b9181601f840112156200020f578235916001600160401b0383116200020f57602083818601950101116200020f57565b60051115620022a257565b634e487b7160e01b600052602160045260246000fd5b600435906001600160a01b03821682036200020f57565b602435906001600160a01b03821682036200020f57565b35906001600160a01b03821682036200020f57565b90600182811c921680156200232d575b60208310146200231757565b634e487b7160e01b600052602260045260246000fd5b91607f16916200230b565b60e081019081106001600160401b03821117620010a157604052565b60c081019081106001600160401b03821117620010a157604052565b608081019081106001600160401b03821117620010a157604052565b90601f801991011681019081106001600160401b03821117620010a157604052565b90604051918260008254620023c381620022fb565b908184526020946001916001811690816000146200243b5750600114620023f8575b505050620023f6925003836200238c565b565b600090815285812095935091905b81831062002422575050620023f69350820101388080620023e5565b8554888401850152948501948794509183019162002406565b92505050620023f694925060ff191682840152151560051b820101388080620023e5565b60005b838110620024735750506000910152565b818101518382015260200162002462565b608435906001600160801b03821682036200020f57565b60a435906001600160801b03821682036200020f57565b604435906001600160801b03821682036200020f57565b35906001600160801b03821682036200020f57565b602090602060408183019282815285518094520193019160005b82811062002507575050505090565b835185529381019392810192600101620024f8565b6001600160401b038111620010a157601f01601f191660200190565b92919262002546826200251c565b916200255660405193846200238c565b8294818452818301116200020f578281602093846000960137010152565b90620025808262002cdb565b9160a083015115620025f4576001600160401b03608084015116421015620025f457620025b8620025bf92620025c995369162002538565b9062003c98565b9093919362003cd7565b516001600160a01b03908116911603620025e857630b135d3f60e11b90565b6001600160e01b031990565b506001600160e01b03199392505050565b51906001600160a01b03821682036200020f57565b91908201809211620003a057565b91908203918211620003a057565b6001600160401b038111620010a15760051b60200190565b9035601e19823603018112156200020f5701602081359101916001600160401b0382116200020f578160051b360383136200020f57565b359060ff821682036200020f57565b9035601e19823603018112156200020f5701602081359101916001600160401b0382116200020f5781360383136200020f57565b908060209392818452848401376000828201840152601f01601f1916010190565b903590601e19813603018212156200020f57018035906001600160401b0382116200020f57602001918160051b360383136200020f57565b9015620017455780359060de19813603018212156200020f570190565b6000198114620003a05760010190565b8054821015620017455760005260206000200190600090565b600052600560205260406000205490600860205260406000206000908054905b8183106200279457505050565b909193620027c2600191620027bb620027ae88866200274e565b90549060031b1c6200346b565b906200261a565b9401919062002787565b80600052600860205260406000209160005b83548110156200280f578062002808620027fb600193876200274e565b90549060031b1c620037e7565b01620027de565b509150620023f69062002a7b565b6002600054146200282f576002600055565b604051633ee5aeb560e01b8152600490fd5b51906001600160801b03821682036200020f57565b6000908082526020926006845260409182842090600582019360ff855460801c16620028828162002297565b6004811490811562002a64575b5062002a5b576001830154600284015482516325aa820b60e01b81526001600160a01b039283166004820181905260248201839052919991979093927f0000000000000000000000000000000000000000000000000000000000000000168285604481845afa94851562002a51578a9562002a12575b5084986001600160801b038096161562002a04578451630161d07760e41b81526001600160a01b03919091166004820152602481019b909b52989997989697968290889060449082908e905af1968715620029fa578a97620029a1575b50805460ff60801b1916600160821b1790558454895260059052909620805495969495620023f6956200299991908616906200261a565b905562003c19565b9096508181813d8311620029f2575b620029bc81836200238c565b81010312620029ee57986005620029999392620029df620023f69a9b9c62002841565b98929b9a995092935062002962565b8980fd5b503d620029b0565b83513d8c823e3d90fd5b505050505050505092505090565b9094508281813d831162002a49575b62002a2d81836200238c565b81010312620029ee5762002a419062002841565b933862002905565b503d62002a21565b84513d8c823e3d90fd5b50505092505090565b6002915062002a738162002297565b14386200288f565b62002a86816200325a565b60009392919380818093868252602097600889526040832083908054915b82811062002b15575050509160e09593917fd9e931c584f47d3c71a1e031f244b95e335fbc08e1c242a99fb8a8195937f3499795938960005260028b5260018060a01b03604060002054169a60405197885287015260408601526060850152608084015260a083015260c0820152a3565b62002b2181836200274e565b90549060031b1c60005260068c52604060002060ff600582015460801c169062002b4b8262002297565b811562002cc8575b62002b5e8262002297565b8d60019182841462002bcf575b50505062002b798162002297565b6004811462002bb8575b8062002b9160029262002297565b1462002ba1575b60010162002aa4565b9762002baf6001916200273e565b98905062002b98565b9762002bc66002916200273e565b98905062002b83565b62002be162002c1f949b939a6200273e565b998101546002909101546040516325aa820b60e01b81526001600160a01b039283166004820152602481019190915293849190829081906044820190565b03917f0000000000000000000000000000000000000000000000000000000000000000165afa8015620003e9578e9260009162002c78575b5062002c6e92506001600160801b0316906200261a565b96388d8162002b6b565b919282813d831162002cc0575b62002c9181836200238c565b8101031262002cbd5750906001600160801b0362002cb362002c6e9362002841565b908f935062002c57565b80fd5b503d62002c85565b9662002cd4906200273e565b9662002b53565b604090815162002ceb8162002354565b60009182825260209183602082015283858201526060918460608301526080928560808401528560a0809401526001936001549560015b8781111562002d625750505050505050508082519262002d428462002354565b81845281602085015283015280606083015280608083015260a082015290565b808952600982528989208a519062002d7a8262002354565b80546001600160a01b03168252888101546001600160801b03811685840152851c8c83015260028101548683018190526003909101546001600160401b038116868401528c1c60ff1615158883018190529087908262002dfc575b505062002dee575062002de8906200273e565b62002d22565b995050505050505050505090565b149050863862002dd5565b90815181101562001745570160200190565b62002e2691369162002538565b80519060038210801562002f46575b62002e7a5760005b82811062002eb5575080511562001745576020810191605f60f81b60ff60f81b81818651161492831562002e8c575b50505062002e7a5751902090565b60405163eca8752d60e01b8152600490fd5b919250906000198101908111620003a05762002ea9908462002e07565b51161438808062002e6c565b6001600160f81b031962002eca828462002e07565b5116606160f81b811015908162002f36575b600360fc1b811015918262002f26575b15918262002f1c575b508162002f0c575b5062002e7a5760010162002e3d565b605f60f81b141590503862002efd565b1591503862002ef5565b603960f81b821115925062002eec565b603d60f91b811115915062002edc565b506014821162002e35565b9295600592979695949562002f686010546200273e565b96876010558799604080519162002f7f8362002338565b8883528a60209a8b8086019860018060a01b039b8c809a1697888c528781019b878d52606082016001600160801b038095169d8e825260808401928d84528660a0860199169e8f8a52600660c087019960009c8d8c528d52528c8b2095518655600186019151166001600160601b0360a01b82541617905551600284015584600384019151166001600160801b031982541617905551600482015501925116825491516200302d8162002297565b620030388162002297565b60ff60801b9060801b169170ffffffffffffffffffffffffffffffffff19161717905581815260078b528b8382205589815260088b528281208054680100000000000000008110156200312157848d999795938f8e9a989694848f956001018255620030a4916200274e565b819291549060031b91821b91600019901b1916179055620030c58a6200325a565b509b909a8252600290522054169b82519d8e528d01528b015260608a0152608089015260a088015260c087015260e086015216926101007f4b63d1f1bf8d7b2194b9e7f1912e63d7fffcd7ca7fdbc737012d2de15bc1155c91a4565b634e487b7160e01b83526041600452602483fd5b60ff600a5416620023f6577f0000000000000000000000000000000000000000000000000000000000000000604051602081019163095ea7b360e01b9283815260018060a01b0360206000827f000000000000000000000000000000000000000000000000000000000000000016938460248801528119604488015260448752620031c08762002370565b86519082875af1903d600051908362003236575b50505015620031f1575b50505050600160ff19600a541617600a55565b6200322c936200322691604051916020830152602482015260006044820152604481526200321f8162002370565b8262003d4b565b62003d4b565b38808080620031de565b919250906200324f575082163b15155b388080620031d4565b600191501462003246565b6000918183526020600581526004604085205494620032798562002767565b9481526002835260408082205490516318160ddd60e01b815292849184919082906001600160a01b03165afa928315620032f2578193620032bb575b50505090565b9091809350813d8311620032ea575b620032d681836200238c565b8101031262002cbd575051388080620032b5565b503d620032ca565b50604051903d90823e3d90fd5b908160209103126200020f575180151581036200020f5790565b9091610100828403126200020f578151906001600160401b03918281116200020f5783019380601f860112156200020f5784516020956200335a826200251c565b916200336a60405193846200238c565b808352838882840101116200020f576200338a918880850191016200245f565b94808501518481116200020f5785019180601f840112156200020f578251620033b38162002636565b93620033c360405195866200238c565b818552838086019260051b8201019283116200020f578301905b82821062003451575050505092620033f86040820162002841565b92606082015190811681036200020f5791608082015165ffffffffffff811681036200020f579160a081015160ff811681036200020f579160c082015160058110156200020f5760e06200344e91930162002605565b90565b8380916200345f8462002841565b815201910190620033dd565b6000908152602060068152604080832060058101549260ff8460801c1693620034948562002297565b60028514620037c857620034a88562002297565b600494858114908115620037d0575b50620037c857600183015483860154855163d8da4bab60e01b81528088018290526001600160a01b0397928816959085816024818a5afa9081156200379c578a91620037a6575b506200373b578651630f7e425f60e31b815283810183905289816024818a5afa80156200379c578a918b9162003767575b50806200353e60029262002297565b1415908162003754575b506200373b576002015486516325aa820b60e01b81526001600160a01b03871684820190815260208101839052909891949186918a91908290819060400103917f0000000000000000000000000000000000000000000000000000000000000000165afa97881562003731578998620036ee575b506001600160801b0380981680620036e157508651635d311bdd60e01b81528381019283529088166001600160801b03166020830152908490829081906040010381885afa908115620036d7578891620036a3575b50620036205750505050505090565b90602483928697989596519687938492632589867d60e01b84528301525afa938415620036985750819362003657575b5050501690565b9091809350813d831162003690575b6200367281836200238c565b8101031262002cbd5750620036879062002841565b38808062003650565b503d62003666565b51913d9150823e3d90fd5b620036c89150843d8611620036cf575b620036bf81836200238c565b810190620032ff565b3862003611565b503d620036b3565b86513d8a823e3d90fd5b9850505050505050505090565b9097508481813d831162003729575b6200370981836200238c565b8101031262003725576200371d9062002841565b9638620035bc565b8880fd5b503d620036fd565b87513d8b823e3d90fd5b600301546001600160801b031698975050505050505050565b6001600160401b03915016153862003548565b600292506200378b91503d808d833e6200378281836200238c565b81019062003319565b50969550505091505091906200352f565b88513d8c823e3d90fd5b620037c19150863d8811620036cf57620036bf81836200238c565b38620034fe565b505050505090565b60039150620037df8162002297565b1438620034b7565b60009080825260206006815260409081842090600582019485549360ff8560801c1692620038158462002297565b60049384811490811562003c01575b811562003bea575b5062003be0576001850180548587018054855163d8da4bab60e01b81528089019190915292986001600160a01b0397928816938581602481885afa90811562003bd657889162003bb4575b5062003b5d57508054855190630f7e425f60e31b8252838201528681602481875afa801562003b53578791889162003b27575b5080620038b960029262002297565b1415908162003b14575b5062003b07578387620039099a541660028a01988954918851809d819482936325aa820b60e01b845289840160209093929193604081019460018060a01b031681520152565b03917f0000000000000000000000000000000000000000000000000000000000000000165afa98891562003afd57869962003aba575b506001600160801b0380991662003a7357548a548551635d311bdd60e01b81529283019182526001600160801b038a82161660208301529284918391908290819060400103915afa90811562003a6957859162003a47575b5015620039c6575050865460ff60801b1916600160801b1790965550620039c394506200285692505050565b50565b60ff60801b1916600160811b17978890558454957f6ab6ffb356413f90d6be033537ad8c2990c905f327fa857083996f196173017c9560a095909460ff9491939092600362003a158b6200325a565b50979096549d60801c169762003a2b8962002297565b01541690825196875286015284015260608301526080820152a4565b62003a629150833d8511620036cf57620036bf81836200238c565b3862003997565b84513d87823e3d90fd5b5098965050505050505080549260ff8460801c1662003a928162002297565b0362003a9d57505050565b60ff60801b19909216600160801b17909155620039c39062002856565b9098508381813d831162003af5575b62003ad581836200238c565b8101031262003af15762003ae99062002841565b97386200393f565b8580fd5b503d62003ac9565b85513d88823e3d90fd5b5050505050505050505050565b6001600160401b039150161538620038c3565b6002925062003b4291503d808a833e6200378281836200238c565b5096955050509150509190620038aa565b86513d89823e3d90fd5b60ff60801b1916600360801b17909a555050600385018054865485526005909252919092208054620023f698509495506001600160801b03949193509162003ba991908516906200261a565b905554169162003c19565b62003bcf9150863d8811620036cf57620036bf81836200238c565b3862003877565b87513d8a823e3d90fd5b5050505050505050565b6003915062003bf98162002297565b14386200382c565b905062003c0e8162002297565b600281149062003824565b907f6ab6ffb356413f90d6be033537ad8c2990c905f327fa857083996f196173017c60a082549262003c4b846200325a565b5090600360028401549860ff600586015460801c169462003c6c8662002297565b6001600160801b03928391015416604051958652602086015216604084015260608301526080820152a4565b815191906041830362003ccc5762003cc592506020820151906060604084015193015160001a9062003dab565b9192909190565b505060009160029190565b6004811015620022a2578062003ceb575050565b6001810362003d065760405163f645eedf60e01b8152600490fd5b6002810362003d285760405163fce698f760e01b815260048101839052602490fd5b60031462003d335750565b602490604051906335e2f38360e21b82526004820152fd5b906000602091828151910182855af115620003e9576000513d62003da157506001600160a01b0381163b155b62003d7f5750565b604051635274afe760e01b81526001600160a01b039091166004820152602490fd5b6001141562003d77565b91907f7fffffffffffffffffffffffffffffff5d576e7357a4501ddfe92f46681b20a0841162003e3257926020929160ff608095604051948552168484015260408301526060820152600092839182805260015afa1562003e265780516001600160a01b0381161562003e1d57918190565b50809160019190565b604051903d90823e3d90fd5b5050506000916003919056fe61010080604052346200046c5762001999803803809162000021828562000471565b8339810160a0828203126200046c576200003b8262000495565b9060209081840151620000516040860162000495565b60608601516001600160401b0396908781116200046c578462000076918301620004aa565b9360808201518881116200046c57620000909201620004aa565b928051968088116200036c576003978854906001938483811c9316801562000461575b898410146200044b578190601f93848111620003f5575b5089908483116001146200038e5760009262000382575b5050600019828c1b1c191690841b1789555b85519182116200036c5760049586548481811c9116801562000361575b898210146200034c5782811162000301575b5087918311600114620002915798829188999a60009998999362000285575b505082841b92600019911b1c19161785555b6005556001600160a01b03958616608081905260a09290925260c052604051633c348f8b60e11b815292839182905afa918215620002795760009262000235575b8260e052604051611478908162000521823960805181818161023d0152818161033a01528181610409015281816104660152818161067a0152818161077201528181610c4e01528181610db10152818161109d0152611342015260a0518181816102180152818161085901528181610c2201528181610d7a015281816111430152611385015260c051816102d5015260e05181818161081301526110730152f35b81813d831162000271575b6200024c818362000471565b810103126200026d575191821682036200026a575080388062000194565b80fd5b5080fd5b503d62000240565b6040513d6000823e3d90fd5b01519150388062000141565b98601f1983169187600052886000209260005b818110620002eb575090899a9b8587969594939b9a9b10620002d0575b50505050811b01855562000153565b01519060f884600019921b161c1916905538808080620002c1565b8c830151855593860193918a01918a01620002a4565b87600052886000208380860160051c8201928b871062000342575b0160051c019085905b8281106200033557505062000122565b6000815501859062000325565b925081926200031c565b602288634e487b7160e01b6000525260246000fd5b90607f169062000110565b634e487b7160e01b600052604160045260246000fd5b015190503880620000e1565b90869350601f198316918d6000528b6000209260005b8d828210620003de5750508411620003c5575b505050811b018955620000f3565b0151600019838e1b60f8161c19169055388080620003b7565b8385015186558a97909501949384019301620003a4565b9091508b600052896000208480850160051c8201928c861062000441575b918891869594930160051c01915b82811062000431575050620000ca565b6000815585945088910162000421565b9250819262000413565b634e487b7160e01b600052602260045260246000fd5b92607f1692620000b3565b600080fd5b601f909101601f19168101906001600160401b038211908210176200036c57604052565b51906001600160a01b03821682036200046c57565b919080601f840112156200046c5782516001600160401b0381116200036c5760209060405192620004e583601f19601f850116018562000471565b8184528282870101116200046c5760005b8181106200050c57508260009394955001015290565b8581018301518482018401528201620004f656fe6040608081526004908136101561001557600080fd5b600090813560e01c92836301e1d11414610a8e57836306fdde031461099957836307a2d13a146107fa578363095ea7b3146108f15783630a28a4771461015957836318160ddd146108d357836323b872dd14610897578363313ce5671461087c57836333194c0a1461084257836338d52e0f146107ff578363402d267d146103045783634cdad506146107fa5783636e553f651461073957836370a082311461070357836394bf804d1461064157836395d89b411461053c578363a9059cbb1461050c578363b3d7f6b9146104ed578363b460af9414610438578363b62654fb146103f5578363ba08765214610309578363c63d75b614610304578363c6e6f59214610159578363ce0b4ed0146102c1578363ce96cb77146101d457508263d905777e146101a9578263dd62ed3e1461015e57505063ef8b30f71461015957600080fd5b610b56565b346101a557806003193601126101a5578060209261017a610b2a565b610182610b40565b6001600160a01b0391821683526001865283832091168252845220549051908152f35b5080fd5b346101a55760203660031901126101a5576020906101cd6101c8610b2a565b610d6b565b9051908152f35b346102bd57602092836003193601126102a8576001600160a01b03806101f8610b2a565b16825281855284848320549360248651809481936399ab000360e01b83527f0000000000000000000000000000000000000000000000000000000000000000908301527f0000000000000000000000000000000000000000000000000000000000000000165afa9182156102b257809261027d575b5050906101cd9160025491610e64565b9091508482813d83116102ab575b6102958183610bdb565b810103126102a85750516101cd8561026d565b80fd5b503d61028b565b8451903d90823e3d90fd5b8280fd5b50346101a557816003193601126101a557517f00000000000000000000000000000000000000000000000000000000000000006001600160a01b03168152602090f35b610b80565b9250346101a55761031936610ba6565b8351633af32abf60e01b8152338188015290959294919291906020816024817f00000000000000000000000000000000000000000000000000000000000000006001600160a01b03165afa9182156103ea57916103bb575b50156103ad57506020936103a29161038761104c565b61039c610392610c13565b6002549087610e64565b946112b0565b600160055551908152f35b8251630b094f2760e31b8152fd5b6103dd915060203d6020116103e3575b6103d58183610bdb565b810190610cc5565b38610371565b503d6103cb565b8551903d90823e3d90fd5b50346101a557816003193601126101a557517f00000000000000000000000000000000000000000000000000000000000000006001600160a01b03168152602090f35b9250346101a55761044836610ba6565b8351633af32abf60e01b8152338188015290959194906020816024817f00000000000000000000000000000000000000000000000000000000000000006001600160a01b03165afa9182156103ea57916104ce575b50156103ad57506020936104c76103a2926104b661104c565b6104be610c13565b60025491610e82565b93846112b0565b6104e7915060203d6020116103e3576103d58183610bdb565b3861049d565b91346102a85760203660031901126102a857506101cd60209235610cdd565b50346101a557806003193601126101a55760209061053561052b610b2a565b6024359033610f6e565b5160018152f35b9250346101a557816003193601126101a55780519180938054916001908360011c9260018516948515610637575b60209586861081146106245785895290811561060057506001146105a8575b6105a4878761059a828c0383610bdb565b5191829182610aaa565b0390f35b81529295507f8a35acfbc15ff81a39ae7d344fd709f28e8600b4aa8c65c6b64bfe7fe36bd19b5b8284106105ed57505050826105a49461059a92820101943880610589565b80548685018801529286019281016105cf565b60ff19168887015250505050151560051b830101925061059a826105a43880610589565b634e487b7160e01b845260228352602484fd5b93607f169361056a565b9250346101a557806003193601126101a55782359261065e610b40565b8251633af32abf60e01b815233838201529093906020816024817f00000000000000000000000000000000000000000000000000000000000000006001600160a01b03165afa9182156102b257916106e4575b50156106d657506103a26020936106c661104c565b6106cf81610cdd565b938461106f565b9051630b094f2760e31b8152fd5b6106fd915060203d6020116103e3576103d58183610bdb565b386106b1565b50346101a55760203660031901126101a55760209181906001600160a01b0361072a610b2a565b16815280845220549051908152f35b9250346101a557806003193601126101a557823592610756610b40565b8251633af32abf60e01b815233838201529093906020816024817f00000000000000000000000000000000000000000000000000000000000000006001600160a01b03165afa9182156102b257916107db575b50156106d657506103a26020936107be61104c565b6107d36107c9610c13565b6002549083610e82565b93849161106f565b6107f4915060203d6020116103e3576103d58183610bdb565b386107a9565b610af3565b50346101a557816003193601126101a557517f00000000000000000000000000000000000000000000000000000000000000006001600160a01b03168152602090f35b50346101a557816003193601126101a557602090517f00000000000000000000000000000000000000000000000000000000000000008152f35b50346101a557816003193601126101a5576020905160128152f35b50346101a55760603660031901126101a5576020906105356108b7610b2a565b6108bf610b40565b604435916108ce833383610e9b565b610f6e565b50346101a557816003193601126101a5576020906002549051908152f35b346102bd57816003193601126102bd57610909610b2a565b602435903315610982576001600160a01b031691821561096b57508083602095338152600187528181208582528752205582519081527f8c5be1e5ebec7d5bd14f71427d1e84f3dd0314c0f7b2291e5b200ac8c7c3b925843392a35160018152f35b8351634a1406b160e11b8152908101859052602490fd5b835163e602df0560e01b8152808401869052602490fd5b90346102bd57826003193601126102bd5780519183600354906001908260011c92600181168015610a84575b6020958686108214610a715750848852908115610a4f57506001146109f6575b6105a4868661059a828b0383610bdb565b929550600383527fc2575a0e9e593c00f959f8c92f12db2869c3395a3b0502d05e2516446f71f85b5b828410610a3c57505050826105a49461059a9282010194866109e5565b8054868501880152928601928101610a1f565b60ff191687860152505050151560051b830101925061059a826105a4866109e5565b634e487b7160e01b845260229052602483fd5b93607f16936109c5565b50346101a557816003193601126101a5576020906101cd610c13565b6020808252825181830181905290939260005b828110610adf57505060409293506000838284010152601f8019910116010190565b818101860151848201604001528501610abd565b34610b25576020366003190112610b25576020610b1d610b11610c13565b60025490600435610e64565b604051908152f35b600080fd5b600435906001600160a01b0382168203610b2557565b602435906001600160a01b0382168203610b2557565b34610b25576020366003190112610b25576020610b1d610b74610c13565b60025490600435610e82565b34610b25576020366003190112610b2557610b99610b2a565b5060206040516000198152f35b6060906003190112610b2557600435906001600160a01b03906024358281168103610b2557916044359081168103610b255790565b90601f8019910116810190811067ffffffffffffffff821117610bfd57604052565b634e487b7160e01b600052604160045260246000fd5b60405163cd4a6b7f60e01b81527f000000000000000000000000000000000000000000000000000000000000000060048201526020816024817f00000000000000000000000000000000000000000000000000000000000000006001600160a01b03165afa908115610cb957600091610c8a575090565b90506020813d602011610cb1575b81610ca560209383610bdb565b81010312610b25575190565b3d9150610c98565b6040513d6000823e3d90fd5b90816020910312610b2557518015158103610b255790565b60025490610ce9610c13565b908215610d3257610cfe610d03928492610d38565b6112a3565b600019810191908211610d1c57610d1991610d4b565b90565b634e487b7160e01b600052601160045260246000fd5b91505090565b81810292918115918404141715610d1c57565b8115610d55570490565b634e487b7160e01b600052601260045260246000fd5b6040516399ab000360e01b81527f000000000000000000000000000000000000000000000000000000000000000060048201526020916001600160a01b039083836024817f000000000000000000000000000000000000000000000000000000000000000086165afa928315610cb957600093610e35575b5016918260005260008152610e08604060002054610dff610c13565b60025491610e64565b918215610e2c576000610e2792610d1995825252604060002054610d38565b610d4b565b50505050600090565b9092508381813d8311610e5d575b610e4d8183610bdb565b81010312610b2557519138610de3565b503d610e43565b9190918115610e7a57610d1992610e2791610d38565b505050600090565b8215610d32578115610e7a57610d1992610e2791610d38565b9160018060a01b038093169160009383855260016020526040938486209183169182875260205284862054926000198403610eda575b50505050505050565b848410610f3e57508015610f26578115610f0e57855260016020528385209085526020520391205538808080808080610ed1565b8451634a1406b160e11b815260048101879052602490fd5b845163e602df0560e01b815260048101879052602490fd5b8551637dc7a0d960e11b81526001600160a01b039190911660048201526024810184905260448101859052606490fd5b916001600160a01b03808416928315611033571692831561101a5760009083825281602052604082205490838210610fe8575091604082827fddf252ad1be2c89b69c2b068fc378daa952ba7f163c4a11628f55a4df523b3ef958760209652828652038282205586815220818154019055604051908152a3565b60405163391434e360e21b81526001600160a01b03919091166004820152602481019190915260448101839052606490fd5b60405163ec442f0560e01b815260006004820152602490fd5b604051634b637e8f60e11b815260006004820152602490fd5b60026005541461105d576002600555565b604051633ee5aeb560e01b8152600490fd5b91907f00000000000000000000000000000000000000000000000000000000000000009160018060a01b03807f00000000000000000000000000000000000000000000000000000000000000001690604091825191602095868401976323b872dd60e01b895260249433868201528460448201528a60648201526064815260a0810181811067ffffffffffffffff82111761128e5787525160009989918b9182855af1156112845788513d61127b57508281163b155b611263575090606487928987519586948593637ce2845760e11b85527f00000000000000000000000000000000000000000000000000000000000000006004860152169c8d8985015260448401525af1908115611259579084918791611224575b50036111f15785156111dc5750907fddf252ad1be2c89b69c2b068fc378daa952ba7f163c4a11628f55a4df523b3ef92916111c3826002546112a3565b60025585855284835280852082815401905551908152a3565b815163ec442f0560e01b815260048101869052fd5b600e8491606493519262461bcd60e51b845260048401528201526d0e6d0c2e4ca40dad2e6dac2e8c6d60931b6044820152fd5b809250868092503d8311611252575b61123d8183610bdb565b8101031261124e5783905138611186565b8580fd5b503d611233565b83513d88823e3d90fd5b8551635274afe760e01b815292166004830152509050fd5b60011415611125565b85513d8a823e3d90fd5b86634e487b7160e01b60005260416004526000fd5b91908201809211610d1c57565b91906112c76112bd610c13565b6002549085610e64565b6001600160a01b0383811692909133849003611432575b83156110335760009380855284602052604095868620549088821061140157509087869282845283602052038783205587600254036002557fddf252ad1be2c89b69c2b068fc378daa952ba7f163c4a11628f55a4df523b3ef602088518a8152a3827f00000000000000000000000000000000000000000000000000000000000000001690813b156113fd5791846084928195948851998a96879563b1ad9de960e01b87527f00000000000000000000000000000000000000000000000000000000000000006004880152166024860152604485015260648401525af180156113f1576113ca57505050565b67ffffffffffffffff83116113dd575052565b634e487b7160e01b81526041600452602490fd5b509051903d90823e3d90fd5b8480fd5b875163391434e360e21b81526001600160a01b03919091166004820152602481019190915260448101889052606490fd5b61143d863387610e9b565b6112de56fea2646970667358221220a6c439984c31f7b440cc0dcd62ebf65d8cd89a0771d98d4a41b23e2ac3e84fc664736f6c63430008180033a26469706673582212204abf793c771494952d968a05b5f5c028a652b8de382e070a5e59095587a428c664736f6c63430008180033","linkReferences":{}},"methodIdentifiers":{"azuroLP()":"846aaec1","azuroRelayer()":"d1264b7d","betIdByToken(uint256)":"d8914cac","betToken()":"78691f16","bets(uint256)":"22af00fa","cancelVaultBetPreparation(uint256)":"865817c4","completeVaultBet(uint256,address,uint256,uint256,uint128,uint128)":"ab008ee8","createVault(string,string)":"a390d7e1","defaultCore()":"af26a7cb","deployer()":"d5f39488","depositFor(uint256,address,uint256)":"f9c508ae","getVaultBet(uint256)":"33933fc0","getVaultBetIds(uint256)":"85b0650c","isValidSignature(bytes32,bytes)":"1626ba7e","isWhitelisted(address)":"3af32abf","lookupTipsterByName(string)":"5980d6e9","pendingVaultBets(uint256)":"d35c2322","placeBet(uint256,address,uint128,(address,(uint256,uint256,uint8,uint64[],uint128[],uint128,uint8)[],uint8,address,bytes,bytes,bytes),bytes)":"91b8ebc9","prepareVaultBet(uint256,uint128,uint128,bytes32,uint64)":"d4b8876e","recoverOrphanVaultBet(uint256,address,uint256,uint256,uint128,uint128,uint128)":"81d1cf05","registerTipsterName(string,bytes32,bytes32)":"aa8ba7d8","removeWhitelistAddress(address)":"b7ecbaae","settleBet(uint256,uint256)":"0d2cbe13","syncVault(uint256)":"d5a73b2c","tipsterNameOwner(bytes32)":"fca1f899","tipsterNames(address)":"7dc01dfe","tipsterOf(uint256)":"bb704267","tipsterPubKeyX(address)":"e6807d8b","tipsterPubKeyY(address)":"2c591579","vaultCount()":"a7c6a100","vaultFreeBalance(uint256)":"99ab0003","vaultIdOfTipster(address)":"e45f4803","vaultOf(uint256)":"daa0bfba","vaultTotalAssets(uint256)":"cd4a6b7f","whitelistAddress(address)":"41566585","whitelisted(address)":"d936547e","withdrawAssets(uint256,address,uint256,uint256)":"b1ad9de9"},"id":46}