{"abi":[{"type":"constructor","inputs":[{"name":"singleton_","type":"address","internalType":"address"},{"name":"vaultId_","type":"uint256","internalType":"uint256"},{"name":"tipster_","type":"address","internalType":"address"},{"name":"name_","type":"string","internalType":"string"},{"name":"symbol_","type":"string","internalType":"string"}],"stateMutability":"nonpayable"},{"type":"function","name":"allowance","inputs":[{"name":"owner","type":"address","internalType":"address"},{"name":"spender","type":"address","internalType":"address"}],"outputs":[{"name":"","type":"uint256","internalType":"uint256"}],"stateMutability":"view"},{"type":"function","name":"approve","inputs":[{"name":"spender","type":"address","internalType":"address"},{"name":"value","type":"uint256","internalType":"uint256"}],"outputs":[{"name":"","type":"bool","internalType":"bool"}],"stateMutability":"nonpayable"},{"type":"function","name":"asset","inputs":[],"outputs":[{"name":"","type":"address","internalType":"address"}],"stateMutability":"view"},{"type":"function","name":"balanceOf","inputs":[{"name":"account","type":"address","internalType":"address"}],"outputs":[{"name":"","type":"uint256","internalType":"uint256"}],"stateMutability":"view"},{"type":"function","name":"convertToAssets","inputs":[{"name":"shares","type":"uint256","internalType":"uint256"}],"outputs":[{"name":"","type":"uint256","internalType":"uint256"}],"stateMutability":"view"},{"type":"function","name":"convertToShares","inputs":[{"name":"assets","type":"uint256","internalType":"uint256"}],"outputs":[{"name":"","type":"uint256","internalType":"uint256"}],"stateMutability":"view"},{"type":"function","name":"decimals","inputs":[],"outputs":[{"name":"","type":"uint8","internalType":"uint8"}],"stateMutability":"view"},{"type":"function","name":"deposit","inputs":[{"name":"assets","type":"uint256","internalType":"uint256"},{"name":"receiver","type":"address","internalType":"address"}],"outputs":[{"name":"shares","type":"uint256","internalType":"uint256"}],"stateMutability":"nonpayable"},{"type":"function","name":"maxDeposit","inputs":[{"name":"","type":"address","internalType":"address"}],"outputs":[{"name":"","type":"uint256","internalType":"uint256"}],"stateMutability":"pure"},{"type":"function","name":"maxMint","inputs":[{"name":"","type":"address","internalType":"address"}],"outputs":[{"name":"","type":"uint256","internalType":"uint256"}],"stateMutability":"pure"},{"type":"function","name":"maxRedeem","inputs":[{"name":"owner","type":"address","internalType":"address"}],"outputs":[{"name":"","type":"uint256","internalType":"uint256"}],"stateMutability":"view"},{"type":"function","name":"maxWithdraw","inputs":[{"name":"owner","type":"address","internalType":"address"}],"outputs":[{"name":"","type":"uint256","internalType":"uint256"}],"stateMutability":"view"},{"type":"function","name":"mint","inputs":[{"name":"shares","type":"uint256","internalType":"uint256"},{"name":"receiver","type":"address","internalType":"address"}],"outputs":[{"name":"assets","type":"uint256","internalType":"uint256"}],"stateMutability":"nonpayable"},{"type":"function","name":"name","inputs":[],"outputs":[{"name":"","type":"string","internalType":"string"}],"stateMutability":"view"},{"type":"function","name":"previewDeposit","inputs":[{"name":"assets","type":"uint256","internalType":"uint256"}],"outputs":[{"name":"","type":"uint256","internalType":"uint256"}],"stateMutability":"view"},{"type":"function","name":"previewMint","inputs":[{"name":"shares","type":"uint256","internalType":"uint256"}],"outputs":[{"name":"","type":"uint256","internalType":"uint256"}],"stateMutability":"view"},{"type":"function","name":"previewRedeem","inputs":[{"name":"shares","type":"uint256","internalType":"uint256"}],"outputs":[{"name":"","type":"uint256","internalType":"uint256"}],"stateMutability":"view"},{"type":"function","name":"previewWithdraw","inputs":[{"name":"assets","type":"uint256","internalType":"uint256"}],"outputs":[{"name":"","type":"uint256","internalType":"uint256"}],"stateMutability":"view"},{"type":"function","name":"redeem","inputs":[{"name":"shares","type":"uint256","internalType":"uint256"},{"name":"receiver","type":"address","internalType":"address"},{"name":"owner","type":"address","internalType":"address"}],"outputs":[{"name":"assets","type":"uint256","internalType":"uint256"}],"stateMutability":"nonpayable"},{"type":"function","name":"singleton","inputs":[],"outputs":[{"name":"","type":"address","internalType":"contract ThetaSingleton"}],"stateMutability":"view"},{"type":"function","name":"symbol","inputs":[],"outputs":[{"name":"","type":"string","internalType":"string"}],"stateMutability":"view"},{"type":"function","name":"tipster","inputs":[],"outputs":[{"name":"","type":"address","internalType":"address"}],"stateMutability":"view"},{"type":"function","name":"totalAssets","inputs":[],"outputs":[{"name":"","type":"uint256","internalType":"uint256"}],"stateMutability":"view"},{"type":"function","name":"totalSupply","inputs":[],"outputs":[{"name":"","type":"uint256","internalType":"uint256"}],"stateMutability":"view"},{"type":"function","name":"transfer","inputs":[{"name":"to","type":"address","internalType":"address"},{"name":"value","type":"uint256","internalType":"uint256"}],"outputs":[{"name":"","type":"bool","internalType":"bool"}],"stateMutability":"nonpayable"},{"type":"function","name":"transferFrom","inputs":[{"name":"from","type":"address","internalType":"address"},{"name":"to","type":"address","internalType":"address"},{"name":"value","type":"uint256","internalType":"uint256"}],"outputs":[{"name":"","type":"bool","internalType":"bool"}],"stateMutability":"nonpayable"},{"type":"function","name":"vaultId","inputs":[],"outputs":[{"name":"","type":"uint256","internalType":"uint256"}],"stateMutability":"view"},{"type":"function","name":"withdraw","inputs":[{"name":"assets","type":"uint256","internalType":"uint256"},{"name":"receiver","type":"address","internalType":"address"},{"name":"owner","type":"address","internalType":"address"}],"outputs":[{"name":"shares","type":"uint256","internalType":"uint256"}],"stateMutability":"nonpayable"},{"type":"event","name":"Approval","inputs":[{"name":"owner","type":"address","indexed":true,"internalType":"address"},{"name":"spender","type":"address","indexed":true,"internalType":"address"},{"name":"value","type":"uint256","indexed":false,"internalType":"uint256"}],"anonymous":false},{"type":"event","name":"Deposit","inputs":[{"name":"sender","type":"address","indexed":true,"internalType":"address"},{"name":"owner","type":"address","indexed":true,"internalType":"address"},{"name":"assets","type":"uint256","indexed":false,"internalType":"uint256"},{"name":"shares","type":"uint256","indexed":false,"internalType":"uint256"}],"anonymous":false},{"type":"event","name":"Transfer","inputs":[{"name":"from","type":"address","indexed":true,"internalType":"address"},{"name":"to","type":"address","indexed":true,"internalType":"address"},{"name":"value","type":"uint256","indexed":false,"internalType":"uint256"}],"anonymous":false},{"type":"event","name":"Withdraw","inputs":[{"name":"sender","type":"address","indexed":true,"internalType":"address"},{"name":"receiver","type":"address","indexed":true,"internalType":"address"},{"name":"owner","type":"address","indexed":true,"internalType":"address"},{"name":"assets","type":"uint256","indexed":false,"internalType":"uint256"},{"name":"shares","type":"uint256","indexed":false,"internalType":"uint256"}],"anonymous":false},{"type":"error","name":"ERC20InsufficientAllowance","inputs":[{"name":"spender","type":"address","internalType":"address"},{"name":"allowance","type":"uint256","internalType":"uint256"},{"name":"needed","type":"uint256","internalType":"uint256"}]},{"type":"error","name":"ERC20InsufficientBalance","inputs":[{"name":"sender","type":"address","internalType":"address"},{"name":"balance","type":"uint256","internalType":"uint256"},{"name":"needed","type":"uint256","internalType":"uint256"}]},{"type":"error","name":"ERC20InvalidApprover","inputs":[{"name":"approver","type":"address","internalType":"address"}]},{"type":"error","name":"ERC20InvalidReceiver","inputs":[{"name":"receiver","type":"address","internalType":"address"}]},{"type":"error","name":"ERC20InvalidSender","inputs":[{"name":"sender","type":"address","internalType":"address"}]},{"type":"error","name":"ERC20InvalidSpender","inputs":[{"name":"spender","type":"address","internalType":"address"}]},{"type":"error","name":"NotWhitelisted","inputs":[]},{"type":"error","name":"OnlySingleton","inputs":[]},{"type":"error","name":"ReentrancyGuardReentrantCall","inputs":[]},{"type":"error","name":"SafeERC20FailedOperation","inputs":[{"name":"token","type":"address","internalType":"address"}]}],"bytecode":{"object":"0x61010080604052346200046c5762001999803803809162000021828562000471565b8339810160a0828203126200046c576200003b8262000495565b9060209081840151620000516040860162000495565b60608601516001600160401b0396908781116200046c578462000076918301620004aa565b9360808201518881116200046c57620000909201620004aa565b928051968088116200036c576003978854906001938483811c9316801562000461575b898410146200044b578190601f93848111620003f5575b5089908483116001146200038e5760009262000382575b5050600019828c1b1c191690841b1789555b85519182116200036c5760049586548481811c9116801562000361575b898210146200034c5782811162000301575b5087918311600114620002915798829188999a60009998999362000285575b505082841b92600019911b1c19161785555b6005556001600160a01b03958616608081905260a09290925260c052604051633c348f8b60e11b815292839182905afa918215620002795760009262000235575b8260e052604051611478908162000521823960805181818161023d0152818161033a01528181610409015281816104660152818161067a0152818161077201528181610c4e01528181610db10152818161109d0152611342015260a0518181816102180152818161085901528181610c2201528181610d7a015281816111430152611385015260c051816102d5015260e05181818161081301526110730152f35b81813d831162000271575b6200024c818362000471565b810103126200026d575191821682036200026a575080388062000194565b80fd5b5080fd5b503d62000240565b6040513d6000823e3d90fd5b01519150388062000141565b98601f1983169187600052886000209260005b818110620002eb575090899a9b8587969594939b9a9b10620002d0575b50505050811b01855562000153565b01519060f884600019921b161c1916905538808080620002c1565b8c830151855593860193918a01918a01620002a4565b87600052886000208380860160051c8201928b871062000342575b0160051c019085905b8281106200033557505062000122565b6000815501859062000325565b925081926200031c565b602288634e487b7160e01b6000525260246000fd5b90607f169062000110565b634e487b7160e01b600052604160045260246000fd5b015190503880620000e1565b90869350601f198316918d6000528b6000209260005b8d828210620003de5750508411620003c5575b505050811b018955620000f3565b0151600019838e1b60f8161c19169055388080620003b7565b8385015186558a97909501949384019301620003a4565b9091508b600052896000208480850160051c8201928c861062000441575b918891869594930160051c01915b82811062000431575050620000ca565b6000815585945088910162000421565b9250819262000413565b634e487b7160e01b600052602260045260246000fd5b92607f1692620000b3565b600080fd5b601f909101601f19168101906001600160401b038211908210176200036c57604052565b51906001600160a01b03821682036200046c57565b919080601f840112156200046c5782516001600160401b0381116200036c5760209060405192620004e583601f19601f850116018562000471565b8184528282870101116200046c5760005b8181106200050c57508260009394955001015290565b8581018301518482018401528201620004f656fe6040608081526004908136101561001557600080fd5b600090813560e01c92836301e1d11414610a8e57836306fdde031461099957836307a2d13a146107fa578363095ea7b3146108f15783630a28a4771461015957836318160ddd146108d357836323b872dd14610897578363313ce5671461087c57836333194c0a1461084257836338d52e0f146107ff578363402d267d146103045783634cdad506146107fa5783636e553f651461073957836370a082311461070357836394bf804d1461064157836395d89b411461053c578363a9059cbb1461050c578363b3d7f6b9146104ed578363b460af9414610438578363b62654fb146103f5578363ba08765214610309578363c63d75b614610304578363c6e6f59214610159578363ce0b4ed0146102c1578363ce96cb77146101d457508263d905777e146101a9578263dd62ed3e1461015e57505063ef8b30f71461015957600080fd5b610b56565b346101a557806003193601126101a5578060209261017a610b2a565b610182610b40565b6001600160a01b0391821683526001865283832091168252845220549051908152f35b5080fd5b346101a55760203660031901126101a5576020906101cd6101c8610b2a565b610d6b565b9051908152f35b346102bd57602092836003193601126102a8576001600160a01b03806101f8610b2a565b16825281855284848320549360248651809481936399ab000360e01b83527f0000000000000000000000000000000000000000000000000000000000000000908301527f0000000000000000000000000000000000000000000000000000000000000000165afa9182156102b257809261027d575b5050906101cd9160025491610e64565b9091508482813d83116102ab575b6102958183610bdb565b810103126102a85750516101cd8561026d565b80fd5b503d61028b565b8451903d90823e3d90fd5b8280fd5b50346101a557816003193601126101a557517f00000000000000000000000000000000000000000000000000000000000000006001600160a01b03168152602090f35b610b80565b9250346101a55761031936610ba6565b8351633af32abf60e01b8152338188015290959294919291906020816024817f00000000000000000000000000000000000000000000000000000000000000006001600160a01b03165afa9182156103ea57916103bb575b50156103ad57506020936103a29161038761104c565b61039c610392610c13565b6002549087610e64565b946112b0565b600160055551908152f35b8251630b094f2760e31b8152fd5b6103dd915060203d6020116103e3575b6103d58183610bdb565b810190610cc5565b38610371565b503d6103cb565b8551903d90823e3d90fd5b50346101a557816003193601126101a557517f00000000000000000000000000000000000000000000000000000000000000006001600160a01b03168152602090f35b9250346101a55761044836610ba6565b8351633af32abf60e01b8152338188015290959194906020816024817f00000000000000000000000000000000000000000000000000000000000000006001600160a01b03165afa9182156103ea57916104ce575b50156103ad57506020936104c76103a2926104b661104c565b6104be610c13565b60025491610e82565b93846112b0565b6104e7915060203d6020116103e3576103d58183610bdb565b3861049d565b91346102a85760203660031901126102a857506101cd60209235610cdd565b50346101a557806003193601126101a55760209061053561052b610b2a565b6024359033610f6e565b5160018152f35b9250346101a557816003193601126101a55780519180938054916001908360011c9260018516948515610637575b60209586861081146106245785895290811561060057506001146105a8575b6105a4878761059a828c0383610bdb565b5191829182610aaa565b0390f35b81529295507f8a35acfbc15ff81a39ae7d344fd709f28e8600b4aa8c65c6b64bfe7fe36bd19b5b8284106105ed57505050826105a49461059a92820101943880610589565b80548685018801529286019281016105cf565b60ff19168887015250505050151560051b830101925061059a826105a43880610589565b634e487b7160e01b845260228352602484fd5b93607f169361056a565b9250346101a557806003193601126101a55782359261065e610b40565b8251633af32abf60e01b815233838201529093906020816024817f00000000000000000000000000000000000000000000000000000000000000006001600160a01b03165afa9182156102b257916106e4575b50156106d657506103a26020936106c661104c565b6106cf81610cdd565b938461106f565b9051630b094f2760e31b8152fd5b6106fd915060203d6020116103e3576103d58183610bdb565b386106b1565b50346101a55760203660031901126101a55760209181906001600160a01b0361072a610b2a565b16815280845220549051908152f35b9250346101a557806003193601126101a557823592610756610b40565b8251633af32abf60e01b815233838201529093906020816024817f00000000000000000000000000000000000000000000000000000000000000006001600160a01b03165afa9182156102b257916107db575b50156106d657506103a26020936107be61104c565b6107d36107c9610c13565b6002549083610e82565b93849161106f565b6107f4915060203d6020116103e3576103d58183610bdb565b386107a9565b610af3565b50346101a557816003193601126101a557517f00000000000000000000000000000000000000000000000000000000000000006001600160a01b03168152602090f35b50346101a557816003193601126101a557602090517f00000000000000000000000000000000000000000000000000000000000000008152f35b50346101a557816003193601126101a5576020905160128152f35b50346101a55760603660031901126101a5576020906105356108b7610b2a565b6108bf610b40565b604435916108ce833383610e9b565b610f6e565b50346101a557816003193601126101a5576020906002549051908152f35b346102bd57816003193601126102bd57610909610b2a565b602435903315610982576001600160a01b031691821561096b57508083602095338152600187528181208582528752205582519081527f8c5be1e5ebec7d5bd14f71427d1e84f3dd0314c0f7b2291e5b200ac8c7c3b925843392a35160018152f35b8351634a1406b160e11b8152908101859052602490fd5b835163e602df0560e01b8152808401869052602490fd5b90346102bd57826003193601126102bd5780519183600354906001908260011c92600181168015610a84575b6020958686108214610a715750848852908115610a4f57506001146109f6575b6105a4868661059a828b0383610bdb565b929550600383527fc2575a0e9e593c00f959f8c92f12db2869c3395a3b0502d05e2516446f71f85b5b828410610a3c57505050826105a49461059a9282010194866109e5565b8054868501880152928601928101610a1f565b60ff191687860152505050151560051b830101925061059a826105a4866109e5565b634e487b7160e01b845260229052602483fd5b93607f16936109c5565b50346101a557816003193601126101a5576020906101cd610c13565b6020808252825181830181905290939260005b828110610adf57505060409293506000838284010152601f8019910116010190565b818101860151848201604001528501610abd565b34610b25576020366003190112610b25576020610b1d610b11610c13565b60025490600435610e64565b604051908152f35b600080fd5b600435906001600160a01b0382168203610b2557565b602435906001600160a01b0382168203610b2557565b34610b25576020366003190112610b25576020610b1d610b74610c13565b60025490600435610e82565b34610b25576020366003190112610b2557610b99610b2a565b5060206040516000198152f35b6060906003190112610b2557600435906001600160a01b03906024358281168103610b2557916044359081168103610b255790565b90601f8019910116810190811067ffffffffffffffff821117610bfd57604052565b634e487b7160e01b600052604160045260246000fd5b60405163cd4a6b7f60e01b81527f000000000000000000000000000000000000000000000000000000000000000060048201526020816024817f00000000000000000000000000000000000000000000000000000000000000006001600160a01b03165afa908115610cb957600091610c8a575090565b90506020813d602011610cb1575b81610ca560209383610bdb565b81010312610b25575190565b3d9150610c98565b6040513d6000823e3d90fd5b90816020910312610b2557518015158103610b255790565b60025490610ce9610c13565b908215610d3257610cfe610d03928492610d38565b6112a3565b600019810191908211610d1c57610d1991610d4b565b90565b634e487b7160e01b600052601160045260246000fd5b91505090565b81810292918115918404141715610d1c57565b8115610d55570490565b634e487b7160e01b600052601260045260246000fd5b6040516399ab000360e01b81527f000000000000000000000000000000000000000000000000000000000000000060048201526020916001600160a01b039083836024817f000000000000000000000000000000000000000000000000000000000000000086165afa928315610cb957600093610e35575b5016918260005260008152610e08604060002054610dff610c13565b60025491610e64565b918215610e2c576000610e2792610d1995825252604060002054610d38565b610d4b565b50505050600090565b9092508381813d8311610e5d575b610e4d8183610bdb565b81010312610b2557519138610de3565b503d610e43565b9190918115610e7a57610d1992610e2791610d38565b505050600090565b8215610d32578115610e7a57610d1992610e2791610d38565b9160018060a01b038093169160009383855260016020526040938486209183169182875260205284862054926000198403610eda575b50505050505050565b848410610f3e57508015610f26578115610f0e57855260016020528385209085526020520391205538808080808080610ed1565b8451634a1406b160e11b815260048101879052602490fd5b845163e602df0560e01b815260048101879052602490fd5b8551637dc7a0d960e11b81526001600160a01b039190911660048201526024810184905260448101859052606490fd5b916001600160a01b03808416928315611033571692831561101a5760009083825281602052604082205490838210610fe8575091604082827fddf252ad1be2c89b69c2b068fc378daa952ba7f163c4a11628f55a4df523b3ef958760209652828652038282205586815220818154019055604051908152a3565b60405163391434e360e21b81526001600160a01b03919091166004820152602481019190915260448101839052606490fd5b60405163ec442f0560e01b815260006004820152602490fd5b604051634b637e8f60e11b815260006004820152602490fd5b60026005541461105d576002600555565b604051633ee5aeb560e01b8152600490fd5b91907f00000000000000000000000000000000000000000000000000000000000000009160018060a01b03807f00000000000000000000000000000000000000000000000000000000000000001690604091825191602095868401976323b872dd60e01b895260249433868201528460448201528a60648201526064815260a0810181811067ffffffffffffffff82111761128e5787525160009989918b9182855af1156112845788513d61127b57508281163b155b611263575090606487928987519586948593637ce2845760e11b85527f00000000000000000000000000000000000000000000000000000000000000006004860152169c8d8985015260448401525af1908115611259579084918791611224575b50036111f15785156111dc5750907fddf252ad1be2c89b69c2b068fc378daa952ba7f163c4a11628f55a4df523b3ef92916111c3826002546112a3565b60025585855284835280852082815401905551908152a3565b815163ec442f0560e01b815260048101869052fd5b600e8491606493519262461bcd60e51b845260048401528201526d0e6d0c2e4ca40dad2e6dac2e8c6d60931b6044820152fd5b809250868092503d8311611252575b61123d8183610bdb565b8101031261124e5783905138611186565b8580fd5b503d611233565b83513d88823e3d90fd5b8551635274afe760e01b815292166004830152509050fd5b60011415611125565b85513d8a823e3d90fd5b86634e487b7160e01b60005260416004526000fd5b91908201809211610d1c57565b91906112c76112bd610c13565b6002549085610e64565b6001600160a01b0383811692909133849003611432575b83156110335760009380855284602052604095868620549088821061140157509087869282845283602052038783205587600254036002557fddf252ad1be2c89b69c2b068fc378daa952ba7f163c4a11628f55a4df523b3ef602088518a8152a3827f00000000000000000000000000000000000000000000000000000000000000001690813b156113fd5791846084928195948851998a96879563b1ad9de960e01b87527f00000000000000000000000000000000000000000000000000000000000000006004880152166024860152604485015260648401525af180156113f1576113ca57505050565b67ffffffffffffffff83116113dd575052565b634e487b7160e01b81526041600452602490fd5b509051903d90823e3d90fd5b8480fd5b875163391434e360e21b81526001600160a01b03919091166004820152602481019190915260448101889052606490fd5b61143d863387610e9b565b6112de56fea2646970667358221220a6c439984c31f7b440cc0dcd62ebf65d8cd89a0771d98d4a41b23e2ac3e84fc664736f6c63430008180033","linkReferences":{}},"methodIdentifiers":{"allowance(address,address)":"dd62ed3e","approve(address,uint256)":"095ea7b3","asset()":"38d52e0f","balanceOf(address)":"70a08231","convertToAssets(uint256)":"07a2d13a","convertToShares(uint256)":"c6e6f592","decimals()":"313ce567","deposit(uint256,address)":"6e553f65","maxDeposit(address)":"402d267d","maxMint(address)":"c63d75b6","maxRedeem(address)":"d905777e","maxWithdraw(address)":"ce96cb77","mint(uint256,address)":"94bf804d","name()":"06fdde03","previewDeposit(uint256)":"ef8b30f7","previewMint(uint256)":"b3d7f6b9","previewRedeem(uint256)":"4cdad506","previewWithdraw(uint256)":"0a28a477","redeem(uint256,address,address)":"ba087652","singleton()":"b62654fb","symbol()":"95d89b41","tipster()":"ce0b4ed0","totalAssets()":"01e1d114","totalSupply()":"18160ddd","transfer(address,uint256)":"a9059cbb","transferFrom(address,address,uint256)":"23b872dd","vaultId()":"33194c0a","withdraw(uint256,address,address)":"b460af94"},"id":47}