{"abi":[{"type":"constructor","inputs":[{"name":"singleton_","type":"address","internalType":"address"},{"name":"vaultId_","type":"uint256","internalType":"uint256"},{"name":"tipster_","type":"address","internalType":"address"},{"name":"name_","type":"string","internalType":"string"},{"name":"symbol_","type":"string","internalType":"string"}],"stateMutability":"nonpayable"},{"type":"function","name":"allowance","inputs":[{"name":"owner","type":"address","internalType":"address"},{"name":"spender","type":"address","internalType":"address"}],"outputs":[{"name":"","type":"uint256","internalType":"uint256"}],"stateMutability":"view"},{"type":"function","name":"approve","inputs":[{"name":"spender","type":"address","internalType":"address"},{"name":"value","type":"uint256","internalType":"uint256"}],"outputs":[{"name":"","type":"bool","internalType":"bool"}],"stateMutability":"nonpayable"},{"type":"function","name":"asset","inputs":[],"outputs":[{"name":"","type":"address","internalType":"address"}],"stateMutability":"view"},{"type":"function","name":"balanceOf","inputs":[{"name":"account","type":"address","internalType":"address"}],"outputs":[{"name":"","type":"uint256","internalType":"uint256"}],"stateMutability":"view"},{"type":"function","name":"convertToAssets","inputs":[{"name":"shares","type":"uint256","internalType":"uint256"}],"outputs":[{"name":"","type":"uint256","internalType":"uint256"}],"stateMutability":"view"},{"type":"function","name":"convertToShares","inputs":[{"name":"assets","type":"uint256","internalType":"uint256"}],"outputs":[{"name":"","type":"uint256","internalType":"uint256"}],"stateMutability":"view"},{"type":"function","name":"decimals","inputs":[],"outputs":[{"name":"","type":"uint8","internalType":"uint8"}],"stateMutability":"view"},{"type":"function","name":"deposit","inputs":[{"name":"assets","type":"uint256","internalType":"uint256"},{"name":"receiver","type":"address","internalType":"address"}],"outputs":[{"name":"shares","type":"uint256","internalType":"uint256"}],"stateMutability":"nonpayable"},{"type":"function","name":"maxDeposit","inputs":[{"name":"","type":"address","internalType":"address"}],"outputs":[{"name":"","type":"uint256","internalType":"uint256"}],"stateMutability":"pure"},{"type":"function","name":"maxMint","inputs":[{"name":"","type":"address","internalType":"address"}],"outputs":[{"name":"","type":"uint256","internalType":"uint256"}],"stateMutability":"pure"},{"type":"function","name":"maxRedeem","inputs":[{"name":"owner","type":"address","internalType":"address"}],"outputs":[{"name":"","type":"uint256","internalType":"uint256"}],"stateMutability":"view"},{"type":"function","name":"maxWithdraw","inputs":[{"name":"owner","type":"address","internalType":"address"}],"outputs":[{"name":"","type":"uint256","internalType":"uint256"}],"stateMutability":"view"},{"type":"function","name":"mint","inputs":[{"name":"shares","type":"uint256","internalType":"uint256"},{"name":"receiver","type":"address","internalType":"address"}],"outputs":[{"name":"assets","type":"uint256","internalType":"uint256"}],"stateMutability":"nonpayable"},{"type":"function","name":"name","inputs":[],"outputs":[{"name":"","type":"string","internalType":"string"}],"stateMutability":"view"},{"type":"function","name":"previewDeposit","inputs":[{"name":"assets","type":"uint256","internalType":"uint256"}],"outputs":[{"name":"","type":"uint256","internalType":"uint256"}],"stateMutability":"view"},{"type":"function","name":"previewMint","inputs":[{"name":"shares","type":"uint256","internalType":"uint256"}],"outputs":[{"name":"","type":"uint256","internalType":"uint256"}],"stateMutability":"view"},{"type":"function","name":"previewRedeem","inputs":[{"name":"shares","type":"uint256","internalType":"uint256"}],"outputs":[{"name":"","type":"uint256","internalType":"uint256"}],"stateMutability":"view"},{"type":"function","name":"previewWithdraw","inputs":[{"name":"assets","type":"uint256","internalType":"uint256"}],"outputs":[{"name":"","type":"uint256","internalType":"uint256"}],"stateMutability":"view"},{"type":"function","name":"redeem","inputs":[{"name":"shares","type":"uint256","internalType":"uint256"},{"name":"receiver","type":"address","internalType":"address"},{"name":"owner","type":"address","internalType":"address"}],"outputs":[{"name":"assets","type":"uint256","internalType":"uint256"}],"stateMutability":"nonpayable"},{"type":"function","name":"singleton","inputs":[],"outputs":[{"name":"","type":"address","internalType":"contract ThetaSingleton"}],"stateMutability":"view"},{"type":"function","name":"symbol","inputs":[],"outputs":[{"name":"","type":"string","internalType":"string"}],"stateMutability":"view"},{"type":"function","name":"tipster","inputs":[],"outputs":[{"name":"","type":"address","internalType":"address"}],"stateMutability":"view"},{"type":"function","name":"totalAssets","inputs":[],"outputs":[{"name":"","type":"uint256","internalType":"uint256"}],"stateMutability":"view"},{"type":"function","name":"totalSupply","inputs":[],"outputs":[{"name":"","type":"uint256","internalType":"uint256"}],"stateMutability":"view"},{"type":"function","name":"transfer","inputs":[{"name":"to","type":"address","internalType":"address"},{"name":"value","type":"uint256","internalType":"uint256"}],"outputs":[{"name":"","type":"bool","internalType":"bool"}],"stateMutability":"nonpayable"},{"type":"function","name":"transferFrom","inputs":[{"name":"from","type":"address","internalType":"address"},{"name":"to","type":"address","internalType":"address"},{"name":"value","type":"uint256","internalType":"uint256"}],"outputs":[{"name":"","type":"bool","internalType":"bool"}],"stateMutability":"nonpayable"},{"type":"function","name":"vaultId","inputs":[],"outputs":[{"name":"","type":"uint256","internalType":"uint256"}],"stateMutability":"view"},{"type":"function","name":"withdraw","inputs":[{"name":"assets","type":"uint256","internalType":"uint256"},{"name":"receiver","type":"address","internalType":"address"},{"name":"owner","type":"address","internalType":"address"}],"outputs":[{"name":"shares","type":"uint256","internalType":"uint256"}],"stateMutability":"nonpayable"},{"type":"event","name":"Approval","inputs":[{"name":"owner","type":"address","indexed":true,"internalType":"address"},{"name":"spender","type":"address","indexed":true,"internalType":"address"},{"name":"value","type":"uint256","indexed":false,"internalType":"uint256"}],"anonymous":false},{"type":"event","name":"Deposit","inputs":[{"name":"sender","type":"address","indexed":true,"internalType":"address"},{"name":"owner","type":"address","indexed":true,"internalType":"address"},{"name":"assets","type":"uint256","indexed":false,"internalType":"uint256"},{"name":"shares","type":"uint256","indexed":false,"internalType":"uint256"}],"anonymous":false},{"type":"event","name":"Transfer","inputs":[{"name":"from","type":"address","indexed":true,"internalType":"address"},{"name":"to","type":"address","indexed":true,"internalType":"address"},{"name":"value","type":"uint256","indexed":false,"internalType":"uint256"}],"anonymous":false},{"type":"event","name":"Withdraw","inputs":[{"name":"sender","type":"address","indexed":true,"internalType":"address"},{"name":"receiver","type":"address","indexed":true,"internalType":"address"},{"name":"owner","type":"address","indexed":true,"internalType":"address"},{"name":"assets","type":"uint256","indexed":false,"internalType":"uint256"},{"name":"shares","type":"uint256","indexed":false,"internalType":"uint256"}],"anonymous":false},{"type":"error","name":"ERC20InsufficientAllowance","inputs":[{"name":"spender","type":"address","internalType":"address"},{"name":"allowance","type":"uint256","internalType":"uint256"},{"name":"needed","type":"uint256","internalType":"uint256"}]},{"type":"error","name":"ERC20InsufficientBalance","inputs":[{"name":"sender","type":"address","internalType":"address"},{"name":"balance","type":"uint256","internalType":"uint256"},{"name":"needed","type":"uint256","internalType":"uint256"}]},{"type":"error","name":"ERC20InvalidApprover","inputs":[{"name":"approver","type":"address","internalType":"address"}]},{"type":"error","name":"ERC20InvalidReceiver","inputs":[{"name":"receiver","type":"address","internalType":"address"}]},{"type":"error","name":"ERC20InvalidSender","inputs":[{"name":"sender","type":"address","internalType":"address"}]},{"type":"error","name":"ERC20InvalidSpender","inputs":[{"name":"spender","type":"address","internalType":"address"}]},{"type":"error","name":"NotWhitelisted","inputs":[]},{"type":"error","name":"OnlySingleton","inputs":[]},{"type":"error","name":"ReentrancyGuardReentrantCall","inputs":[]},{"type":"error","name":"SafeERC20FailedOperation","inputs":[{"name":"token","type":"address","internalType":"address"}]}],"bytecode":{"object":"0x6101006040523480156200001257600080fd5b50604051620019b4380380620019b48339810160408190526200003591620001d2565b8181600362000045838262000302565b50600462000054828262000302565b50506001600555506001600160a01b03808616608081905260a086905290841660c05260408051633c348f8b60e11b815290516378691f16916004808201926020929091908290030181865afa158015620000b3573d6000803e3d6000fd5b505050506040513d601f19601f82011682018060405250810190620000d99190620003ce565b6001600160a01b031660e05250620003f59350505050565b6001600160a01b03811681146200010757600080fd5b50565b634e487b7160e01b600052604160045260246000fd5b600082601f8301126200013257600080fd5b81516001600160401b03808211156200014f576200014f6200010a565b604051601f8301601f19908116603f011681019082821181831017156200017a576200017a6200010a565b81604052838152602092508660208588010111156200019857600080fd5b600091505b83821015620001bc57858201830151818301840152908201906200019d565b6000602085830101528094505050505092915050565b600080600080600060a08688031215620001eb57600080fd5b8551620001f881620000f1565b6020870151604088015191965094506200021281620000f1565b60608701519093506001600160401b03808211156200023057600080fd5b6200023e89838a0162000120565b935060808801519150808211156200025557600080fd5b50620002648882890162000120565b9150509295509295909350565b600181811c908216806200028657607f821691505b602082108103620002a757634e487b7160e01b600052602260045260246000fd5b50919050565b601f821115620002fd576000816000526020600020601f850160051c81016020861015620002d85750805b601f850160051c820191505b81811015620002f957828155600101620002e4565b5050505b505050565b81516001600160401b038111156200031e576200031e6200010a565b62000336816200032f845462000271565b84620002ad565b602080601f8311600181146200036e5760008415620003555750858301515b600019600386901b1c1916600185901b178555620002f9565b600085815260208120601f198616915b828110156200039f578886015182559484019460019091019084016200037e565b5085821015620003be5787850151600019600388901b60f8161c191681555b5050505050600190811b01905550565b600060208284031215620003e157600080fd5b8151620003ee81620000f1565b9392505050565b60805160a05160c05160e0516115156200049f600039600081816102950152610cc7015260006103b1015260008181610271015281816104410152818161099601528181610a3e01528181610d1e0152610e7e0152600081816103770152818161046a015281816105fc015281816106cc015281816107ec015281816108bc015281816109bc01528181610a7101528181610cea01528181610d5e0152610ec201526115156000f3fe608060405234801561001057600080fd5b50600436106101c45760003560e01c806394bf804d116100f9578063c63d75b611610097578063ce96cb7711610071578063ce96cb77146103d3578063d905777e146103e6578063dd62ed3e146103f9578063ef8b30f71461022f57600080fd5b8063c63d75b6146102cd578063c6e6f5921461022f578063ce0b4ed0146103ac57600080fd5b8063b3d7f6b9116100d3578063b3d7f6b91461034c578063b460af941461035f578063b62654fb14610372578063ba0876521461039957600080fd5b806394bf804d1461031e57806395d89b4114610331578063a9059cbb1461033957600080fd5b8063313ce56711610166578063402d267d11610140578063402d267d146102cd5780634cdad506146101f95780636e553f65146102e257806370a08231146102f557600080fd5b8063313ce5671461025d57806333194c0a1461026c57806338d52e0f1461029357600080fd5b8063095ea7b3116101a2578063095ea7b31461020c5780630a28a4771461022f57806318160ddd1461024257806323b872dd1461024a57600080fd5b806301e1d114146101c957806306fdde03146101e457806307a2d13a146101f9575b600080fd5b6101d1610432565b6040519081526020015b60405180910390f35b6101ec6104e2565b6040516101db919061125e565b6101d16102073660046112ad565b610574565b61021f61021a3660046112e2565b610590565b60405190151581526020016101db565b6101d161023d3660046112ad565b6105a8565b6002546101d1565b61021f61025836600461130c565b6105be565b604051601281526020016101db565b6101d17f000000000000000000000000000000000000000000000000000000000000000081565b7f00000000000000000000000000000000000000000000000000000000000000005b6040516001600160a01b0390911681526020016101db565b6101d16102db366004611348565b5060001990565b6101d16102f0366004611363565b6105e4565b6101d1610303366004611348565b6001600160a01b031660009081526020819052604090205490565b6101d161032c366004611363565b6106b4565b6101ec61077a565b61021f6103473660046112e2565b610789565b6101d161035a3660046112ad565b610797565b6101d161036d36600461138f565b6107d4565b6102b57f000000000000000000000000000000000000000000000000000000000000000081565b6101d16103a736600461138f565b6108a4565b6102b57f000000000000000000000000000000000000000000000000000000000000000081565b6101d16103e1366004611348565b61096a565b6101d16103f4366004611348565b610a2f565b6101d16104073660046113cb565b6001600160a01b03918216600090815260016020908152604080832093909416825291909152205490565b60405163cd4a6b7f60e01b81527f000000000000000000000000000000000000000000000000000000000000000060048201526000907f00000000000000000000000000000000000000000000000000000000000000006001600160a01b03169063cd4a6b7f90602401602060405180830381865afa1580156104b9573d6000803e3d6000fd5b505050506040513d601f19601f820116820180604052508101906104dd91906113f5565b905090565b6060600380546104f19061140e565b80601f016020809104026020016040519081016040528092919081815260200182805461051d9061140e565b801561056a5780601f1061053f5761010080835404028352916020019161056a565b820191906000526020600020905b81548152906001019060200180831161054d57829003601f168201915b5050505050905090565b600061058a82610582610432565b600254610b53565b92915050565b60003361059e818585610b70565b5060019392505050565b600061058a826105b6610432565b600254610b82565b6000336105cc858285610bae565b6105d7858585610c31565b60019150505b9392505050565b604051633af32abf60e01b81523360048201526000907f00000000000000000000000000000000000000000000000000000000000000006001600160a01b031690633af32abf90602401602060405180830381865afa15801561064b573d6000803e3d6000fd5b505050506040513d601f19601f8201168201806040525081019061066f9190611448565b61068c57604051630b094f2760e31b815260040160405180910390fd5b610694610c90565b61069d836105a8565b90506106aa838383610cba565b61058a6001600555565b604051633af32abf60e01b81523360048201526000907f00000000000000000000000000000000000000000000000000000000000000006001600160a01b031690633af32abf90602401602060405180830381865afa15801561071b573d6000803e3d6000fd5b505050506040513d601f19601f8201168201806040525081019061073f9190611448565b61075c57604051630b094f2760e31b815260040160405180910390fd5b610764610c90565b61076d83610797565b90506106aa818385610cba565b6060600480546104f19061140e565b60003361059e818585610c31565b6000806107a360025490565b905060006107af610432565b9050816000036107c157509192915050565b6107cc848284610e19565b949350505050565b604051633af32abf60e01b81523360048201526000907f00000000000000000000000000000000000000000000000000000000000000006001600160a01b031690633af32abf90602401602060405180830381865afa15801561083b573d6000803e3d6000fd5b505050506040513d601f19601f8201168201806040525081019061085f9190611448565b61087c57604051630b094f2760e31b815260040160405180910390fd5b610884610c90565b61088d846105a8565b905061089a818484610e3d565b6105dd6001600555565b604051633af32abf60e01b81523360048201526000907f00000000000000000000000000000000000000000000000000000000000000006001600160a01b031690633af32abf90602401602060405180830381865afa15801561090b573d6000803e3d6000fd5b505050506040513d601f19601f8201168201806040525081019061092f9190611448565b61094c57604051630b094f2760e31b815260040160405180910390fd5b610954610c90565b61095d84610574565b905061089a848484610e3d565b6001600160a01b03811660009081526020819052604081205461058a906040516399ab000360e01b81527f000000000000000000000000000000000000000000000000000000000000000060048201527f00000000000000000000000000000000000000000000000000000000000000006001600160a01b0316906399ab000390602401602060405180830381865afa158015610a0b573d6000803e3d6000fd5b505050506040513d601f19601f8201168201806040525081019061058291906113f5565b6040516399ab000360e01b81527f0000000000000000000000000000000000000000000000000000000000000000600482015260009081906001600160a01b037f000000000000000000000000000000000000000000000000000000000000000016906399ab000390602401602060405180830381865afa158015610ab8573d6000803e3d6000fd5b505050506040513d601f19601f82011682018060405250810190610adc91906113f5565b90506000610b0a610b02856001600160a01b031660009081526020819052604090205490565b610582610432565b905080600003610b1e575060009392505050565b8082610b3f866001600160a01b031660009081526020819052604090205490565b610b499190611480565b6107cc9190611497565b600081600003610b65575060006105dd565b81610b498486611480565b610b7d8383836001610f24565b505050565b600081600003610b935750826105dd565b82600003610ba3575060006105dd565b82610b498386611480565b6001600160a01b038381166000908152600160209081526040808320938616835292905220546000198114610c2b5781811015610c1c57604051637dc7a0d960e11b81526001600160a01b038416600482015260248101829052604481018390526064015b60405180910390fd5b610c2b84848484036000610f24565b50505050565b6001600160a01b038316610c5b57604051634b637e8f60e11b815260006004820152602401610c13565b6001600160a01b038216610c855760405163ec442f0560e01b815260006004820152602401610c13565b610b7d838383610ff9565b600260055403610cb357604051633ee5aeb560e01b815260040160405180910390fd5b6002600555565b610d0f6001600160a01b037f000000000000000000000000000000000000000000000000000000000000000016337f000000000000000000000000000000000000000000000000000000000000000086611123565b604051637ce2845760e11b81527f000000000000000000000000000000000000000000000000000000000000000060048201526001600160a01b038381166024830152604482018590526000917f00000000000000000000000000000000000000000000000000000000000000009091169063f9c508ae906064016020604051808303816000875af1158015610da9573d6000803e3d6000fd5b505050506040513d601f19601f82011682018060405250810190610dcd91906113f5565b9050818114610e0f5760405162461bcd60e51b815260206004820152600e60248201526d0e6d0c2e4ca40dad2e6dac2e8c6d60931b6044820152606401610c13565b610c2b838361117d565b600081600181610e298688611480565b610e3391906114b9565b610b4991906114cc565b6000610e4884610574565b9050336001600160a01b03831614610e6557610e65823386610bae565b610e6f82856111b7565b60405163b1ad9de960e01b81527f000000000000000000000000000000000000000000000000000000000000000060048201526001600160a01b03848116602483015260448201869052606482018390527f0000000000000000000000000000000000000000000000000000000000000000169063b1ad9de990608401600060405180830381600087803b158015610f0657600080fd5b505af1158015610f1a573d6000803e3d6000fd5b5050505050505050565b6001600160a01b038416610f4e5760405163e602df0560e01b815260006004820152602401610c13565b6001600160a01b038316610f7857604051634a1406b160e11b815260006004820152602401610c13565b6001600160a01b0380851660009081526001602090815260408083209387168352929052208290558015610c2b57826001600160a01b0316846001600160a01b03167f8c5be1e5ebec7d5bd14f71427d1e84f3dd0314c0f7b2291e5b200ac8c7c3b92584604051610feb91815260200190565b60405180910390a350505050565b6001600160a01b03831661102457806002600082825461101991906114b9565b909155506110969050565b6001600160a01b038316600090815260208190526040902054818110156110775760405163391434e360e21b81526001600160a01b03851660048201526024810182905260448101839052606401610c13565b6001600160a01b03841660009081526020819052604090209082900390555b6001600160a01b0382166110b2576002805482900390556110d1565b6001600160a01b03821660009081526020819052604090208054820190555b816001600160a01b0316836001600160a01b03167fddf252ad1be2c89b69c2b068fc378daa952ba7f163c4a11628f55a4df523b3ef8360405161111691815260200190565b60405180910390a3505050565b604080516001600160a01b0385811660248301528416604482015260648082018490528251808303909101815260849091019091526020810180516001600160e01b03166323b872dd60e01b179052610c2b9085906111ed565b6001600160a01b0382166111a75760405163ec442f0560e01b815260006004820152602401610c13565b6111b360008383610ff9565b5050565b6001600160a01b0382166111e157604051634b637e8f60e11b815260006004820152602401610c13565b6111b382600083610ff9565b600080602060008451602086016000885af180611210576040513d6000823e3d81fd5b50506000513d91508115611228578060011415611235565b6001600160a01b0384163b155b15610c2b57604051635274afe760e01b81526001600160a01b0385166004820152602401610c13565b60006020808352835180602085015260005b8181101561128c57858101830151858201604001528201611270565b506000604082860101526040601f19601f8301168501019250505092915050565b6000602082840312156112bf57600080fd5b5035919050565b80356001600160a01b03811681146112dd57600080fd5b919050565b600080604083850312156112f557600080fd5b6112fe836112c6565b946020939093013593505050565b60008060006060848603121561132157600080fd5b61132a846112c6565b9250611338602085016112c6565b9150604084013590509250925092565b60006020828403121561135a57600080fd5b6105dd826112c6565b6000806040838503121561137657600080fd5b82359150611386602084016112c6565b90509250929050565b6000806000606084860312156113a457600080fd5b833592506113b4602085016112c6565b91506113c2604085016112c6565b90509250925092565b600080604083850312156113de57600080fd5b6113e7836112c6565b9150611386602084016112c6565b60006020828403121561140757600080fd5b5051919050565b600181811c9082168061142257607f821691505b60208210810361144257634e487b7160e01b600052602260045260246000fd5b50919050565b60006020828403121561145a57600080fd5b815180151581146105dd57600080fd5b634e487b7160e01b600052601160045260246000fd5b808202811582820484141761058a5761058a61146a565b6000826114b457634e487b7160e01b600052601260045260246000fd5b500490565b8082018082111561058a5761058a61146a565b8181038181111561058a5761058a61146a56fea2646970667358221220dd18861a76797f7c029829044a88262a07c98e54dc22969e2a4d13f58651404f64736f6c63430008180033","linkReferences":{}},"methodIdentifiers":{"allowance(address,address)":"dd62ed3e","approve(address,uint256)":"095ea7b3","asset()":"38d52e0f","balanceOf(address)":"70a08231","convertToAssets(uint256)":"07a2d13a","convertToShares(uint256)":"c6e6f592","decimals()":"313ce567","deposit(uint256,address)":"6e553f65","maxDeposit(address)":"402d267d","maxMint(address)":"c63d75b6","maxRedeem(address)":"d905777e","maxWithdraw(address)":"ce96cb77","mint(uint256,address)":"94bf804d","name()":"06fdde03","previewDeposit(uint256)":"ef8b30f7","previewMint(uint256)":"b3d7f6b9","previewRedeem(uint256)":"4cdad506","previewWithdraw(uint256)":"0a28a477","redeem(uint256,address,address)":"ba087652","singleton()":"b62654fb","symbol()":"95d89b41","tipster()":"ce0b4ed0","totalAssets()":"01e1d114","totalSupply()":"18160ddd","transfer(address,uint256)":"a9059cbb","transferFrom(address,address,uint256)":"23b872dd","vaultId()":"33194c0a","withdraw(uint256,address,address)":"b460af94"},"id":34}