{"abi":[{"type":"function","name":"getCondition","inputs":[{"name":"conditionId","type":"uint256","internalType":"uint256"}],"outputs":[{"name":"","type":"bytes","internalType":"bytes"},{"name":"","type":"uint128[]","internalType":"uint128[]"},{"name":"","type":"uint128","internalType":"uint128"},{"name":"settledAt","type":"uint64","internalType":"uint64"},{"name":"","type":"uint48","internalType":"uint48"},{"name":"","type":"uint8","internalType":"uint8"},{"name":"state","type":"uint8","internalType":"enum IAzuroCore.ConditionState"},{"name":"","type":"address","internalType":"address"}],"stateMutability":"view"},{"type":"function","name":"isConditionCanceled","inputs":[{"name":"conditionId","type":"uint256","internalType":"uint256"}],"outputs":[{"name":"","type":"bool","internalType":"bool"}],"stateMutability":"view"},{"type":"function","name":"isOutcomeWinning","inputs":[{"name":"conditionId","type":"uint256","internalType":"uint256"},{"name":"","type":"uint128","internalType":"uint128"}],"outputs":[{"name":"","type":"bool","internalType":"bool"}],"stateMutability":"view"},{"type":"function","name":"resolutions","inputs":[{"name":"conditionId","type":"uint256","internalType":"uint256"}],"outputs":[{"name":"resolved","type":"bool","internalType":"bool"},{"name":"canceled","type":"bool","internalType":"bool"},{"name":"outcomeWon","type":"bool","internalType":"bool"},{"name":"payout","type":"uint128","internalType":"uint128"}],"stateMutability":"view"},{"type":"function","name":"setCanceled","inputs":[{"name":"conditionId","type":"uint256","internalType":"uint256"}],"outputs":[],"stateMutability":"nonpayable"},{"type":"function","name":"setResolved","inputs":[{"name":"conditionId","type":"uint256","internalType":"uint256"},{"name":"outcomeWon","type":"bool","internalType":"bool"},{"name":"payout","type":"uint128","internalType":"uint128"}],"outputs":[],"stateMutability":"nonpayable"},{"type":"function","name":"viewPayout","inputs":[{"name":"","type":"uint256","internalType":"uint256"}],"outputs":[{"name":"","type":"uint128","internalType":"uint128"}],"stateMutability":"pure"}],"bytecode":{"object":"0x6080806040523461001657610518908161001c8239f35b600080fdfe6080604081815260048036101561001557600080fd5b600092833560e01c9081632589867d146103a7575080635d311bdd146103685780637bf212f814610240578063a4b7f5ce146101e7578063b591f87f14610131578063d6033c74146100a15763d8da4bab1461007057600080fd5b3461009d57602036600319011261009d578160209360ff92358152808552205460081c1690519015158152f35b8280fd5b50903461009d57602036600319011261009d576100bc6103c1565b9160018352602083019160018352808401908582526060850192868452358652856020528520935115159260ff6301000000600160981b0362ff000061ff0088549451151560081b169451151560101b16945160181b169416906cffffffffffffffffffffffffff60981b1617171717905580f35b503461009d57606036600319011261009d576024358015158091036101e357604435906001600160801b0382168092036101df5761016d6103c1565b9360018552602085019386855281860192835260608601938452358652856020528520935115159260ff6301000000600160981b0362ff000061ff0088549451151560081b169451151560101b16945160181b169416906cffffffffffffffffffffffffff60981b1617171717905580f35b8480fd5b8380fd5b503461009d57602036600319011261009d57816080936001600160801b039235815280602052205482519260ff82161515845260ff8260081c161515602085015260ff8260101c1615159084015260181c166060820152f35b509190346103645760209182600319360112610361576102608435610417565b9795989194909682949394519a61010091828d528c81519384910152885b8d84821061034c5783949392506101409150610120938b858284010152601f80199101168101908385830195828403019101528d51809452019b0191885b82811061032f57505050506001600160801b03169089015267ffffffffffffffff16606088015265ffffffffffff16608087015260ff1660a0860152600582101561031c575060c08401526001600160a01b031660e08301528190039150f35b634e487b7160e01b815260218652602490fd5b83516001600160801b03168d529b81019b928101926001016102bc565b8282018401519082016101200152820161027e565b80fd5b5080fd5b503461009d578160031936011261009d576024356001600160801b0381160361009d578160209360ff92358152808552205460101c1690519015158152f35b849034610364576020366003190112610364576020918152f35b604051906080820182811067ffffffffffffffff8211176103e157604052565b634e487b7160e01b600052604160045260246000fd5b604051906020820182811067ffffffffffffffff8211176103e157604052565b906000918252816020526040822061042d6103c1565b905460ff8116151582526001600160801b0360ff8260081c1615159182602085015260ff8160101c161515604085015260181c1660608301526104bb5751610494576104776103f7565b918083526104836103f7565b818152929181809181809160019190565b61049c6103f7565b918083526104a86103f7565b8181529291816001918160019160029190565b506104c46103f7565b918083526104d06103f7565b8181529291816001918180916003919056fea2646970667358221220b8248b228ba4307538002aec8795809cb074e96655b9116c5798300bf3e260d664736f6c63430008180033","linkReferences":{}},"methodIdentifiers":{"getCondition(uint256)":"7bf212f8","isConditionCanceled(uint256)":"d8da4bab","isOutcomeWinning(uint256,uint128)":"5d311bdd","resolutions(uint256)":"a4b7f5ce","setCanceled(uint256)":"d6033c74","setResolved(uint256,bool,uint128)":"b591f87f","viewPayout(uint256)":"2589867d"},"id":56}