{"abi":[{"type":"function","name":"getCondition","inputs":[{"name":"conditionId","type":"uint256","internalType":"uint256"}],"outputs":[{"name":"","type":"bytes","internalType":"bytes"},{"name":"","type":"uint128[]","internalType":"uint128[]"},{"name":"","type":"uint128","internalType":"uint128"},{"name":"settledAt","type":"uint64","internalType":"uint64"},{"name":"","type":"uint48","internalType":"uint48"},{"name":"","type":"uint8","internalType":"uint8"},{"name":"state","type":"uint8","internalType":"enum IAzuroCore.ConditionState"},{"name":"","type":"address","internalType":"address"}],"stateMutability":"view"},{"type":"function","name":"isConditionCanceled","inputs":[{"name":"conditionId","type":"uint256","internalType":"uint256"}],"outputs":[{"name":"","type":"bool","internalType":"bool"}],"stateMutability":"view"},{"type":"function","name":"isOutcomeWinning","inputs":[{"name":"conditionId","type":"uint256","internalType":"uint256"},{"name":"","type":"uint128","internalType":"uint128"}],"outputs":[{"name":"","type":"bool","internalType":"bool"}],"stateMutability":"view"},{"type":"function","name":"resolutions","inputs":[{"name":"conditionId","type":"uint256","internalType":"uint256"}],"outputs":[{"name":"resolved","type":"bool","internalType":"bool"},{"name":"canceled","type":"bool","internalType":"bool"},{"name":"outcomeWon","type":"bool","internalType":"bool"},{"name":"payout","type":"uint128","internalType":"uint128"}],"stateMutability":"view"},{"type":"function","name":"setCanceled","inputs":[{"name":"conditionId","type":"uint256","internalType":"uint256"}],"outputs":[],"stateMutability":"nonpayable"},{"type":"function","name":"setResolved","inputs":[{"name":"conditionId","type":"uint256","internalType":"uint256"},{"name":"outcomeWon","type":"bool","internalType":"bool"},{"name":"payout","type":"uint128","internalType":"uint128"}],"outputs":[],"stateMutability":"nonpayable"},{"type":"function","name":"viewPayout","inputs":[{"name":"","type":"uint256","internalType":"uint256"}],"outputs":[{"name":"","type":"uint128","internalType":"uint128"}],"stateMutability":"pure"}],"bytecode":{"object":"0x608060405234801561001057600080fd5b5061062c806100206000396000f3fe608060405234801561001057600080fd5b506004361061007d5760003560e01c8063a4b7f5ce1161005b578063a4b7f5ce14610114578063b591f87f1461018b578063d6033c741461023a578063d8da4bab146102e257600080fd5b80632589867d146100825780635d311bdd146100b35780637bf212f8146100ed575b600080fd5b61009661009036600461041d565b50600090565b6040516001600160801b0390911681526020015b60405180910390f35b6100dd6100c1366004610452565b5060009081526020819052604090205462010000900460ff1690565b60405190151581526020016100aa565b6101006100fb36600461041d565b61030a565b6040516100aa9897969594939291906104e5565b61015a61012236600461041d565b60006020819052908152604090205460ff8082169161010081048216916201000082041690630100000090046001600160801b031684565b6040805194151585529215156020850152901515918301919091526001600160801b031660608201526080016100aa565b6102386101993660046105b3565b6040805160808101825260018152600060208083018281529515158385019081526001600160801b0395861660608501908152978352908290529290209051815494519251955161ffff1990951690151561ff00191617610100921515929092029190911762010000600160981b03191662010000941515949094026301000000600160981b0319169390931763010000009290911691909102179055565b005b61023861024836600461041d565b604080516080810182526001808252602080830191825260008385018181526060850182815296825291819052939093209151825491519351945161ffff1990921690151561ff00191617610100931515939093029290921762010000600160981b03191662010000931515939093026301000000600160981b0319169290921763010000006001600160801b0390921691909102179055565b6100dd6102f036600461041d565b600090815260208190526040902054610100900460ff1690565b6000818152602081815260408083208151608081018352905460ff8082161515835261010082048116158015958401959095526201000082041615159282019290925263010000009091046001600160801b03166060808301919091529283929091829182918291829182916103ac57505060408051600080825281830190925260208101828152985096509450600193508492508291506003905081610412565b8051156103e557505060408051600080825281830190925260208101828152985096509450600193508492508391506002905082610412565b50506040805160008082528183019092526020810182815298509650945084935083925082915060019050815b919395975091939597565b60006020828403121561042f57600080fd5b5035919050565b80356001600160801b038116811461044d57600080fd5b919050565b6000806040838503121561046557600080fd5b8235915061047560208401610436565b90509250929050565b60008151808452602080850194506020840160005b838110156104b85781516001600160801b031687529582019590820190600101610493565b509495945050505050565b600581106104e157634e487b7160e01b600052602160045260246000fd5b9052565b60006101008083528a518082850152600091505b8082101561051b576020828d01015161012083860101526020820191506104f9565b61012091506000828286010152601f19601f820116840190508184820301602085015261054a8282018c61047e565b9250505061056360408301896001600160801b03169052565b67ffffffffffffffff8716606083015265ffffffffffff8616608083015260ff851660a083015261059760c08301856104c3565b6001600160a01b03831660e08301529998505050505050505050565b6000806000606084860312156105c857600080fd5b83359250602084013580151581146105df57600080fd5b91506105ed60408501610436565b9050925092509256fea264697066735822122069273c3583138becee94baeb0a00c8c044a29e6f9d0f36d9a0c8b595a64fb79864736f6c63430008180033","linkReferences":{}},"methodIdentifiers":{"getCondition(uint256)":"7bf212f8","isConditionCanceled(uint256)":"d8da4bab","isOutcomeWinning(uint256,uint128)":"5d311bdd","resolutions(uint256)":"a4b7f5ce","setCanceled(uint256)":"d6033c74","setResolved(uint256,bool,uint128)":"b591f87f","viewPayout(uint256)":"2589867d"},"id":40}